{
	"data": {
		"bytecode": {
			"linkReferences": {},
			"object": "60a0604052670de0b6b3a764000060075564e8d4a50fff600855600a6009553480156200002b57600080fd5b506040518060400160405280601281526020017f4e616d65724b6f726563746c79546f6b656e00000000000000000000000000008152506040518060400160405280600381526020017f4d544b00000000000000000000000000000000000000000000000000000000008152508160009081620000a9919062000372565b508060019081620000bb919062000372565b5050503373ffffffffffffffffffffffffffffffffffffffff1660808173ffffffffffffffffffffffffffffffffffffffff168152505062000459565b600081519050919050565b7f4e487b7100000000000000000000000000000000000000000000000000000000600052604160045260246000fd5b7f4e487b7100000000000000000000000000000000000000000000000000000000600052602260045260246000fd5b600060028204905060018216806200017a57607f821691505b60208210810362000190576200018f62000132565b5b50919050565b60008190508160005260206000209050919050565b60006020601f8301049050919050565b600082821b905092915050565b600060088302620001fa7fffffffffffffffffffffffffffffffffffffffffffffffffffffffffffffffff82620001bb565b620002068683620001bb565b95508019841693508086168417925050509392505050565b6000819050919050565b6000819050919050565b6000620002536200024d62000247846200021e565b62000228565b6200021e565b9050919050565b6000819050919050565b6200026f8362000232565b620002876200027e826200025a565b848454620001c8565b825550505050565b600090565b6200029e6200028f565b620002ab81848462000264565b505050565b5b81811015620002d357620002c760008262000294565b600181019050620002b1565b5050565b601f8211156200032257620002ec8162000196565b620002f784620001ab565b8101602085101562000307578190505b6200031f6200031685620001ab565b830182620002b0565b50505b505050565b600082821c905092915050565b6000620003476000198460080262000327565b1980831691505092915050565b600062000362838362000334565b9150826002028217905092915050565b6200037d82620000f8565b67ffffffffffffffff81111562000399576200039862000103565b5b620003a5825462000161565b620003b2828285620002d7565b600060209050601f831160018114620003ea5760008415620003d5578287015190505b620003e1858262000354565b86555062000451565b601f198416620003fa8662000196565b60005b828110156200042457848901518255600182019150602085019450602081019050620003fd565b8683101562000444578489015162000440601f89168262000334565b8355505b6001600288020188555050505b505050505050565b60805161482c620004986000396000818161078501528181610af001528181611134015281816111c20152818161176f0152611b11015261482c6000f3fe6080604052600436106101c55760003560e01c80636817c76c116100f7578063a577d0aa11610095578063d5abeb0111610064578063d5abeb01146106b3578063e985e9c5146106de578063f0293fd31461071b578063f72a71f21461075857610203565b8063a577d0aa14610606578063b88d4fde14610622578063c1d600831461064b578063c87b56dd1461067657610203565b80638102fced116100d15780638102fced146105445780638da5cb5b1461058757806395d89b41146105b2578063a22cb465146105dd57610203565b80636817c76c146104b357806370a08231146104de5780637db1342c1461051b57610203565b806323b872dd1161016457806342842e0e1161013e57806342842e0e146103f7578063453c231014610420578063505168081461044b5780636352211e1461047657610203565b806323b872dd1461037a57806329b31633146103a35780633ccfd60b146103e057610203565b8063081812fc116101a0578063081812fc146102cd578063095ea7b31461030a57806312065fe01461033357806319fa10991461035e57610203565b8062728e461461023c57806301ffc9a71461026557806306fdde03146102a257610203565b36610203577faccb040fff26b9a56068494bd1e9048f1124702b2a24eeba2e1ba2055c4f3dca336040516101f9919061307e565b60405180910390a1005b7faccb040fff26b9a56068494bd1e9048f1124702b2a24eeba2e1ba2055c4f3dca33604051610232919061307e565b60405180910390a1005b34801561024857600080fd5b50610263600480360381019061025e91906130f6565b610783565b005b34801561027157600080fd5b5061028c6004803603810190610287919061317b565b61081b565b60405161029991906131c3565b60405180910390f35b3480156102ae57600080fd5b506102b76108fd565b6040516102c4919061325d565b60405180910390f35b3480156102d957600080fd5b506102f460048036038101906102ef91906130f6565b61098f565b604051610301919061327f565b60405180910390f35b34801561031657600080fd5b50610331600480360381019061032c91906132c6565b6109d5565b005b34801561033f57600080fd5b50610348610aec565b6040516103559190613315565b60405180910390f35b61037860048036038101906103739190613465565b610b82565b005b34801561038657600080fd5b506103a1600480360381019061039c919061356c565b610d6b565b005b3480156103af57600080fd5b506103ca60048036038101906103c591906130f6565b610dcb565b6040516103d791906136df565b60405180910390f35b3480156103ec57600080fd5b506103f5611132565b005b34801561040357600080fd5b5061041e6004803603810190610419919061356c565b611260565b005b34801561042c57600080fd5b50610435611280565b6040516104429190613315565b60405180910390f35b34801561045757600080fd5b50610460611286565b60405161046d91906136df565b60405180910390f35b34801561048257600080fd5b5061049d600480360381019061049891906130f6565b61162a565b6040516104aa919061327f565b60405180910390f35b3480156104bf57600080fd5b506104c86116b0565b6040516104d59190613315565b60405180910390f35b3480156104ea57600080fd5b5061050560048036038101906105009190613701565b6116b6565b6040516105129190613315565b60405180910390f35b34801561052757600080fd5b50610542600480360381019061053d91906130f6565b61176d565b005b34801561055057600080fd5b5061056b600480360381019061056691906130f6565b611805565b60405161057e979695949392919061372e565b60405180910390f35b34801561059357600080fd5b5061059c611b0f565b6040516105a9919061327f565b60405180910390f35b3480156105be57600080fd5b506105c7611b33565b6040516105d4919061325d565b60405180910390f35b3480156105e957600080fd5b5061060460048036038101906105ff91906137ec565b611bc5565b005b610620600480360381019061061b9190613701565b611bdb565b005b34801561062e57600080fd5b50610649600480360381019061064491906138cd565b611dd4565b005b34801561065757600080fd5b50610660611e36565b60405161066d9190613315565b60405180910390f35b34801561068257600080fd5b5061069d600480360381019061069891906130f6565b611e47565b6040516106aa919061325d565b60405180910390f35b3480156106bf57600080fd5b506106c8611eaf565b6040516106d59190613315565b60405180910390f35b3480156106ea57600080fd5b5061070560048036038101906107009190613950565b611eb5565b60405161071291906131c3565b60405180910390f35b34801561072757600080fd5b50610742600480360381019061073d9190613701565b611f49565b60405161074f9190613315565b60405180910390f35b34801561076457600080fd5b5061076d611f61565b60405161077a9190613315565b60405180910390f35b7f000000000000000000000000000000000000000000000000000000000000000073ffffffffffffffffffffffffffffffffffffffff163373ffffffffffffffffffffffffffffffffffffffff1614610811576040517f08c379a0000000000000000000000000000000000000000000000000000000008152600401610808906139dc565b60405180910390fd5b8060078190555050565b60007f80ac58cd000000000000000000000000000000000000000000000000000000007bffffffffffffffffffffffffffffffffffffffffffffffffffffffff1916827bffffffffffffffffffffffffffffffffffffffffffffffffffffffff191614806108e657507f5b5e139f000000000000000000000000000000000000000000000000000000007bffffffffffffffffffffffffffffffffffffffffffffffffffffffff1916827bffffffffffffffffffffffffffffffffffffffffffffffffffffffff1916145b806108f657506108f582611fa8565b5b9050919050565b60606000805461090c90613a2b565b80601f016020809104026020016040519081016040528092919081815260200182805461093890613a2b565b80156109855780601f1061095a57610100808354040283529160200191610985565b820191906000526020600020905b81548152906001019060200180831161096857829003601f168201915b5050505050905090565b600061099a82612012565b6004600083815260200190815260200160002060009054906101000a900473ffffffffffffffffffffffffffffffffffffffff169050919050565b60006109e08261162a565b90508073ffffffffffffffffffffffffffffffffffffffff168373ffffffffffffffffffffffffffffffffffffffff1603610a50576040517f08c379a0000000000000000000000000000000000000000000000000000000008152600401610a4790613ace565b60405180910390fd5b8073ffffffffffffffffffffffffffffffffffffffff16610a6f61205d565b73ffffffffffffffffffffffffffffffffffffffff161480610a9e5750610a9d81610a9861205d565b611eb5565b5b610add576040517f08c379a0000000000000000000000000000000000000000000000000000000008152600401610ad490613b60565b60405180910390fd5b610ae78383612065565b505050565b60007f000000000000000000000000000000000000000000000000000000000000000073ffffffffffffffffffffffffffffffffffffffff163373ffffffffffffffffffffffffffffffffffffffff1614610b7c576040517f08c379a0000000000000000000000000000000000000000000000000000000008152600401610b73906139dc565b60405180910390fd5b47905090565b6009546001600b60003373ffffffffffffffffffffffffffffffffffffffff1673ffffffffffffffffffffffffffffffffffffffff16815260200190815260200160002054610bd19190613baf565b1180610bdf57503460075414155b80610bec57506000600754105b15610c29577fb3317957ad6d3d5621d30c44f797952eeb13cfa98273d387a22a66362042093633604051610c209190613c55565b60405180910390a15b600954600b60003373ffffffffffffffffffffffffffffffffffffffff1673ffffffffffffffffffffffffffffffffffffffff1681526020019081526020016000205410610cac576040517f08c379a0000000000000000000000000000000000000000000000000000000008152600401610ca390613ccf565b60405180910390fd5b34600754148015610cc05750600060075410155b610cff576040517f08c379a0000000000000000000000000000000000000000000000000000000008152600401610cf690613d61565b60405180910390fd5b6001600b60003373ffffffffffffffffffffffffffffffffffffffff1673ffffffffffffffffffffffffffffffffffffffff1681526020019081526020016000206000828254610d4f9190613baf565b92505081905550610d6433868686868661211e565b5050505050565b610d7c610d7661205d565b8261229e565b610dbb576040517f08c379a0000000000000000000000000000000000000000000000000000000008152600401610db290613df3565b60405180910390fd5b610dc6838383612333565b505050565b610dd3612f67565b600a60008381526020019081526020016000206040518060e0016040529081600082015481526020016001820160009054906101000a900473ffffffffffffffffffffffffffffffffffffffff1673ffffffffffffffffffffffffffffffffffffffff1673ffffffffffffffffffffffffffffffffffffffff168152602001600282018054610e6190613a2b565b80601f0160208091040260200160405190810160405280929190818152602001828054610e8d90613a2b565b8015610eda5780601f10610eaf57610100808354040283529160200191610eda565b820191906000526020600020905b815481529060010190602001808311610ebd57829003601f168201915b50505050508152602001600382018054610ef390613a2b565b80601f0160208091040260200160405190810160405280929190818152602001828054610f1f90613a2b565b8015610f6c5780601f10610f4157610100808354040283529160200191610f6c565b820191906000526020600020905b815481529060010190602001808311610f4f57829003601f168201915b50505050508152602001600482018054610f8590613a2b565b80601f0160208091040260200160405190810160405280929190818152602001828054610fb190613a2b565b8015610ffe5780601f10610fd357610100808354040283529160200191610ffe565b820191906000526020600020905b815481529060010190602001808311610fe157829003601f168201915b5050505050815260200160058201805461101790613a2b565b80601f016020809104026020016040519081016040528092919081815260200182805461104390613a2b565b80156110905780601f1061106557610100808354040283529160200191611090565b820191906000526020600020905b81548152906001019060200180831161107357829003601f168201915b505050505081526020016006820180546110a990613a2b565b80601f01602080910402602001604051908101604052809291908181526020018280546110d590613a2b565b80156111225780601f106110f757610100808354040283529160200191611122565b820191906000526020600020905b81548152906001019060200180831161110557829003601f168201915b5050505050815250509050919050565b7f000000000000000000000000000000000000000000000000000000000000000073ffffffffffffffffffffffffffffffffffffffff163373ffffffffffffffffffffffffffffffffffffffff16146111c0576040517f08c379a00000000000000000000000000000000000000000000000000000000081526004016111b7906139dc565b60405180910390fd5b7f000000000000000000000000000000000000000000000000000000000000000073ffffffffffffffffffffffffffffffffffffffff166108fc479081150290604051600060405180830381858888f19350505050158015611226573d6000803e3d6000fd5b507fb1498caeff53dedfd60b0350441a317b7dbcaf269f950c19ae1d1e3a30a8aa7c336040516112569190613e85565b60405180910390a1565b61127b83838360405180602001604052806000815250611dd4565b505050565b60095481565b61128e612f67565b600a6000600b60003373ffffffffffffffffffffffffffffffffffffffff1673ffffffffffffffffffffffffffffffffffffffff1681526020019081526020016000205481526020019081526020016000206040518060e0016040529081600082015481526020016001820160009054906101000a900473ffffffffffffffffffffffffffffffffffffffff1673ffffffffffffffffffffffffffffffffffffffff1673ffffffffffffffffffffffffffffffffffffffff16815260200160028201805461135b90613a2b565b80601f016020809104026020016040519081016040528092919081815260200182805461138790613a2b565b80156113d45780601f106113a9576101008083540402835291602001916113d4565b820191906000526020600020905b8154815290600101906020018083116113b757829003601f168201915b505050505081526020016003820180546113ed90613a2b565b80601f016020809104026020016040519081016040528092919081815260200182805461141990613a2b565b80156114665780601f1061143b57610100808354040283529160200191611466565b820191906000526020600020905b81548152906001019060200180831161144957829003601f168201915b5050505050815260200160048201805461147f90613a2b565b80601f01602080910402602001604051908101604052809291908181526020018280546114ab90613a2b565b80156114f85780601f106114cd576101008083540402835291602001916114f8565b820191906000526020600020905b8154815290600101906020018083116114db57829003601f168201915b5050505050815260200160058201805461151190613a2b565b80601f016020809104026020016040519081016040528092919081815260200182805461153d90613a2b565b801561158a5780601f1061155f5761010080835404028352916020019161158a565b820191906000526020600020905b81548152906001019060200180831161156d57829003601f168201915b505050505081526020016006820180546115a390613a2b565b80601f01602080910402602001604051908101604052809291908181526020018280546115cf90613a2b565b801561161c5780601f106115f15761010080835404028352916020019161161c565b820191906000526020600020905b8154815290600101906020018083116115ff57829003601f168201915b505050505081525050905090565b6000806116368361262c565b9050600073ffffffffffffffffffffffffffffffffffffffff168173ffffffffffffffffffffffffffffffffffffffff16036116a7576040517f08c379a000000000000000000000000000000000000000000000000000000000815260040161169e90613eff565b60405180910390fd5b80915050919050565b60075481565b60008073ffffffffffffffffffffffffffffffffffffffff168273ffffffffffffffffffffffffffffffffffffffff1603611726576040517f08c379a000000000000000000000000000000000000000000000000000000000815260040161171d90613f91565b60405180910390fd5b600360008373ffffffffffffffffffffffffffffffffffffffff1673ffffffffffffffffffffffffffffffffffffffff168152602001908152602001600020549050919050565b7f000000000000000000000000000000000000000000000000000000000000000073ffffffffffffffffffffffffffffffffffffffff163373ffffffffffffffffffffffffffffffffffffffff16146117fb576040517f08c379a00000000000000000000000000000000000000000000000000000000081526004016117f2906139dc565b60405180910390fd5b8060098190555050565b600a6020528060005260406000206000915090508060000154908060010160009054906101000a900473ffffffffffffffffffffffffffffffffffffffff169080600201805461185490613a2b565b80601f016020809104026020016040519081016040528092919081815260200182805461188090613a2b565b80156118cd5780601f106118a2576101008083540402835291602001916118cd565b820191906000526020600020905b8154815290600101906020018083116118b057829003601f168201915b5050505050908060030180546118e290613a2b565b80601f016020809104026020016040519081016040528092919081815260200182805461190e90613a2b565b801561195b5780601f106119305761010080835404028352916020019161195b565b820191906000526020600020905b81548152906001019060200180831161193e57829003601f168201915b50505050509080600401805461197090613a2b565b80601f016020809104026020016040519081016040528092919081815260200182805461199c90613a2b565b80156119e95780601f106119be576101008083540402835291602001916119e9565b820191906000526020600020905b8154815290600101906020018083116119cc57829003601f168201915b5050505050908060050180546119fe90613a2b565b80601f0160208091040260200160405190810160405280929190818152602001828054611a2a90613a2b565b8015611a775780601f10611a4c57610100808354040283529160200191611a77565b820191906000526020600020905b815481529060010190602001808311611a5a57829003601f168201915b505050505090806006018054611a8c90613a2b565b80601f0160208091040260200160405190810160405280929190818152602001828054611ab890613a2b565b8015611b055780601f10611ada57610100808354040283529160200191611b05565b820191906000526020600020905b815481529060010190602001808311611ae857829003601f168201915b5050505050905087565b7f000000000000000000000000000000000000000000000000000000000000000081565b606060018054611b4290613a2b565b80601f0160208091040260200160405190810160405280929190818152602001828054611b6e90613a2b565b8015611bbb5780601f10611b9057610100808354040283529160200191611bbb565b820191906000526020600020905b815481529060010190602001808311611b9e57829003601f168201915b5050505050905090565b611bd7611bd061205d565b8383612669565b5050565b6001600b60003373ffffffffffffffffffffffffffffffffffffffff1673ffffffffffffffffffffffffffffffffffffffff168152602001908152602001600020541015611c5e576040517f08c379a0000000000000000000000000000000000000000000000000000000008152600401611c5590613ffd565b60405180910390fd5b600954600b60008373ffffffffffffffffffffffffffffffffffffffff1673ffffffffffffffffffffffffffffffffffffffff1681526020019081526020016000205410611ce1576040517f08c379a0000000000000000000000000000000000000000000000000000000008152600401611cd89061408f565b60405180910390fd5b6001600b60003373ffffffffffffffffffffffffffffffffffffffff1673ffffffffffffffffffffffffffffffffffffffff1681526020019081526020016000206000828254611d3191906140af565b925050819055506001600b60008373ffffffffffffffffffffffffffffffffffffffff1673ffffffffffffffffffffffffffffffffffffffff1681526020019081526020016000206000828254611d889190613baf565b92505081905550611d98816127d5565b7f495bd26db9532b661cc94fdc4f97d8bcbcd305a444b77a3b460f5f0daf29caca3382604051611dc99291906140e3565b60405180910390a150565b611de5611ddf61205d565b8361229e565b611e24576040517f08c379a0000000000000000000000000000000000000000000000000000000008152600401611e1b90613df3565b60405180910390fd5b611e3084848484612822565b50505050565b6000611e42600661287e565b905090565b6060611e5282612012565b6000611e5c61288c565b90506000815111611e7c5760405180602001604052806000815250611ea7565b80611e86846128a3565b604051602001611e97929190614148565b6040516020818303038152906040525b915050919050565b60085481565b6000600560008473ffffffffffffffffffffffffffffffffffffffff1673ffffffffffffffffffffffffffffffffffffffff16815260200190815260200160002060008373ffffffffffffffffffffffffffffffffffffffff1673ffffffffffffffffffffffffffffffffffffffff16815260200190815260200160002060009054906101000a900460ff16905092915050565b600b6020528060005260406000206000915090505481565b6000600b60003373ffffffffffffffffffffffffffffffffffffffff1673ffffffffffffffffffffffffffffffffffffffff16815260200190815260200160002054905090565b60007f01ffc9a7000000000000000000000000000000000000000000000000000000007bffffffffffffffffffffffffffffffffffffffffffffffffffffffff1916827bffffffffffffffffffffffffffffffffffffffffffffffffffffffff1916149050919050565b61201b81612971565b61205a576040517f08c379a000000000000000000000000000000000000000000000000000000000815260040161205190613eff565b60405180910390fd5b50565b600033905090565b816004600083815260200190815260200160002060006101000a81548173ffffffffffffffffffffffffffffffffffffffff021916908373ffffffffffffffffffffffffffffffffffffffff160217905550808273ffffffffffffffffffffffffffffffffffffffff166120d88361162a565b73ffffffffffffffffffffffffffffffffffffffff167f8c5be1e5ebec7d5bd14f71427d1e84f3dd0314c0f7b2291e5b200ac8c7c3b92560405160405180910390a45050565b600061212a600661287e565b905061213660066129b2565b6040518060e001604052808281526020018873ffffffffffffffffffffffffffffffffffffffff16815260200187815260200186815260200185815260200184815260200183815250600a60008381526020019081526020016000206000820151816000015560208201518160010160006101000a81548173ffffffffffffffffffffffffffffffffffffffff021916908373ffffffffffffffffffffffffffffffffffffffff16021790555060408201518160020190816121f89190614318565b50606082015181600301908161220e9190614318565b5060808201518160040190816122249190614318565b5060a082015181600501908161223a9190614318565b5060c08201518160060190816122509190614318565b5090505061225e87826129c8565b7f3e14e47796444ea73a0e596a4f029953e56de863e1293bfb31cf3a2663fbe3ad8760405161228d919061327f565b60405180910390a150505050505050565b6000806122aa8361162a565b90508073ffffffffffffffffffffffffffffffffffffffff168473ffffffffffffffffffffffffffffffffffffffff1614806122ec57506122eb8185611eb5565b5b8061232a57508373ffffffffffffffffffffffffffffffffffffffff166123128461098f565b73ffffffffffffffffffffffffffffffffffffffff16145b91505092915050565b8273ffffffffffffffffffffffffffffffffffffffff166123538261162a565b73ffffffffffffffffffffffffffffffffffffffff16146123a9576040517f08c379a00000000000000000000000000000000000000000000000000000000081526004016123a09061445c565b60405180910390fd5b600073ffffffffffffffffffffffffffffffffffffffff168273ffffffffffffffffffffffffffffffffffffffff1603612418576040517f08c379a000000000000000000000000000000000000000000000000000000000815260040161240f906144ee565b60405180910390fd5b61242583838360016129e6565b8273ffffffffffffffffffffffffffffffffffffffff166124458261162a565b73ffffffffffffffffffffffffffffffffffffffff161461249b576040517f08c379a00000000000000000000000000000000000000000000000000000000081526004016124929061445c565b60405180910390fd5b6004600082815260200190815260200160002060006101000a81549073ffffffffffffffffffffffffffffffffffffffff02191690556001600360008573ffffffffffffffffffffffffffffffffffffffff1673ffffffffffffffffffffffffffffffffffffffff168152602001908152602001600020600082825403925050819055506001600360008473ffffffffffffffffffffffffffffffffffffffff1673ffffffffffffffffffffffffffffffffffffffff16815260200190815260200160002060008282540192505081905550816002600083815260200190815260200160002060006101000a81548173ffffffffffffffffffffffffffffffffffffffff021916908373ffffffffffffffffffffffffffffffffffffffff160217905550808273ffffffffffffffffffffffffffffffffffffffff168473ffffffffffffffffffffffffffffffffffffffff167fddf252ad1be2c89b69c2b068fc378daa952ba7f163c4a11628f55a4df523b3ef60405160405180910390a461262783838360016129ec565b505050565b60006002600083815260200190815260200160002060009054906101000a900473ffffffffffffffffffffffffffffffffffffffff169050919050565b8173ffffffffffffffffffffffffffffffffffffffff168373ffffffffffffffffffffffffffffffffffffffff16036126d7576040517f08c379a00000000000000000000000000000000000000000000000000000000081526004016126ce9061455a565b60405180910390fd5b80600560008573ffffffffffffffffffffffffffffffffffffffff1673ffffffffffffffffffffffffffffffffffffffff16815260200190815260200160002060008473ffffffffffffffffffffffffffffffffffffffff1673ffffffffffffffffffffffffffffffffffffffff16815260200190815260200160002060006101000a81548160ff0219169083151502179055508173ffffffffffffffffffffffffffffffffffffffff168373ffffffffffffffffffffffffffffffffffffffff167f17307eab39ab6107e8899845ad3d59bd9653f200f220920489ca2b5937696c31836040516127c891906131c3565b60405180910390a3505050565b61281f3382600b60003373ffffffffffffffffffffffffffffffffffffffff1673ffffffffffffffffffffffffffffffffffffffff16815260200190815260200160002054611260565b50565b61282d848484612333565b612839848484846129f2565b612878576040517f08c379a000000000000000000000000000000000000000000000000000000000815260040161286f906145ec565b60405180910390fd5b50505050565b600081600001549050919050565b606060405180602001604052806000815250905090565b6060600060016128b284612b79565b01905060008167ffffffffffffffff8111156128d1576128d061333a565b5b6040519080825280601f01601f1916602001820160405280156129035781602001600182028036833780820191505090505b509050600082602001820190505b600115612966578080600190039150507f3031323334353637383961626364656600000000000000000000000000000000600a86061a8153600a858161295a5761295961460c565b5b04945060008503612911575b819350505050919050565b60008073ffffffffffffffffffffffffffffffffffffffff166129938361262c565b73ffffffffffffffffffffffffffffffffffffffff1614159050919050565b6001816000016000828254019250508190555050565b6129e2828260405180602001604052806000815250612ccc565b5050565b50505050565b50505050565b6000612a138473ffffffffffffffffffffffffffffffffffffffff16612d27565b15612b6c578373ffffffffffffffffffffffffffffffffffffffff1663150b7a02612a3c61205d565b8786866040518563ffffffff1660e01b8152600401612a5e9493929190614690565b6020604051808303816000875af1925050508015612a9a57506040513d601f19601f82011682018060405250810190612a9791906146f1565b60015b612b1c573d8060008114612aca576040519150601f19603f3d011682016040523d82523d6000602084013e612acf565b606091505b506000815103612b14576040517f08c379a0000000000000000000000000000000000000000000000000000000008152600401612b0b906145ec565b60405180910390fd5b805181602001fd5b63150b7a0260e01b7bffffffffffffffffffffffffffffffffffffffffffffffffffffffff1916817bffffffffffffffffffffffffffffffffffffffffffffffffffffffff191614915050612b71565b600190505b949350505050565b600080600090507a184f03e93ff9f4daa797ed6e38ed64bf6a1f0100000000000000008310612bd7577a184f03e93ff9f4daa797ed6e38ed64bf6a1f0100000000000000008381612bcd57612bcc61460c565b5b0492506040810190505b6d04ee2d6d415b85acef81000000008310612c14576d04ee2d6d415b85acef81000000008381612c0a57612c0961460c565b5b0492506020810190505b662386f26fc100008310612c4357662386f26fc100008381612c3957612c3861460c565b5b0492506010810190505b6305f5e1008310612c6c576305f5e1008381612c6257612c6161460c565b5b0492506008810190505b6127108310612c91576127108381612c8757612c8661460c565b5b0492506004810190505b60648310612cb45760648381612caa57612ca961460c565b5b0492506002810190505b600a8310612cc3576001810190505b80915050919050565b612cd68383612d4a565b612ce360008484846129f2565b612d22576040517f08c379a0000000000000000000000000000000000000000000000000000000008152600401612d19906145ec565b60405180910390fd5b505050565b6000808273ffffffffffffffffffffffffffffffffffffffff163b119050919050565b600073ffffffffffffffffffffffffffffffffffffffff168273ffffffffffffffffffffffffffffffffffffffff1603612db9576040517f08c379a0000000000000000000000000000000000000000000000000000000008152600401612db09061476a565b60405180910390fd5b612dc281612971565b15612e02576040517f08c379a0000000000000000000000000000000000000000000000000000000008152600401612df9906147d6565b60405180910390fd5b612e106000838360016129e6565b612e1981612971565b15612e59576040517f08c379a0000000000000000000000000000000000000000000000000000000008152600401612e50906147d6565b60405180910390fd5b6001600360008473ffffffffffffffffffffffffffffffffffffffff1673ffffffffffffffffffffffffffffffffffffffff16815260200190815260200160002060008282540192505081905550816002600083815260200190815260200160002060006101000a81548173ffffffffffffffffffffffffffffffffffffffff021916908373ffffffffffffffffffffffffffffffffffffffff160217905550808273ffffffffffffffffffffffffffffffffffffffff16600073ffffffffffffffffffffffffffffffffffffffff167fddf252ad1be2c89b69c2b068fc378daa952ba7f163c4a11628f55a4df523b3ef60405160405180910390a4612f636000838360016129ec565b5050565b6040518060e0016040528060008152602001600073ffffffffffffffffffffffffffffffffffffffff16815260200160608152602001606081526020016060815260200160608152602001606081525090565b600073ffffffffffffffffffffffffffffffffffffffff82169050919050565b6000612fe582612fba565b9050919050565b612ff581612fda565b82525050565b600082825260208201905092915050565b7f4875727261792c20796f75206861766520676f74206120646f6e6174696f6e2060008201527f3a29200000000000000000000000000000000000000000000000000000000000602082015250565b6000613068602383612ffb565b91506130738261300c565b604082019050919050565b60006040820190506130936000830184612fec565b81810360208301526130a48161305b565b905092915050565b6000604051905090565b600080fd5b600080fd5b6000819050919050565b6130d3816130c0565b81146130de57600080fd5b50565b6000813590506130f0816130ca565b92915050565b60006020828403121561310c5761310b6130b6565b5b600061311a848285016130e1565b91505092915050565b60007fffffffff0000000000000000000000000000000000000000000000000000000082169050919050565b61315881613123565b811461316357600080fd5b50565b6000813590506131758161314f565b92915050565b600060208284031215613191576131906130b6565b5b600061319f84828501613166565b91505092915050565b60008115159050919050565b6131bd816131a8565b82525050565b60006020820190506131d860008301846131b4565b92915050565b600081519050919050565b60005b838110156132075780820151818401526020810190506131ec565b60008484015250505050565b6000601f19601f8301169050919050565b600061322f826131de565b6132398185612ffb565b93506132498185602086016131e9565b61325281613213565b840191505092915050565b600060208201905081810360008301526132778184613224565b905092915050565b60006020820190506132946000830184612fec565b92915050565b6132a381612fda565b81146132ae57600080fd5b50565b6000813590506132c08161329a565b92915050565b600080604083850312156132dd576132dc6130b6565b5b60006132eb858286016132b1565b92505060206132fc858286016130e1565b9150509250929050565b61330f816130c0565b82525050565b600060208201905061332a6000830184613306565b92915050565b600080fd5b600080fd5b7f4e487b7100000000000000000000000000000000000000000000000000000000600052604160045260246000fd5b61337282613213565b810181811067ffffffffffffffff821117156133915761339061333a565b5b80604052505050565b60006133a46130ac565b90506133b08282613369565b919050565b600067ffffffffffffffff8211156133d0576133cf61333a565b5b6133d982613213565b9050602081019050919050565b82818337600083830152505050565b6000613408613403846133b5565b61339a565b90508281526020810184848401111561342457613423613335565b5b61342f8482856133e6565b509392505050565b600082601f83011261344c5761344b613330565b5b813561345c8482602086016133f5565b91505092915050565b600080600080600060a08688031215613481576134806130b6565b5b600086013567ffffffffffffffff81111561349f5761349e6130bb565b5b6134ab88828901613437565b955050602086013567ffffffffffffffff8111156134cc576134cb6130bb565b5b6134d888828901613437565b945050604086013567ffffffffffffffff8111156134f9576134f86130bb565b5b61350588828901613437565b935050606086013567ffffffffffffffff811115613526576135256130bb565b5b61353288828901613437565b925050608086013567ffffffffffffffff811115613553576135526130bb565b5b61355f88828901613437565b9150509295509295909350565b600080600060608486031215613585576135846130b6565b5b6000613593868287016132b1565b93505060206135a4868287016132b1565b92505060406135b5868287016130e1565b9150509250925092565b6135c8816130c0565b82525050565b6135d781612fda565b82525050565b600082825260208201905092915050565b60006135f9826131de565b61360381856135dd565b93506136138185602086016131e9565b61361c81613213565b840191505092915050565b600060e08301600083015161363f60008601826135bf565b50602083015161365260208601826135ce565b506040830151848203604086015261366a82826135ee565b9150506060830151848203606086015261368482826135ee565b9150506080830151848203608086015261369e82826135ee565b91505060a083015184820360a08601526136b882826135ee565b91505060c083015184820360c08601526136d282826135ee565b9150508091505092915050565b600060208201905081810360008301526136f98184613627565b905092915050565b600060208284031215613717576137166130b6565b5b6000613725848285016132b1565b91505092915050565b600060e082019050613743600083018a613306565b6137506020830189612fec565b81810360408301526137628188613224565b905081810360608301526137768187613224565b9050818103608083015261378a8186613224565b905081810360a083015261379e8185613224565b905081810360c08301526137b28184613224565b905098975050505050505050565b6137c9816131a8565b81146137d457600080fd5b50565b6000813590506137e6816137c0565b92915050565b60008060408385031215613803576138026130b6565b5b6000613811858286016132b1565b9250506020613822858286016137d7565b9150509250929050565b600067ffffffffffffffff8211156138475761384661333a565b5b61385082613213565b9050602081019050919050565b600061387061386b8461382c565b61339a565b90508281526020810184848401111561388c5761388b613335565b5b6138978482856133e6565b509392505050565b600082601f8301126138b4576138b3613330565b5b81356138c484826020860161385d565b91505092915050565b600080600080608085870312156138e7576138e66130b6565b5b60006138f5878288016132b1565b9450506020613906878288016132b1565b9350506040613917878288016130e1565b925050606085013567ffffffffffffffff811115613938576139376130bb565b5b6139448782880161389f565b91505092959194509250565b60008060408385031215613967576139666130b6565b5b6000613975858286016132b1565b9250506020613986858286016132b1565b9150509250929050565b7f596f7520617265206e6f7420746865206f776e65722e00000000000000000000600082015250565b60006139c6601683612ffb565b91506139d182613990565b602082019050919050565b600060208201905081810360008301526139f5816139b9565b9050919050565b7f4e487b7100000000000000000000000000000000000000000000000000000000600052602260045260246000fd5b60006002820490506001821680613a4357607f821691505b602082108103613a5657613a556139fc565b5b50919050565b7f4552433732313a20617070726f76616c20746f2063757272656e74206f776e6560008201527f7200000000000000000000000000000000000000000000000000000000000000602082015250565b6000613ab8602183612ffb565b9150613ac382613a5c565b604082019050919050565b60006020820190508181036000830152613ae781613aab565b9050919050565b7f4552433732313a20617070726f76652063616c6c6572206973206e6f7420746f60008201527f6b656e206f776e6572206f7220617070726f76656420666f7220616c6c000000602082015250565b6000613b4a603d83612ffb565b9150613b5582613aee565b604082019050919050565b60006020820190508181036000830152613b7981613b3d565b9050919050565b7f4e487b7100000000000000000000000000000000000000000000000000000000600052601160045260246000fd5b6000613bba826130c0565b9150613bc5836130c0565b9250828201905080821115613bdd57613bdc613b80565b5b92915050565b7f57726f6e6720616d6f756e74204f52206d696e7473206c696d6974206578636560008201527f6564656421000000000000000000000000000000000000000000000000000000602082015250565b6000613c3f602583612ffb565b9150613c4a82613be3565b604082019050919050565b6000604082019050613c6a6000830184612fec565b8181036020830152613c7b81613c32565b905092915050565b7f6d696e7473207065722077616c6c657420657863656564656400000000000000600082015250565b6000613cb9601983612ffb565b9150613cc482613c83565b602082019050919050565b60006020820190508181036000830152613ce881613cac565b9050919050565b7f57726f6e6720616d6f756e742073656e742c20706c656173652073656e64206560008201527f78616374204e465420707269636520696e206574686572000000000000000000602082015250565b6000613d4b603783612ffb565b9150613d5682613cef565b604082019050919050565b60006020820190508181036000830152613d7a81613d3e565b9050919050565b7f4552433732313a2063616c6c6572206973206e6f7420746f6b656e206f776e6560008201527f72206f7220617070726f76656400000000000000000000000000000000000000602082015250565b6000613ddd602d83612ffb565b9150613de882613d81565b604082019050919050565b60006020820190508181036000830152613e0c81613dd0565b9050919050565b7f4e616d65724b6f726563746c79204e46542062616e6b20656d7074696564202660008201527f206574686572732073656e7420746f20746865206f776e657200000000000000602082015250565b6000613e6f603983612ffb565b9150613e7a82613e13565b604082019050919050565b6000604082019050613e9a6000830184612fec565b8181036020830152613eab81613e62565b905092915050565b7f4552433732313a20696e76616c696420746f6b656e2049440000000000000000600082015250565b6000613ee9601883612ffb565b9150613ef482613eb3565b602082019050919050565b60006020820190508181036000830152613f1881613edc565b9050919050565b7f4552433732313a2061646472657373207a65726f206973206e6f74206120766160008201527f6c6964206f776e65720000000000000000000000000000000000000000000000602082015250565b6000613f7b602983612ffb565b9150613f8682613f1f565b604082019050919050565b60006020820190508181036000830152613faa81613f6e565b9050919050565b7f496e73756666696369656e7420746f6b656e7300000000000000000000000000600082015250565b6000613fe7601383612ffb565b9150613ff282613fb1565b602082019050919050565b6000602082019050818103600083015261401681613fda565b9050919050565b7f526563697069656e742063616e277420657863656564206d6178696d756d206160008201527f6c6c6f776564206c696d69740000000000000000000000000000000000000000602082015250565b6000614079602c83612ffb565b91506140848261401d565b604082019050919050565b600060208201905081810360008301526140a88161406c565b9050919050565b60006140ba826130c0565b91506140c5836130c0565b92508282039050818111156140dd576140dc613b80565b5b92915050565b60006040820190506140f86000830185612fec565b6141056020830184612fec565b9392505050565b600081905092915050565b6000614122826131de565b61412c818561410c565b935061413c8185602086016131e9565b80840191505092915050565b60006141548285614117565b91506141608284614117565b91508190509392505050565b60008190508160005260206000209050919050565b60006020601f8301049050919050565b600082821b905092915050565b6000600883026141ce7fffffffffffffffffffffffffffffffffffffffffffffffffffffffffffffffff82614191565b6141d88683614191565b95508019841693508086168417925050509392505050565b6000819050919050565b600061421561421061420b846130c0565b6141f0565b6130c0565b9050919050565b6000819050919050565b61422f836141fa565b61424361423b8261421c565b84845461419e565b825550505050565b600090565b61425861424b565b614263818484614226565b505050565b5b818110156142875761427c600082614250565b600181019050614269565b5050565b601f8211156142cc5761429d8161416c565b6142a684614181565b810160208510156142b5578190505b6142c96142c185614181565b830182614268565b50505b505050565b600082821c905092915050565b60006142ef600019846008026142d1565b1980831691505092915050565b600061430883836142de565b9150826002028217905092915050565b614321826131de565b67ffffffffffffffff81111561433a5761433961333a565b5b6143448254613a2b565b61434f82828561428b565b600060209050601f8311600181146143825760008415614370578287015190505b61437a85826142fc565b8655506143e2565b601f1984166143908661416c565b60005b828110156143b857848901518255600182019150602085019450602081019050614393565b868310156143d557848901516143d1601f8916826142de565b8355505b6001600288020188555050505b505050505050565b7f4552433732313a207472616e736665722066726f6d20696e636f72726563742060008201527f6f776e6572000000000000000000000000000000000000000000000000000000602082015250565b6000614446602583612ffb565b9150614451826143ea565b604082019050919050565b6000602082019050818103600083015261447581614439565b9050919050565b7f4552433732313a207472616e7366657220746f20746865207a65726f2061646460008201527f7265737300000000000000000000000000000000000000000000000000000000602082015250565b60006144d8602483612ffb565b91506144e38261447c565b604082019050919050565b60006020820190508181036000830152614507816144cb565b9050919050565b7f4552433732313a20617070726f766520746f2063616c6c657200000000000000600082015250565b6000614544601983612ffb565b915061454f8261450e565b602082019050919050565b6000602082019050818103600083015261457381614537565b9050919050565b7f4552433732313a207472616e7366657220746f206e6f6e20455243373231526560008201527f63656976657220696d706c656d656e7465720000000000000000000000000000602082015250565b60006145d6603283612ffb565b91506145e18261457a565b604082019050919050565b60006020820190508181036000830152614605816145c9565b9050919050565b7f4e487b7100000000000000000000000000000000000000000000000000000000600052601260045260246000fd5b600081519050919050565b600082825260208201905092915050565b60006146628261463b565b61466c8185614646565b935061467c8185602086016131e9565b61468581613213565b840191505092915050565b60006080820190506146a56000830187612fec565b6146b26020830186612fec565b6146bf6040830185613306565b81810360608301526146d18184614657565b905095945050505050565b6000815190506146eb8161314f565b92915050565b600060208284031215614707576147066130b6565b5b6000614715848285016146dc565b91505092915050565b7f4552433732313a206d696e7420746f20746865207a65726f2061646472657373600082015250565b6000614754602083612ffb565b915061475f8261471e565b602082019050919050565b6000602082019050818103600083015261478381614747565b9050919050565b7f4552433732313a20746f6b656e20616c7265616479206d696e74656400000000600082015250565b60006147c0601c83612ffb565b91506147cb8261478a565b602082019050919050565b600060208201905081810360008301526147ef816147b3565b905091905056fea2646970667358221220ce571ff3fbfdabf02ac0d0c39acdceaf5c94e2b56a264496914c94029777d2ab64736f6c63430008120033",
			"opcodes": "PUSH1 0xA0 PUSH1 0x40 MSTORE PUSH8 0xDE0B6B3A7640000 PUSH1 0x7 SSTORE PUSH5 0xE8D4A50FFF PUSH1 0x8 SSTORE PUSH1 0xA PUSH1 0x9 SSTORE CALLVALUE DUP1 ISZERO PUSH3 0x2B JUMPI PUSH1 0x0 DUP1 REVERT JUMPDEST POP PUSH1 0x40 MLOAD DUP1 PUSH1 0x40 ADD PUSH1 0x40 MSTORE DUP1 PUSH1 0x12 DUP2 MSTORE PUSH1 0x20 ADD PUSH32 0x4E616D65724B6F726563746C79546F6B656E0000000000000000000000000000 DUP2 MSTORE POP PUSH1 0x40 MLOAD DUP1 PUSH1 0x40 ADD PUSH1 0x40 MSTORE DUP1 PUSH1 0x3 DUP2 MSTORE PUSH1 0x20 ADD PUSH32 0x4D544B0000000000000000000000000000000000000000000000000000000000 DUP2 MSTORE POP DUP2 PUSH1 0x0 SWAP1 DUP2 PUSH3 0xA9 SWAP2 SWAP1 PUSH3 0x372 JUMP JUMPDEST POP DUP1 PUSH1 0x1 SWAP1 DUP2 PUSH3 0xBB SWAP2 SWAP1 PUSH3 0x372 JUMP JUMPDEST POP POP POP CALLER PUSH20 0xFFFFFFFFFFFFFFFFFFFFFFFFFFFFFFFFFFFFFFFF AND PUSH1 0x80 DUP2 PUSH20 0xFFFFFFFFFFFFFFFFFFFFFFFFFFFFFFFFFFFFFFFF AND DUP2 MSTORE POP POP PUSH3 0x459 JUMP JUMPDEST PUSH1 0x0 DUP2 MLOAD SWAP1 POP SWAP2 SWAP1 POP JUMP JUMPDEST PUSH32 0x4E487B7100000000000000000000000000000000000000000000000000000000 PUSH1 0x0 MSTORE PUSH1 0x41 PUSH1 0x4 MSTORE PUSH1 0x24 PUSH1 0x0 REVERT JUMPDEST PUSH32 0x4E487B7100000000000000000000000000000000000000000000000000000000 PUSH1 0x0 MSTORE PUSH1 0x22 PUSH1 0x4 MSTORE PUSH1 0x24 PUSH1 0x0 REVERT JUMPDEST PUSH1 0x0 PUSH1 0x2 DUP3 DIV SWAP1 POP PUSH1 0x1 DUP3 AND DUP1 PUSH3 0x17A JUMPI PUSH1 0x7F DUP3 AND SWAP2 POP JUMPDEST PUSH1 0x20 DUP3 LT DUP2 SUB PUSH3 0x190 JUMPI PUSH3 0x18F PUSH3 0x132 JUMP JUMPDEST JUMPDEST POP SWAP2 SWAP1 POP JUMP JUMPDEST PUSH1 0x0 DUP2 SWAP1 POP DUP2 PUSH1 0x0 MSTORE PUSH1 0x20 PUSH1 0x0 KECCAK256 SWAP1 POP SWAP2 SWAP1 POP JUMP JUMPDEST PUSH1 0x0 PUSH1 0x20 PUSH1 0x1F DUP4 ADD DIV SWAP1 POP SWAP2 SWAP1 POP JUMP JUMPDEST PUSH1 0x0 DUP3 DUP3 SHL SWAP1 POP SWAP3 SWAP2 POP POP JUMP JUMPDEST PUSH1 0x0 PUSH1 0x8 DUP4 MUL PUSH3 0x1FA PUSH32 0xFFFFFFFFFFFFFFFFFFFFFFFFFFFFFFFFFFFFFFFFFFFFFFFFFFFFFFFFFFFFFFFF DUP3 PUSH3 0x1BB JUMP JUMPDEST PUSH3 0x206 DUP7 DUP4 PUSH3 0x1BB JUMP JUMPDEST SWAP6 POP DUP1 NOT DUP5 AND SWAP4 POP DUP1 DUP7 AND DUP5 OR SWAP3 POP POP POP SWAP4 SWAP3 POP POP POP JUMP JUMPDEST PUSH1 0x0 DUP2 SWAP1 POP SWAP2 SWAP1 POP JUMP JUMPDEST PUSH1 0x0 DUP2 SWAP1 POP SWAP2 SWAP1 POP JUMP JUMPDEST PUSH1 0x0 PUSH3 0x253 PUSH3 0x24D PUSH3 0x247 DUP5 PUSH3 0x21E JUMP JUMPDEST PUSH3 0x228 JUMP JUMPDEST PUSH3 0x21E JUMP JUMPDEST SWAP1 POP SWAP2 SWAP1 POP JUMP JUMPDEST PUSH1 0x0 DUP2 SWAP1 POP SWAP2 SWAP1 POP JUMP JUMPDEST PUSH3 0x26F DUP4 PUSH3 0x232 JUMP JUMPDEST PUSH3 0x287 PUSH3 0x27E DUP3 PUSH3 0x25A JUMP JUMPDEST DUP5 DUP5 SLOAD PUSH3 0x1C8 JUMP JUMPDEST DUP3 SSTORE POP POP POP POP JUMP JUMPDEST PUSH1 0x0 SWAP1 JUMP JUMPDEST PUSH3 0x29E PUSH3 0x28F JUMP JUMPDEST PUSH3 0x2AB DUP2 DUP5 DUP5 PUSH3 0x264 JUMP JUMPDEST POP POP POP JUMP JUMPDEST JUMPDEST DUP2 DUP2 LT ISZERO PUSH3 0x2D3 JUMPI PUSH3 0x2C7 PUSH1 0x0 DUP3 PUSH3 0x294 JUMP JUMPDEST PUSH1 0x1 DUP2 ADD SWAP1 POP PUSH3 0x2B1 JUMP JUMPDEST POP POP JUMP JUMPDEST PUSH1 0x1F DUP3 GT ISZERO PUSH3 0x322 JUMPI PUSH3 0x2EC DUP2 PUSH3 0x196 JUMP JUMPDEST PUSH3 0x2F7 DUP5 PUSH3 0x1AB JUMP JUMPDEST DUP2 ADD PUSH1 0x20 DUP6 LT ISZERO PUSH3 0x307 JUMPI DUP2 SWAP1 POP JUMPDEST PUSH3 0x31F PUSH3 0x316 DUP6 PUSH3 0x1AB JUMP JUMPDEST DUP4 ADD DUP3 PUSH3 0x2B0 JUMP JUMPDEST POP POP JUMPDEST POP POP POP JUMP JUMPDEST PUSH1 0x0 DUP3 DUP3 SHR SWAP1 POP SWAP3 SWAP2 POP POP JUMP JUMPDEST PUSH1 0x0 PUSH3 0x347 PUSH1 0x0 NOT DUP5 PUSH1 0x8 MUL PUSH3 0x327 JUMP JUMPDEST NOT DUP1 DUP4 AND SWAP2 POP POP SWAP3 SWAP2 POP POP JUMP JUMPDEST PUSH1 0x0 PUSH3 0x362 DUP4 DUP4 PUSH3 0x334 JUMP JUMPDEST SWAP2 POP DUP3 PUSH1 0x2 MUL DUP3 OR SWAP1 POP SWAP3 SWAP2 POP POP JUMP JUMPDEST PUSH3 0x37D DUP3 PUSH3 0xF8 JUMP JUMPDEST PUSH8 0xFFFFFFFFFFFFFFFF DUP2 GT ISZERO PUSH3 0x399 JUMPI PUSH3 0x398 PUSH3 0x103 JUMP JUMPDEST JUMPDEST PUSH3 0x3A5 DUP3 SLOAD PUSH3 0x161 JUMP JUMPDEST PUSH3 0x3B2 DUP3 DUP3 DUP6 PUSH3 0x2D7 JUMP JUMPDEST PUSH1 0x0 PUSH1 0x20 SWAP1 POP PUSH1 0x1F DUP4 GT PUSH1 0x1 DUP2 EQ PUSH3 0x3EA JUMPI PUSH1 0x0 DUP5 ISZERO PUSH3 0x3D5 JUMPI DUP3 DUP8 ADD MLOAD SWAP1 POP JUMPDEST PUSH3 0x3E1 DUP6 DUP3 PUSH3 0x354 JUMP JUMPDEST DUP7 SSTORE POP PUSH3 0x451 JUMP JUMPDEST PUSH1 0x1F NOT DUP5 AND PUSH3 0x3FA DUP7 PUSH3 0x196 JUMP JUMPDEST PUSH1 0x0 JUMPDEST DUP3 DUP2 LT ISZERO PUSH3 0x424 JUMPI DUP5 DUP10 ADD MLOAD DUP3 SSTORE PUSH1 0x1 DUP3 ADD SWAP2 POP PUSH1 0x20 DUP6 ADD SWAP5 POP PUSH1 0x20 DUP2 ADD SWAP1 POP PUSH3 0x3FD JUMP JUMPDEST DUP7 DUP4 LT ISZERO PUSH3 0x444 JUMPI DUP5 DUP10 ADD MLOAD PUSH3 0x440 PUSH1 0x1F DUP10 AND DUP3 PUSH3 0x334 JUMP JUMPDEST DUP4 SSTORE POP JUMPDEST PUSH1 0x1 PUSH1 0x2 DUP9 MUL ADD DUP9 SSTORE POP POP POP JUMPDEST POP POP POP POP POP POP JUMP JUMPDEST PUSH1 0x80 MLOAD PUSH2 0x482C PUSH3 0x498 PUSH1 0x0 CODECOPY PUSH1 0x0 DUP2 DUP2 PUSH2 0x785 ADD MSTORE DUP2 DUP2 PUSH2 0xAF0 ADD MSTORE DUP2 DUP2 PUSH2 0x1134 ADD MSTORE DUP2 DUP2 PUSH2 0x11C2 ADD MSTORE DUP2 DUP2 PUSH2 0x176F ADD MSTORE PUSH2 0x1B11 ADD MSTORE PUSH2 0x482C PUSH1 0x0 RETURN INVALID PUSH1 0x80 PUSH1 0x40 MSTORE PUSH1 0x4 CALLDATASIZE LT PUSH2 0x1C5 JUMPI PUSH1 0x0 CALLDATALOAD PUSH1 0xE0 SHR DUP1 PUSH4 0x6817C76C GT PUSH2 0xF7 JUMPI DUP1 PUSH4 0xA577D0AA GT PUSH2 0x95 JUMPI DUP1 PUSH4 0xD5ABEB01 GT PUSH2 0x64 JUMPI DUP1 PUSH4 0xD5ABEB01 EQ PUSH2 0x6B3 JUMPI DUP1 PUSH4 0xE985E9C5 EQ PUSH2 0x6DE JUMPI DUP1 PUSH4 0xF0293FD3 EQ PUSH2 0x71B JUMPI DUP1 PUSH4 0xF72A71F2 EQ PUSH2 0x758 JUMPI PUSH2 0x203 JUMP JUMPDEST DUP1 PUSH4 0xA577D0AA EQ PUSH2 0x606 JUMPI DUP1 PUSH4 0xB88D4FDE EQ PUSH2 0x622 JUMPI DUP1 PUSH4 0xC1D60083 EQ PUSH2 0x64B JUMPI DUP1 PUSH4 0xC87B56DD EQ PUSH2 0x676 JUMPI PUSH2 0x203 JUMP JUMPDEST DUP1 PUSH4 0x8102FCED GT PUSH2 0xD1 JUMPI DUP1 PUSH4 0x8102FCED EQ PUSH2 0x544 JUMPI DUP1 PUSH4 0x8DA5CB5B EQ PUSH2 0x587 JUMPI DUP1 PUSH4 0x95D89B41 EQ PUSH2 0x5B2 JUMPI DUP1 PUSH4 0xA22CB465 EQ PUSH2 0x5DD JUMPI PUSH2 0x203 JUMP JUMPDEST DUP1 PUSH4 0x6817C76C EQ PUSH2 0x4B3 JUMPI DUP1 PUSH4 0x70A08231 EQ PUSH2 0x4DE JUMPI DUP1 PUSH4 0x7DB1342C EQ PUSH2 0x51B JUMPI PUSH2 0x203 JUMP JUMPDEST DUP1 PUSH4 0x23B872DD GT PUSH2 0x164 JUMPI DUP1 PUSH4 0x42842E0E GT PUSH2 0x13E JUMPI DUP1 PUSH4 0x42842E0E EQ PUSH2 0x3F7 JUMPI DUP1 PUSH4 0x453C2310 EQ PUSH2 0x420 JUMPI DUP1 PUSH4 0x50516808 EQ PUSH2 0x44B JUMPI DUP1 PUSH4 0x6352211E EQ PUSH2 0x476 JUMPI PUSH2 0x203 JUMP JUMPDEST DUP1 PUSH4 0x23B872DD EQ PUSH2 0x37A JUMPI DUP1 PUSH4 0x29B31633 EQ PUSH2 0x3A3 JUMPI DUP1 PUSH4 0x3CCFD60B EQ PUSH2 0x3E0 JUMPI PUSH2 0x203 JUMP JUMPDEST DUP1 PUSH4 0x81812FC GT PUSH2 0x1A0 JUMPI DUP1 PUSH4 0x81812FC EQ PUSH2 0x2CD JUMPI DUP1 PUSH4 0x95EA7B3 EQ PUSH2 0x30A JUMPI DUP1 PUSH4 0x12065FE0 EQ PUSH2 0x333 JUMPI DUP1 PUSH4 0x19FA1099 EQ PUSH2 0x35E JUMPI PUSH2 0x203 JUMP JUMPDEST DUP1 PUSH3 0x728E46 EQ PUSH2 0x23C JUMPI DUP1 PUSH4 0x1FFC9A7 EQ PUSH2 0x265 JUMPI DUP1 PUSH4 0x6FDDE03 EQ PUSH2 0x2A2 JUMPI PUSH2 0x203 JUMP JUMPDEST CALLDATASIZE PUSH2 0x203 JUMPI PUSH32 0xACCB040FFF26B9A56068494BD1E9048F1124702B2A24EEBA2E1BA2055C4F3DCA CALLER PUSH1 0x40 MLOAD PUSH2 0x1F9 SWAP2 SWAP1 PUSH2 0x307E JUMP JUMPDEST PUSH1 0x40 MLOAD DUP1 SWAP2 SUB SWAP1 LOG1 STOP JUMPDEST PUSH32 0xACCB040FFF26B9A56068494BD1E9048F1124702B2A24EEBA2E1BA2055C4F3DCA CALLER PUSH1 0x40 MLOAD PUSH2 0x232 SWAP2 SWAP1 PUSH2 0x307E JUMP JUMPDEST PUSH1 0x40 MLOAD DUP1 SWAP2 SUB SWAP1 LOG1 STOP JUMPDEST CALLVALUE DUP1 ISZERO PUSH2 0x248 JUMPI PUSH1 0x0 DUP1 REVERT JUMPDEST POP PUSH2 0x263 PUSH1 0x4 DUP1 CALLDATASIZE SUB DUP2 ADD SWAP1 PUSH2 0x25E SWAP2 SWAP1 PUSH2 0x30F6 JUMP JUMPDEST PUSH2 0x783 JUMP JUMPDEST STOP JUMPDEST CALLVALUE DUP1 ISZERO PUSH2 0x271 JUMPI PUSH1 0x0 DUP1 REVERT JUMPDEST POP PUSH2 0x28C PUSH1 0x4 DUP1 CALLDATASIZE SUB DUP2 ADD SWAP1 PUSH2 0x287 SWAP2 SWAP1 PUSH2 0x317B JUMP JUMPDEST PUSH2 0x81B JUMP JUMPDEST PUSH1 0x40 MLOAD PUSH2 0x299 SWAP2 SWAP1 PUSH2 0x31C3 JUMP JUMPDEST PUSH1 0x40 MLOAD DUP1 SWAP2 SUB SWAP1 RETURN JUMPDEST CALLVALUE DUP1 ISZERO PUSH2 0x2AE JUMPI PUSH1 0x0 DUP1 REVERT JUMPDEST POP PUSH2 0x2B7 PUSH2 0x8FD JUMP JUMPDEST PUSH1 0x40 MLOAD PUSH2 0x2C4 SWAP2 SWAP1 PUSH2 0x325D JUMP JUMPDEST PUSH1 0x40 MLOAD DUP1 SWAP2 SUB SWAP1 RETURN JUMPDEST CALLVALUE DUP1 ISZERO PUSH2 0x2D9 JUMPI PUSH1 0x0 DUP1 REVERT JUMPDEST POP PUSH2 0x2F4 PUSH1 0x4 DUP1 CALLDATASIZE SUB DUP2 ADD SWAP1 PUSH2 0x2EF SWAP2 SWAP1 PUSH2 0x30F6 JUMP JUMPDEST PUSH2 0x98F JUMP JUMPDEST PUSH1 0x40 MLOAD PUSH2 0x301 SWAP2 SWAP1 PUSH2 0x327F JUMP JUMPDEST PUSH1 0x40 MLOAD DUP1 SWAP2 SUB SWAP1 RETURN JUMPDEST CALLVALUE DUP1 ISZERO PUSH2 0x316 JUMPI PUSH1 0x0 DUP1 REVERT JUMPDEST POP PUSH2 0x331 PUSH1 0x4 DUP1 CALLDATASIZE SUB DUP2 ADD SWAP1 PUSH2 0x32C SWAP2 SWAP1 PUSH2 0x32C6 JUMP JUMPDEST PUSH2 0x9D5 JUMP JUMPDEST STOP JUMPDEST CALLVALUE DUP1 ISZERO PUSH2 0x33F JUMPI PUSH1 0x0 DUP1 REVERT JUMPDEST POP PUSH2 0x348 PUSH2 0xAEC JUMP JUMPDEST PUSH1 0x40 MLOAD PUSH2 0x355 SWAP2 SWAP1 PUSH2 0x3315 JUMP JUMPDEST PUSH1 0x40 MLOAD DUP1 SWAP2 SUB SWAP1 RETURN JUMPDEST PUSH2 0x378 PUSH1 0x4 DUP1 CALLDATASIZE SUB DUP2 ADD SWAP1 PUSH2 0x373 SWAP2 SWAP1 PUSH2 0x3465 JUMP JUMPDEST PUSH2 0xB82 JUMP JUMPDEST STOP JUMPDEST CALLVALUE DUP1 ISZERO PUSH2 0x386 JUMPI PUSH1 0x0 DUP1 REVERT JUMPDEST POP PUSH2 0x3A1 PUSH1 0x4 DUP1 CALLDATASIZE SUB DUP2 ADD SWAP1 PUSH2 0x39C SWAP2 SWAP1 PUSH2 0x356C JUMP JUMPDEST PUSH2 0xD6B JUMP JUMPDEST STOP JUMPDEST CALLVALUE DUP1 ISZERO PUSH2 0x3AF JUMPI PUSH1 0x0 DUP1 REVERT JUMPDEST POP PUSH2 0x3CA PUSH1 0x4 DUP1 CALLDATASIZE SUB DUP2 ADD SWAP1 PUSH2 0x3C5 SWAP2 SWAP1 PUSH2 0x30F6 JUMP JUMPDEST PUSH2 0xDCB JUMP JUMPDEST PUSH1 0x40 MLOAD PUSH2 0x3D7 SWAP2 SWAP1 PUSH2 0x36DF JUMP JUMPDEST PUSH1 0x40 MLOAD DUP1 SWAP2 SUB SWAP1 RETURN JUMPDEST CALLVALUE DUP1 ISZERO PUSH2 0x3EC JUMPI PUSH1 0x0 DUP1 REVERT JUMPDEST POP PUSH2 0x3F5 PUSH2 0x1132 JUMP JUMPDEST STOP JUMPDEST CALLVALUE DUP1 ISZERO PUSH2 0x403 JUMPI PUSH1 0x0 DUP1 REVERT JUMPDEST POP PUSH2 0x41E PUSH1 0x4 DUP1 CALLDATASIZE SUB DUP2 ADD SWAP1 PUSH2 0x419 SWAP2 SWAP1 PUSH2 0x356C JUMP JUMPDEST PUSH2 0x1260 JUMP JUMPDEST STOP JUMPDEST CALLVALUE DUP1 ISZERO PUSH2 0x42C JUMPI PUSH1 0x0 DUP1 REVERT JUMPDEST POP PUSH2 0x435 PUSH2 0x1280 JUMP JUMPDEST PUSH1 0x40 MLOAD PUSH2 0x442 SWAP2 SWAP1 PUSH2 0x3315 JUMP JUMPDEST PUSH1 0x40 MLOAD DUP1 SWAP2 SUB SWAP1 RETURN JUMPDEST CALLVALUE DUP1 ISZERO PUSH2 0x457 JUMPI PUSH1 0x0 DUP1 REVERT JUMPDEST POP PUSH2 0x460 PUSH2 0x1286 JUMP JUMPDEST PUSH1 0x40 MLOAD PUSH2 0x46D SWAP2 SWAP1 PUSH2 0x36DF JUMP JUMPDEST PUSH1 0x40 MLOAD DUP1 SWAP2 SUB SWAP1 RETURN JUMPDEST CALLVALUE DUP1 ISZERO PUSH2 0x482 JUMPI PUSH1 0x0 DUP1 REVERT JUMPDEST POP PUSH2 0x49D PUSH1 0x4 DUP1 CALLDATASIZE SUB DUP2 ADD SWAP1 PUSH2 0x498 SWAP2 SWAP1 PUSH2 0x30F6 JUMP JUMPDEST PUSH2 0x162A JUMP JUMPDEST PUSH1 0x40 MLOAD PUSH2 0x4AA SWAP2 SWAP1 PUSH2 0x327F JUMP JUMPDEST PUSH1 0x40 MLOAD DUP1 SWAP2 SUB SWAP1 RETURN JUMPDEST CALLVALUE DUP1 ISZERO PUSH2 0x4BF JUMPI PUSH1 0x0 DUP1 REVERT JUMPDEST POP PUSH2 0x4C8 PUSH2 0x16B0 JUMP JUMPDEST PUSH1 0x40 MLOAD PUSH2 0x4D5 SWAP2 SWAP1 PUSH2 0x3315 JUMP JUMPDEST PUSH1 0x40 MLOAD DUP1 SWAP2 SUB SWAP1 RETURN JUMPDEST CALLVALUE DUP1 ISZERO PUSH2 0x4EA JUMPI PUSH1 0x0 DUP1 REVERT JUMPDEST POP PUSH2 0x505 PUSH1 0x4 DUP1 CALLDATASIZE SUB DUP2 ADD SWAP1 PUSH2 0x500 SWAP2 SWAP1 PUSH2 0x3701 JUMP JUMPDEST PUSH2 0x16B6 JUMP JUMPDEST PUSH1 0x40 MLOAD PUSH2 0x512 SWAP2 SWAP1 PUSH2 0x3315 JUMP JUMPDEST PUSH1 0x40 MLOAD DUP1 SWAP2 SUB SWAP1 RETURN JUMPDEST CALLVALUE DUP1 ISZERO PUSH2 0x527 JUMPI PUSH1 0x0 DUP1 REVERT JUMPDEST POP PUSH2 0x542 PUSH1 0x4 DUP1 CALLDATASIZE SUB DUP2 ADD SWAP1 PUSH2 0x53D SWAP2 SWAP1 PUSH2 0x30F6 JUMP JUMPDEST PUSH2 0x176D JUMP JUMPDEST STOP JUMPDEST CALLVALUE DUP1 ISZERO PUSH2 0x550 JUMPI PUSH1 0x0 DUP1 REVERT JUMPDEST POP PUSH2 0x56B PUSH1 0x4 DUP1 CALLDATASIZE SUB DUP2 ADD SWAP1 PUSH2 0x566 SWAP2 SWAP1 PUSH2 0x30F6 JUMP JUMPDEST PUSH2 0x1805 JUMP JUMPDEST PUSH1 0x40 MLOAD PUSH2 0x57E SWAP8 SWAP7 SWAP6 SWAP5 SWAP4 SWAP3 SWAP2 SWAP1 PUSH2 0x372E JUMP JUMPDEST PUSH1 0x40 MLOAD DUP1 SWAP2 SUB SWAP1 RETURN JUMPDEST CALLVALUE DUP1 ISZERO PUSH2 0x593 JUMPI PUSH1 0x0 DUP1 REVERT JUMPDEST POP PUSH2 0x59C PUSH2 0x1B0F JUMP JUMPDEST PUSH1 0x40 MLOAD PUSH2 0x5A9 SWAP2 SWAP1 PUSH2 0x327F JUMP JUMPDEST PUSH1 0x40 MLOAD DUP1 SWAP2 SUB SWAP1 RETURN JUMPDEST CALLVALUE DUP1 ISZERO PUSH2 0x5BE JUMPI PUSH1 0x0 DUP1 REVERT JUMPDEST POP PUSH2 0x5C7 PUSH2 0x1B33 JUMP JUMPDEST PUSH1 0x40 MLOAD PUSH2 0x5D4 SWAP2 SWAP1 PUSH2 0x325D JUMP JUMPDEST PUSH1 0x40 MLOAD DUP1 SWAP2 SUB SWAP1 RETURN JUMPDEST CALLVALUE DUP1 ISZERO PUSH2 0x5E9 JUMPI PUSH1 0x0 DUP1 REVERT JUMPDEST POP PUSH2 0x604 PUSH1 0x4 DUP1 CALLDATASIZE SUB DUP2 ADD SWAP1 PUSH2 0x5FF SWAP2 SWAP1 PUSH2 0x37EC JUMP JUMPDEST PUSH2 0x1BC5 JUMP JUMPDEST STOP JUMPDEST PUSH2 0x620 PUSH1 0x4 DUP1 CALLDATASIZE SUB DUP2 ADD SWAP1 PUSH2 0x61B SWAP2 SWAP1 PUSH2 0x3701 JUMP JUMPDEST PUSH2 0x1BDB JUMP JUMPDEST STOP JUMPDEST CALLVALUE DUP1 ISZERO PUSH2 0x62E JUMPI PUSH1 0x0 DUP1 REVERT JUMPDEST POP PUSH2 0x649 PUSH1 0x4 DUP1 CALLDATASIZE SUB DUP2 ADD SWAP1 PUSH2 0x644 SWAP2 SWAP1 PUSH2 0x38CD JUMP JUMPDEST PUSH2 0x1DD4 JUMP JUMPDEST STOP JUMPDEST CALLVALUE DUP1 ISZERO PUSH2 0x657 JUMPI PUSH1 0x0 DUP1 REVERT JUMPDEST POP PUSH2 0x660 PUSH2 0x1E36 JUMP JUMPDEST PUSH1 0x40 MLOAD PUSH2 0x66D SWAP2 SWAP1 PUSH2 0x3315 JUMP JUMPDEST PUSH1 0x40 MLOAD DUP1 SWAP2 SUB SWAP1 RETURN JUMPDEST CALLVALUE DUP1 ISZERO PUSH2 0x682 JUMPI PUSH1 0x0 DUP1 REVERT JUMPDEST POP PUSH2 0x69D PUSH1 0x4 DUP1 CALLDATASIZE SUB DUP2 ADD SWAP1 PUSH2 0x698 SWAP2 SWAP1 PUSH2 0x30F6 JUMP JUMPDEST PUSH2 0x1E47 JUMP JUMPDEST PUSH1 0x40 MLOAD PUSH2 0x6AA SWAP2 SWAP1 PUSH2 0x325D JUMP JUMPDEST PUSH1 0x40 MLOAD DUP1 SWAP2 SUB SWAP1 RETURN JUMPDEST CALLVALUE DUP1 ISZERO PUSH2 0x6BF JUMPI PUSH1 0x0 DUP1 REVERT JUMPDEST POP PUSH2 0x6C8 PUSH2 0x1EAF JUMP JUMPDEST PUSH1 0x40 MLOAD PUSH2 0x6D5 SWAP2 SWAP1 PUSH2 0x3315 JUMP JUMPDEST PUSH1 0x40 MLOAD DUP1 SWAP2 SUB SWAP1 RETURN JUMPDEST CALLVALUE DUP1 ISZERO PUSH2 0x6EA JUMPI PUSH1 0x0 DUP1 REVERT JUMPDEST POP PUSH2 0x705 PUSH1 0x4 DUP1 CALLDATASIZE SUB DUP2 ADD SWAP1 PUSH2 0x700 SWAP2 SWAP1 PUSH2 0x3950 JUMP JUMPDEST PUSH2 0x1EB5 JUMP JUMPDEST PUSH1 0x40 MLOAD PUSH2 0x712 SWAP2 SWAP1 PUSH2 0x31C3 JUMP JUMPDEST PUSH1 0x40 MLOAD DUP1 SWAP2 SUB SWAP1 RETURN JUMPDEST CALLVALUE DUP1 ISZERO PUSH2 0x727 JUMPI PUSH1 0x0 DUP1 REVERT JUMPDEST POP PUSH2 0x742 PUSH1 0x4 DUP1 CALLDATASIZE SUB DUP2 ADD SWAP1 PUSH2 0x73D SWAP2 SWAP1 PUSH2 0x3701 JUMP JUMPDEST PUSH2 0x1F49 JUMP JUMPDEST PUSH1 0x40 MLOAD PUSH2 0x74F SWAP2 SWAP1 PUSH2 0x3315 JUMP JUMPDEST PUSH1 0x40 MLOAD DUP1 SWAP2 SUB SWAP1 RETURN JUMPDEST CALLVALUE DUP1 ISZERO PUSH2 0x764 JUMPI PUSH1 0x0 DUP1 REVERT JUMPDEST POP PUSH2 0x76D PUSH2 0x1F61 JUMP JUMPDEST PUSH1 0x40 MLOAD PUSH2 0x77A SWAP2 SWAP1 PUSH2 0x3315 JUMP JUMPDEST PUSH1 0x40 MLOAD DUP1 SWAP2 SUB SWAP1 RETURN JUMPDEST PUSH32 0x0 PUSH20 0xFFFFFFFFFFFFFFFFFFFFFFFFFFFFFFFFFFFFFFFF AND CALLER PUSH20 0xFFFFFFFFFFFFFFFFFFFFFFFFFFFFFFFFFFFFFFFF AND EQ PUSH2 0x811 JUMPI PUSH1 0x40 MLOAD PUSH32 0x8C379A000000000000000000000000000000000000000000000000000000000 DUP2 MSTORE PUSH1 0x4 ADD PUSH2 0x808 SWAP1 PUSH2 0x39DC JUMP JUMPDEST PUSH1 0x40 MLOAD DUP1 SWAP2 SUB SWAP1 REVERT JUMPDEST DUP1 PUSH1 0x7 DUP2 SWAP1 SSTORE POP POP JUMP JUMPDEST PUSH1 0x0 PUSH32 0x80AC58CD00000000000000000000000000000000000000000000000000000000 PUSH28 0xFFFFFFFFFFFFFFFFFFFFFFFFFFFFFFFFFFFFFFFFFFFFFFFFFFFFFFFF NOT AND DUP3 PUSH28 0xFFFFFFFFFFFFFFFFFFFFFFFFFFFFFFFFFFFFFFFFFFFFFFFFFFFFFFFF NOT AND EQ DUP1 PUSH2 0x8E6 JUMPI POP PUSH32 0x5B5E139F00000000000000000000000000000000000000000000000000000000 PUSH28 0xFFFFFFFFFFFFFFFFFFFFFFFFFFFFFFFFFFFFFFFFFFFFFFFFFFFFFFFF NOT AND DUP3 PUSH28 0xFFFFFFFFFFFFFFFFFFFFFFFFFFFFFFFFFFFFFFFFFFFFFFFFFFFFFFFF NOT AND EQ JUMPDEST DUP1 PUSH2 0x8F6 JUMPI POP PUSH2 0x8F5 DUP3 PUSH2 0x1FA8 JUMP JUMPDEST JUMPDEST SWAP1 POP SWAP2 SWAP1 POP JUMP JUMPDEST PUSH1 0x60 PUSH1 0x0 DUP1 SLOAD PUSH2 0x90C SWAP1 PUSH2 0x3A2B JUMP JUMPDEST DUP1 PUSH1 0x1F ADD PUSH1 0x20 DUP1 SWAP2 DIV MUL PUSH1 0x20 ADD PUSH1 0x40 MLOAD SWAP1 DUP2 ADD PUSH1 0x40 MSTORE DUP1 SWAP3 SWAP2 SWAP1 DUP2 DUP2 MSTORE PUSH1 0x20 ADD DUP3 DUP1 SLOAD PUSH2 0x938 SWAP1 PUSH2 0x3A2B JUMP JUMPDEST DUP1 ISZERO PUSH2 0x985 JUMPI DUP1 PUSH1 0x1F LT PUSH2 0x95A JUMPI PUSH2 0x100 DUP1 DUP4 SLOAD DIV MUL DUP4 MSTORE SWAP2 PUSH1 0x20 ADD SWAP2 PUSH2 0x985 JUMP JUMPDEST DUP3 ADD SWAP2 SWAP1 PUSH1 0x0 MSTORE PUSH1 0x20 PUSH1 0x0 KECCAK256 SWAP1 JUMPDEST DUP2 SLOAD DUP2 MSTORE SWAP1 PUSH1 0x1 ADD SWAP1 PUSH1 0x20 ADD DUP1 DUP4 GT PUSH2 0x968 JUMPI DUP3 SWAP1 SUB PUSH1 0x1F AND DUP3 ADD SWAP2 JUMPDEST POP POP POP POP POP SWAP1 POP SWAP1 JUMP JUMPDEST PUSH1 0x0 PUSH2 0x99A DUP3 PUSH2 0x2012 JUMP JUMPDEST PUSH1 0x4 PUSH1 0x0 DUP4 DUP2 MSTORE PUSH1 0x20 ADD SWAP1 DUP2 MSTORE PUSH1 0x20 ADD PUSH1 0x0 KECCAK256 PUSH1 0x0 SWAP1 SLOAD SWAP1 PUSH2 0x100 EXP SWAP1 DIV PUSH20 0xFFFFFFFFFFFFFFFFFFFFFFFFFFFFFFFFFFFFFFFF AND SWAP1 POP SWAP2 SWAP1 POP JUMP JUMPDEST PUSH1 0x0 PUSH2 0x9E0 DUP3 PUSH2 0x162A JUMP JUMPDEST SWAP1 POP DUP1 PUSH20 0xFFFFFFFFFFFFFFFFFFFFFFFFFFFFFFFFFFFFFFFF AND DUP4 PUSH20 0xFFFFFFFFFFFFFFFFFFFFFFFFFFFFFFFFFFFFFFFF AND SUB PUSH2 0xA50 JUMPI PUSH1 0x40 MLOAD PUSH32 0x8C379A000000000000000000000000000000000000000000000000000000000 DUP2 MSTORE PUSH1 0x4 ADD PUSH2 0xA47 SWAP1 PUSH2 0x3ACE JUMP JUMPDEST PUSH1 0x40 MLOAD DUP1 SWAP2 SUB SWAP1 REVERT JUMPDEST DUP1 PUSH20 0xFFFFFFFFFFFFFFFFFFFFFFFFFFFFFFFFFFFFFFFF AND PUSH2 0xA6F PUSH2 0x205D JUMP JUMPDEST PUSH20 0xFFFFFFFFFFFFFFFFFFFFFFFFFFFFFFFFFFFFFFFF AND EQ DUP1 PUSH2 0xA9E JUMPI POP PUSH2 0xA9D DUP2 PUSH2 0xA98 PUSH2 0x205D JUMP JUMPDEST PUSH2 0x1EB5 JUMP JUMPDEST JUMPDEST PUSH2 0xADD JUMPI PUSH1 0x40 MLOAD PUSH32 0x8C379A000000000000000000000000000000000000000000000000000000000 DUP2 MSTORE PUSH1 0x4 ADD PUSH2 0xAD4 SWAP1 PUSH2 0x3B60 JUMP JUMPDEST PUSH1 0x40 MLOAD DUP1 SWAP2 SUB SWAP1 REVERT JUMPDEST PUSH2 0xAE7 DUP4 DUP4 PUSH2 0x2065 JUMP JUMPDEST POP POP POP JUMP JUMPDEST PUSH1 0x0 PUSH32 0x0 PUSH20 0xFFFFFFFFFFFFFFFFFFFFFFFFFFFFFFFFFFFFFFFF AND CALLER PUSH20 0xFFFFFFFFFFFFFFFFFFFFFFFFFFFFFFFFFFFFFFFF AND EQ PUSH2 0xB7C JUMPI PUSH1 0x40 MLOAD PUSH32 0x8C379A000000000000000000000000000000000000000000000000000000000 DUP2 MSTORE PUSH1 0x4 ADD PUSH2 0xB73 SWAP1 PUSH2 0x39DC JUMP JUMPDEST PUSH1 0x40 MLOAD DUP1 SWAP2 SUB SWAP1 REVERT JUMPDEST SELFBALANCE SWAP1 POP SWAP1 JUMP JUMPDEST PUSH1 0x9 SLOAD PUSH1 0x1 PUSH1 0xB PUSH1 0x0 CALLER PUSH20 0xFFFFFFFFFFFFFFFFFFFFFFFFFFFFFFFFFFFFFFFF AND PUSH20 0xFFFFFFFFFFFFFFFFFFFFFFFFFFFFFFFFFFFFFFFF AND DUP2 MSTORE PUSH1 0x20 ADD SWAP1 DUP2 MSTORE PUSH1 0x20 ADD PUSH1 0x0 KECCAK256 SLOAD PUSH2 0xBD1 SWAP2 SWAP1 PUSH2 0x3BAF JUMP JUMPDEST GT DUP1 PUSH2 0xBDF JUMPI POP CALLVALUE PUSH1 0x7 SLOAD EQ ISZERO JUMPDEST DUP1 PUSH2 0xBEC JUMPI POP PUSH1 0x0 PUSH1 0x7 SLOAD LT JUMPDEST ISZERO PUSH2 0xC29 JUMPI PUSH32 0xB3317957AD6D3D5621D30C44F797952EEB13CFA98273D387A22A663620420936 CALLER PUSH1 0x40 MLOAD PUSH2 0xC20 SWAP2 SWAP1 PUSH2 0x3C55 JUMP JUMPDEST PUSH1 0x40 MLOAD DUP1 SWAP2 SUB SWAP1 LOG1 JUMPDEST PUSH1 0x9 SLOAD PUSH1 0xB PUSH1 0x0 CALLER PUSH20 0xFFFFFFFFFFFFFFFFFFFFFFFFFFFFFFFFFFFFFFFF AND PUSH20 0xFFFFFFFFFFFFFFFFFFFFFFFFFFFFFFFFFFFFFFFF AND DUP2 MSTORE PUSH1 0x20 ADD SWAP1 DUP2 MSTORE PUSH1 0x20 ADD PUSH1 0x0 KECCAK256 SLOAD LT PUSH2 0xCAC JUMPI PUSH1 0x40 MLOAD PUSH32 0x8C379A000000000000000000000000000000000000000000000000000000000 DUP2 MSTORE PUSH1 0x4 ADD PUSH2 0xCA3 SWAP1 PUSH2 0x3CCF JUMP JUMPDEST PUSH1 0x40 MLOAD DUP1 SWAP2 SUB SWAP1 REVERT JUMPDEST CALLVALUE PUSH1 0x7 SLOAD EQ DUP1 ISZERO PUSH2 0xCC0 JUMPI POP PUSH1 0x0 PUSH1 0x7 SLOAD LT ISZERO JUMPDEST PUSH2 0xCFF JUMPI PUSH1 0x40 MLOAD PUSH32 0x8C379A000000000000000000000000000000000000000000000000000000000 DUP2 MSTORE PUSH1 0x4 ADD PUSH2 0xCF6 SWAP1 PUSH2 0x3D61 JUMP JUMPDEST PUSH1 0x40 MLOAD DUP1 SWAP2 SUB SWAP1 REVERT JUMPDEST PUSH1 0x1 PUSH1 0xB PUSH1 0x0 CALLER PUSH20 0xFFFFFFFFFFFFFFFFFFFFFFFFFFFFFFFFFFFFFFFF AND PUSH20 0xFFFFFFFFFFFFFFFFFFFFFFFFFFFFFFFFFFFFFFFF AND DUP2 MSTORE PUSH1 0x20 ADD SWAP1 DUP2 MSTORE PUSH1 0x20 ADD PUSH1 0x0 KECCAK256 PUSH1 0x0 DUP3 DUP3 SLOAD PUSH2 0xD4F SWAP2 SWAP1 PUSH2 0x3BAF JUMP JUMPDEST SWAP3 POP POP DUP2 SWAP1 SSTORE POP PUSH2 0xD64 CALLER DUP7 DUP7 DUP7 DUP7 DUP7 PUSH2 0x211E JUMP JUMPDEST POP POP POP POP POP JUMP JUMPDEST PUSH2 0xD7C PUSH2 0xD76 PUSH2 0x205D JUMP JUMPDEST DUP3 PUSH2 0x229E JUMP JUMPDEST PUSH2 0xDBB JUMPI PUSH1 0x40 MLOAD PUSH32 0x8C379A000000000000000000000000000000000000000000000000000000000 DUP2 MSTORE PUSH1 0x4 ADD PUSH2 0xDB2 SWAP1 PUSH2 0x3DF3 JUMP JUMPDEST PUSH1 0x40 MLOAD DUP1 SWAP2 SUB SWAP1 REVERT JUMPDEST PUSH2 0xDC6 DUP4 DUP4 DUP4 PUSH2 0x2333 JUMP JUMPDEST POP POP POP JUMP JUMPDEST PUSH2 0xDD3 PUSH2 0x2F67 JUMP JUMPDEST PUSH1 0xA PUSH1 0x0 DUP4 DUP2 MSTORE PUSH1 0x20 ADD SWAP1 DUP2 MSTORE PUSH1 0x20 ADD PUSH1 0x0 KECCAK256 PUSH1 0x40 MLOAD DUP1 PUSH1 0xE0 ADD PUSH1 0x40 MSTORE SWAP1 DUP2 PUSH1 0x0 DUP3 ADD SLOAD DUP2 MSTORE PUSH1 0x20 ADD PUSH1 0x1 DUP3 ADD PUSH1 0x0 SWAP1 SLOAD SWAP1 PUSH2 0x100 EXP SWAP1 DIV PUSH20 0xFFFFFFFFFFFFFFFFFFFFFFFFFFFFFFFFFFFFFFFF AND PUSH20 0xFFFFFFFFFFFFFFFFFFFFFFFFFFFFFFFFFFFFFFFF AND PUSH20 0xFFFFFFFFFFFFFFFFFFFFFFFFFFFFFFFFFFFFFFFF AND DUP2 MSTORE PUSH1 0x20 ADD PUSH1 0x2 DUP3 ADD DUP1 SLOAD PUSH2 0xE61 SWAP1 PUSH2 0x3A2B JUMP JUMPDEST DUP1 PUSH1 0x1F ADD PUSH1 0x20 DUP1 SWAP2 DIV MUL PUSH1 0x20 ADD PUSH1 0x40 MLOAD SWAP1 DUP2 ADD PUSH1 0x40 MSTORE DUP1 SWAP3 SWAP2 SWAP1 DUP2 DUP2 MSTORE PUSH1 0x20 ADD DUP3 DUP1 SLOAD PUSH2 0xE8D SWAP1 PUSH2 0x3A2B JUMP JUMPDEST DUP1 ISZERO PUSH2 0xEDA JUMPI DUP1 PUSH1 0x1F LT PUSH2 0xEAF JUMPI PUSH2 0x100 DUP1 DUP4 SLOAD DIV MUL DUP4 MSTORE SWAP2 PUSH1 0x20 ADD SWAP2 PUSH2 0xEDA JUMP JUMPDEST DUP3 ADD SWAP2 SWAP1 PUSH1 0x0 MSTORE PUSH1 0x20 PUSH1 0x0 KECCAK256 SWAP1 JUMPDEST DUP2 SLOAD DUP2 MSTORE SWAP1 PUSH1 0x1 ADD SWAP1 PUSH1 0x20 ADD DUP1 DUP4 GT PUSH2 0xEBD JUMPI DUP3 SWAP1 SUB PUSH1 0x1F AND DUP3 ADD SWAP2 JUMPDEST POP POP POP POP POP DUP2 MSTORE PUSH1 0x20 ADD PUSH1 0x3 DUP3 ADD DUP1 SLOAD PUSH2 0xEF3 SWAP1 PUSH2 0x3A2B JUMP JUMPDEST DUP1 PUSH1 0x1F ADD PUSH1 0x20 DUP1 SWAP2 DIV MUL PUSH1 0x20 ADD PUSH1 0x40 MLOAD SWAP1 DUP2 ADD PUSH1 0x40 MSTORE DUP1 SWAP3 SWAP2 SWAP1 DUP2 DUP2 MSTORE PUSH1 0x20 ADD DUP3 DUP1 SLOAD PUSH2 0xF1F SWAP1 PUSH2 0x3A2B JUMP JUMPDEST DUP1 ISZERO PUSH2 0xF6C JUMPI DUP1 PUSH1 0x1F LT PUSH2 0xF41 JUMPI PUSH2 0x100 DUP1 DUP4 SLOAD DIV MUL DUP4 MSTORE SWAP2 PUSH1 0x20 ADD SWAP2 PUSH2 0xF6C JUMP JUMPDEST DUP3 ADD SWAP2 SWAP1 PUSH1 0x0 MSTORE PUSH1 0x20 PUSH1 0x0 KECCAK256 SWAP1 JUMPDEST DUP2 SLOAD DUP2 MSTORE SWAP1 PUSH1 0x1 ADD SWAP1 PUSH1 0x20 ADD DUP1 DUP4 GT PUSH2 0xF4F JUMPI DUP3 SWAP1 SUB PUSH1 0x1F AND DUP3 ADD SWAP2 JUMPDEST POP POP POP POP POP DUP2 MSTORE PUSH1 0x20 ADD PUSH1 0x4 DUP3 ADD DUP1 SLOAD PUSH2 0xF85 SWAP1 PUSH2 0x3A2B JUMP JUMPDEST DUP1 PUSH1 0x1F ADD PUSH1 0x20 DUP1 SWAP2 DIV MUL PUSH1 0x20 ADD PUSH1 0x40 MLOAD SWAP1 DUP2 ADD PUSH1 0x40 MSTORE DUP1 SWAP3 SWAP2 SWAP1 DUP2 DUP2 MSTORE PUSH1 0x20 ADD DUP3 DUP1 SLOAD PUSH2 0xFB1 SWAP1 PUSH2 0x3A2B JUMP JUMPDEST DUP1 ISZERO PUSH2 0xFFE JUMPI DUP1 PUSH1 0x1F LT PUSH2 0xFD3 JUMPI PUSH2 0x100 DUP1 DUP4 SLOAD DIV MUL DUP4 MSTORE SWAP2 PUSH1 0x20 ADD SWAP2 PUSH2 0xFFE JUMP JUMPDEST DUP3 ADD SWAP2 SWAP1 PUSH1 0x0 MSTORE PUSH1 0x20 PUSH1 0x0 KECCAK256 SWAP1 JUMPDEST DUP2 SLOAD DUP2 MSTORE SWAP1 PUSH1 0x1 ADD SWAP1 PUSH1 0x20 ADD DUP1 DUP4 GT PUSH2 0xFE1 JUMPI DUP3 SWAP1 SUB PUSH1 0x1F AND DUP3 ADD SWAP2 JUMPDEST POP POP POP POP POP DUP2 MSTORE PUSH1 0x20 ADD PUSH1 0x5 DUP3 ADD DUP1 SLOAD PUSH2 0x1017 SWAP1 PUSH2 0x3A2B JUMP JUMPDEST DUP1 PUSH1 0x1F ADD PUSH1 0x20 DUP1 SWAP2 DIV MUL PUSH1 0x20 ADD PUSH1 0x40 MLOAD SWAP1 DUP2 ADD PUSH1 0x40 MSTORE DUP1 SWAP3 SWAP2 SWAP1 DUP2 DUP2 MSTORE PUSH1 0x20 ADD DUP3 DUP1 SLOAD PUSH2 0x1043 SWAP1 PUSH2 0x3A2B JUMP JUMPDEST DUP1 ISZERO PUSH2 0x1090 JUMPI DUP1 PUSH1 0x1F LT PUSH2 0x1065 JUMPI PUSH2 0x100 DUP1 DUP4 SLOAD DIV MUL DUP4 MSTORE SWAP2 PUSH1 0x20 ADD SWAP2 PUSH2 0x1090 JUMP JUMPDEST DUP3 ADD SWAP2 SWAP1 PUSH1 0x0 MSTORE PUSH1 0x20 PUSH1 0x0 KECCAK256 SWAP1 JUMPDEST DUP2 SLOAD DUP2 MSTORE SWAP1 PUSH1 0x1 ADD SWAP1 PUSH1 0x20 ADD DUP1 DUP4 GT PUSH2 0x1073 JUMPI DUP3 SWAP1 SUB PUSH1 0x1F AND DUP3 ADD SWAP2 JUMPDEST POP POP POP POP POP DUP2 MSTORE PUSH1 0x20 ADD PUSH1 0x6 DUP3 ADD DUP1 SLOAD PUSH2 0x10A9 SWAP1 PUSH2 0x3A2B JUMP JUMPDEST DUP1 PUSH1 0x1F ADD PUSH1 0x20 DUP1 SWAP2 DIV MUL PUSH1 0x20 ADD PUSH1 0x40 MLOAD SWAP1 DUP2 ADD PUSH1 0x40 MSTORE DUP1 SWAP3 SWAP2 SWAP1 DUP2 DUP2 MSTORE PUSH1 0x20 ADD DUP3 DUP1 SLOAD PUSH2 0x10D5 SWAP1 PUSH2 0x3A2B JUMP JUMPDEST DUP1 ISZERO PUSH2 0x1122 JUMPI DUP1 PUSH1 0x1F LT PUSH2 0x10F7 JUMPI PUSH2 0x100 DUP1 DUP4 SLOAD DIV MUL DUP4 MSTORE SWAP2 PUSH1 0x20 ADD SWAP2 PUSH2 0x1122 JUMP JUMPDEST DUP3 ADD SWAP2 SWAP1 PUSH1 0x0 MSTORE PUSH1 0x20 PUSH1 0x0 KECCAK256 SWAP1 JUMPDEST DUP2 SLOAD DUP2 MSTORE SWAP1 PUSH1 0x1 ADD SWAP1 PUSH1 0x20 ADD DUP1 DUP4 GT PUSH2 0x1105 JUMPI DUP3 SWAP1 SUB PUSH1 0x1F AND DUP3 ADD SWAP2 JUMPDEST POP POP POP POP POP DUP2 MSTORE POP POP SWAP1 POP SWAP2 SWAP1 POP JUMP JUMPDEST PUSH32 0x0 PUSH20 0xFFFFFFFFFFFFFFFFFFFFFFFFFFFFFFFFFFFFFFFF AND CALLER PUSH20 0xFFFFFFFFFFFFFFFFFFFFFFFFFFFFFFFFFFFFFFFF AND EQ PUSH2 0x11C0 JUMPI PUSH1 0x40 MLOAD PUSH32 0x8C379A000000000000000000000000000000000000000000000000000000000 DUP2 MSTORE PUSH1 0x4 ADD PUSH2 0x11B7 SWAP1 PUSH2 0x39DC JUMP JUMPDEST PUSH1 0x40 MLOAD DUP1 SWAP2 SUB SWAP1 REVERT JUMPDEST PUSH32 0x0 PUSH20 0xFFFFFFFFFFFFFFFFFFFFFFFFFFFFFFFFFFFFFFFF AND PUSH2 0x8FC SELFBALANCE SWAP1 DUP2 ISZERO MUL SWAP1 PUSH1 0x40 MLOAD PUSH1 0x0 PUSH1 0x40 MLOAD DUP1 DUP4 SUB DUP2 DUP6 DUP9 DUP9 CALL SWAP4 POP POP POP POP ISZERO DUP1 ISZERO PUSH2 0x1226 JUMPI RETURNDATASIZE PUSH1 0x0 DUP1 RETURNDATACOPY RETURNDATASIZE PUSH1 0x0 REVERT JUMPDEST POP PUSH32 0xB1498CAEFF53DEDFD60B0350441A317B7DBCAF269F950C19AE1D1E3A30A8AA7C CALLER PUSH1 0x40 MLOAD PUSH2 0x1256 SWAP2 SWAP1 PUSH2 0x3E85 JUMP JUMPDEST PUSH1 0x40 MLOAD DUP1 SWAP2 SUB SWAP1 LOG1 JUMP JUMPDEST PUSH2 0x127B DUP4 DUP4 DUP4 PUSH1 0x40 MLOAD DUP1 PUSH1 0x20 ADD PUSH1 0x40 MSTORE DUP1 PUSH1 0x0 DUP2 MSTORE POP PUSH2 0x1DD4 JUMP JUMPDEST POP POP POP JUMP JUMPDEST PUSH1 0x9 SLOAD DUP2 JUMP JUMPDEST PUSH2 0x128E PUSH2 0x2F67 JUMP JUMPDEST PUSH1 0xA PUSH1 0x0 PUSH1 0xB PUSH1 0x0 CALLER PUSH20 0xFFFFFFFFFFFFFFFFFFFFFFFFFFFFFFFFFFFFFFFF AND PUSH20 0xFFFFFFFFFFFFFFFFFFFFFFFFFFFFFFFFFFFFFFFF AND DUP2 MSTORE PUSH1 0x20 ADD SWAP1 DUP2 MSTORE PUSH1 0x20 ADD PUSH1 0x0 KECCAK256 SLOAD DUP2 MSTORE PUSH1 0x20 ADD SWAP1 DUP2 MSTORE PUSH1 0x20 ADD PUSH1 0x0 KECCAK256 PUSH1 0x40 MLOAD DUP1 PUSH1 0xE0 ADD PUSH1 0x40 MSTORE SWAP1 DUP2 PUSH1 0x0 DUP3 ADD SLOAD DUP2 MSTORE PUSH1 0x20 ADD PUSH1 0x1 DUP3 ADD PUSH1 0x0 SWAP1 SLOAD SWAP1 PUSH2 0x100 EXP SWAP1 DIV PUSH20 0xFFFFFFFFFFFFFFFFFFFFFFFFFFFFFFFFFFFFFFFF AND PUSH20 0xFFFFFFFFFFFFFFFFFFFFFFFFFFFFFFFFFFFFFFFF AND PUSH20 0xFFFFFFFFFFFFFFFFFFFFFFFFFFFFFFFFFFFFFFFF AND DUP2 MSTORE PUSH1 0x20 ADD PUSH1 0x2 DUP3 ADD DUP1 SLOAD PUSH2 0x135B SWAP1 PUSH2 0x3A2B JUMP JUMPDEST DUP1 PUSH1 0x1F ADD PUSH1 0x20 DUP1 SWAP2 DIV MUL PUSH1 0x20 ADD PUSH1 0x40 MLOAD SWAP1 DUP2 ADD PUSH1 0x40 MSTORE DUP1 SWAP3 SWAP2 SWAP1 DUP2 DUP2 MSTORE PUSH1 0x20 ADD DUP3 DUP1 SLOAD PUSH2 0x1387 SWAP1 PUSH2 0x3A2B JUMP JUMPDEST DUP1 ISZERO PUSH2 0x13D4 JUMPI DUP1 PUSH1 0x1F LT PUSH2 0x13A9 JUMPI PUSH2 0x100 DUP1 DUP4 SLOAD DIV MUL DUP4 MSTORE SWAP2 PUSH1 0x20 ADD SWAP2 PUSH2 0x13D4 JUMP JUMPDEST DUP3 ADD SWAP2 SWAP1 PUSH1 0x0 MSTORE PUSH1 0x20 PUSH1 0x0 KECCAK256 SWAP1 JUMPDEST DUP2 SLOAD DUP2 MSTORE SWAP1 PUSH1 0x1 ADD SWAP1 PUSH1 0x20 ADD DUP1 DUP4 GT PUSH2 0x13B7 JUMPI DUP3 SWAP1 SUB PUSH1 0x1F AND DUP3 ADD SWAP2 JUMPDEST POP POP POP POP POP DUP2 MSTORE PUSH1 0x20 ADD PUSH1 0x3 DUP3 ADD DUP1 SLOAD PUSH2 0x13ED SWAP1 PUSH2 0x3A2B JUMP JUMPDEST DUP1 PUSH1 0x1F ADD PUSH1 0x20 DUP1 SWAP2 DIV MUL PUSH1 0x20 ADD PUSH1 0x40 MLOAD SWAP1 DUP2 ADD PUSH1 0x40 MSTORE DUP1 SWAP3 SWAP2 SWAP1 DUP2 DUP2 MSTORE PUSH1 0x20 ADD DUP3 DUP1 SLOAD PUSH2 0x1419 SWAP1 PUSH2 0x3A2B JUMP JUMPDEST DUP1 ISZERO PUSH2 0x1466 JUMPI DUP1 PUSH1 0x1F LT PUSH2 0x143B JUMPI PUSH2 0x100 DUP1 DUP4 SLOAD DIV MUL DUP4 MSTORE SWAP2 PUSH1 0x20 ADD SWAP2 PUSH2 0x1466 JUMP JUMPDEST DUP3 ADD SWAP2 SWAP1 PUSH1 0x0 MSTORE PUSH1 0x20 PUSH1 0x0 KECCAK256 SWAP1 JUMPDEST DUP2 SLOAD DUP2 MSTORE SWAP1 PUSH1 0x1 ADD SWAP1 PUSH1 0x20 ADD DUP1 DUP4 GT PUSH2 0x1449 JUMPI DUP3 SWAP1 SUB PUSH1 0x1F AND DUP3 ADD SWAP2 JUMPDEST POP POP POP POP POP DUP2 MSTORE PUSH1 0x20 ADD PUSH1 0x4 DUP3 ADD DUP1 SLOAD PUSH2 0x147F SWAP1 PUSH2 0x3A2B JUMP JUMPDEST DUP1 PUSH1 0x1F ADD PUSH1 0x20 DUP1 SWAP2 DIV MUL PUSH1 0x20 ADD PUSH1 0x40 MLOAD SWAP1 DUP2 ADD PUSH1 0x40 MSTORE DUP1 SWAP3 SWAP2 SWAP1 DUP2 DUP2 MSTORE PUSH1 0x20 ADD DUP3 DUP1 SLOAD PUSH2 0x14AB SWAP1 PUSH2 0x3A2B JUMP JUMPDEST DUP1 ISZERO PUSH2 0x14F8 JUMPI DUP1 PUSH1 0x1F LT PUSH2 0x14CD JUMPI PUSH2 0x100 DUP1 DUP4 SLOAD DIV MUL DUP4 MSTORE SWAP2 PUSH1 0x20 ADD SWAP2 PUSH2 0x14F8 JUMP JUMPDEST DUP3 ADD SWAP2 SWAP1 PUSH1 0x0 MSTORE PUSH1 0x20 PUSH1 0x0 KECCAK256 SWAP1 JUMPDEST DUP2 SLOAD DUP2 MSTORE SWAP1 PUSH1 0x1 ADD SWAP1 PUSH1 0x20 ADD DUP1 DUP4 GT PUSH2 0x14DB JUMPI DUP3 SWAP1 SUB PUSH1 0x1F AND DUP3 ADD SWAP2 JUMPDEST POP POP POP POP POP DUP2 MSTORE PUSH1 0x20 ADD PUSH1 0x5 DUP3 ADD DUP1 SLOAD PUSH2 0x1511 SWAP1 PUSH2 0x3A2B JUMP JUMPDEST DUP1 PUSH1 0x1F ADD PUSH1 0x20 DUP1 SWAP2 DIV MUL PUSH1 0x20 ADD PUSH1 0x40 MLOAD SWAP1 DUP2 ADD PUSH1 0x40 MSTORE DUP1 SWAP3 SWAP2 SWAP1 DUP2 DUP2 MSTORE PUSH1 0x20 ADD DUP3 DUP1 SLOAD PUSH2 0x153D SWAP1 PUSH2 0x3A2B JUMP JUMPDEST DUP1 ISZERO PUSH2 0x158A JUMPI DUP1 PUSH1 0x1F LT PUSH2 0x155F JUMPI PUSH2 0x100 DUP1 DUP4 SLOAD DIV MUL DUP4 MSTORE SWAP2 PUSH1 0x20 ADD SWAP2 PUSH2 0x158A JUMP JUMPDEST DUP3 ADD SWAP2 SWAP1 PUSH1 0x0 MSTORE PUSH1 0x20 PUSH1 0x0 KECCAK256 SWAP1 JUMPDEST DUP2 SLOAD DUP2 MSTORE SWAP1 PUSH1 0x1 ADD SWAP1 PUSH1 0x20 ADD DUP1 DUP4 GT PUSH2 0x156D JUMPI DUP3 SWAP1 SUB PUSH1 0x1F AND DUP3 ADD SWAP2 JUMPDEST POP POP POP POP POP DUP2 MSTORE PUSH1 0x20 ADD PUSH1 0x6 DUP3 ADD DUP1 SLOAD PUSH2 0x15A3 SWAP1 PUSH2 0x3A2B JUMP JUMPDEST DUP1 PUSH1 0x1F ADD PUSH1 0x20 DUP1 SWAP2 DIV MUL PUSH1 0x20 ADD PUSH1 0x40 MLOAD SWAP1 DUP2 ADD PUSH1 0x40 MSTORE DUP1 SWAP3 SWAP2 SWAP1 DUP2 DUP2 MSTORE PUSH1 0x20 ADD DUP3 DUP1 SLOAD PUSH2 0x15CF SWAP1 PUSH2 0x3A2B JUMP JUMPDEST DUP1 ISZERO PUSH2 0x161C JUMPI DUP1 PUSH1 0x1F LT PUSH2 0x15F1 JUMPI PUSH2 0x100 DUP1 DUP4 SLOAD DIV MUL DUP4 MSTORE SWAP2 PUSH1 0x20 ADD SWAP2 PUSH2 0x161C JUMP JUMPDEST DUP3 ADD SWAP2 SWAP1 PUSH1 0x0 MSTORE PUSH1 0x20 PUSH1 0x0 KECCAK256 SWAP1 JUMPDEST DUP2 SLOAD DUP2 MSTORE SWAP1 PUSH1 0x1 ADD SWAP1 PUSH1 0x20 ADD DUP1 DUP4 GT PUSH2 0x15FF JUMPI DUP3 SWAP1 SUB PUSH1 0x1F AND DUP3 ADD SWAP2 JUMPDEST POP POP POP POP POP DUP2 MSTORE POP POP SWAP1 POP SWAP1 JUMP JUMPDEST PUSH1 0x0 DUP1 PUSH2 0x1636 DUP4 PUSH2 0x262C JUMP JUMPDEST SWAP1 POP PUSH1 0x0 PUSH20 0xFFFFFFFFFFFFFFFFFFFFFFFFFFFFFFFFFFFFFFFF AND DUP2 PUSH20 0xFFFFFFFFFFFFFFFFFFFFFFFFFFFFFFFFFFFFFFFF AND SUB PUSH2 0x16A7 JUMPI PUSH1 0x40 MLOAD PUSH32 0x8C379A000000000000000000000000000000000000000000000000000000000 DUP2 MSTORE PUSH1 0x4 ADD PUSH2 0x169E SWAP1 PUSH2 0x3EFF JUMP JUMPDEST PUSH1 0x40 MLOAD DUP1 SWAP2 SUB SWAP1 REVERT JUMPDEST DUP1 SWAP2 POP POP SWAP2 SWAP1 POP JUMP JUMPDEST PUSH1 0x7 SLOAD DUP2 JUMP JUMPDEST PUSH1 0x0 DUP1 PUSH20 0xFFFFFFFFFFFFFFFFFFFFFFFFFFFFFFFFFFFFFFFF AND DUP3 PUSH20 0xFFFFFFFFFFFFFFFFFFFFFFFFFFFFFFFFFFFFFFFF AND SUB PUSH2 0x1726 JUMPI PUSH1 0x40 MLOAD PUSH32 0x8C379A000000000000000000000000000000000000000000000000000000000 DUP2 MSTORE PUSH1 0x4 ADD PUSH2 0x171D SWAP1 PUSH2 0x3F91 JUMP JUMPDEST PUSH1 0x40 MLOAD DUP1 SWAP2 SUB SWAP1 REVERT JUMPDEST PUSH1 0x3 PUSH1 0x0 DUP4 PUSH20 0xFFFFFFFFFFFFFFFFFFFFFFFFFFFFFFFFFFFFFFFF AND PUSH20 0xFFFFFFFFFFFFFFFFFFFFFFFFFFFFFFFFFFFFFFFF AND DUP2 MSTORE PUSH1 0x20 ADD SWAP1 DUP2 MSTORE PUSH1 0x20 ADD PUSH1 0x0 KECCAK256 SLOAD SWAP1 POP SWAP2 SWAP1 POP JUMP JUMPDEST PUSH32 0x0 PUSH20 0xFFFFFFFFFFFFFFFFFFFFFFFFFFFFFFFFFFFFFFFF AND CALLER PUSH20 0xFFFFFFFFFFFFFFFFFFFFFFFFFFFFFFFFFFFFFFFF AND EQ PUSH2 0x17FB JUMPI PUSH1 0x40 MLOAD PUSH32 0x8C379A000000000000000000000000000000000000000000000000000000000 DUP2 MSTORE PUSH1 0x4 ADD PUSH2 0x17F2 SWAP1 PUSH2 0x39DC JUMP JUMPDEST PUSH1 0x40 MLOAD DUP1 SWAP2 SUB SWAP1 REVERT JUMPDEST DUP1 PUSH1 0x9 DUP2 SWAP1 SSTORE POP POP JUMP JUMPDEST PUSH1 0xA PUSH1 0x20 MSTORE DUP1 PUSH1 0x0 MSTORE PUSH1 0x40 PUSH1 0x0 KECCAK256 PUSH1 0x0 SWAP2 POP SWAP1 POP DUP1 PUSH1 0x0 ADD SLOAD SWAP1 DUP1 PUSH1 0x1 ADD PUSH1 0x0 SWAP1 SLOAD SWAP1 PUSH2 0x100 EXP SWAP1 DIV PUSH20 0xFFFFFFFFFFFFFFFFFFFFFFFFFFFFFFFFFFFFFFFF AND SWAP1 DUP1 PUSH1 0x2 ADD DUP1 SLOAD PUSH2 0x1854 SWAP1 PUSH2 0x3A2B JUMP JUMPDEST DUP1 PUSH1 0x1F ADD PUSH1 0x20 DUP1 SWAP2 DIV MUL PUSH1 0x20 ADD PUSH1 0x40 MLOAD SWAP1 DUP2 ADD PUSH1 0x40 MSTORE DUP1 SWAP3 SWAP2 SWAP1 DUP2 DUP2 MSTORE PUSH1 0x20 ADD DUP3 DUP1 SLOAD PUSH2 0x1880 SWAP1 PUSH2 0x3A2B JUMP JUMPDEST DUP1 ISZERO PUSH2 0x18CD JUMPI DUP1 PUSH1 0x1F LT PUSH2 0x18A2 JUMPI PUSH2 0x100 DUP1 DUP4 SLOAD DIV MUL DUP4 MSTORE SWAP2 PUSH1 0x20 ADD SWAP2 PUSH2 0x18CD JUMP JUMPDEST DUP3 ADD SWAP2 SWAP1 PUSH1 0x0 MSTORE PUSH1 0x20 PUSH1 0x0 KECCAK256 SWAP1 JUMPDEST DUP2 SLOAD DUP2 MSTORE SWAP1 PUSH1 0x1 ADD SWAP1 PUSH1 0x20 ADD DUP1 DUP4 GT PUSH2 0x18B0 JUMPI DUP3 SWAP1 SUB PUSH1 0x1F AND DUP3 ADD SWAP2 JUMPDEST POP POP POP POP POP SWAP1 DUP1 PUSH1 0x3 ADD DUP1 SLOAD PUSH2 0x18E2 SWAP1 PUSH2 0x3A2B JUMP JUMPDEST DUP1 PUSH1 0x1F ADD PUSH1 0x20 DUP1 SWAP2 DIV MUL PUSH1 0x20 ADD PUSH1 0x40 MLOAD SWAP1 DUP2 ADD PUSH1 0x40 MSTORE DUP1 SWAP3 SWAP2 SWAP1 DUP2 DUP2 MSTORE PUSH1 0x20 ADD DUP3 DUP1 SLOAD PUSH2 0x190E SWAP1 PUSH2 0x3A2B JUMP JUMPDEST DUP1 ISZERO PUSH2 0x195B JUMPI DUP1 PUSH1 0x1F LT PUSH2 0x1930 JUMPI PUSH2 0x100 DUP1 DUP4 SLOAD DIV MUL DUP4 MSTORE SWAP2 PUSH1 0x20 ADD SWAP2 PUSH2 0x195B JUMP JUMPDEST DUP3 ADD SWAP2 SWAP1 PUSH1 0x0 MSTORE PUSH1 0x20 PUSH1 0x0 KECCAK256 SWAP1 JUMPDEST DUP2 SLOAD DUP2 MSTORE SWAP1 PUSH1 0x1 ADD SWAP1 PUSH1 0x20 ADD DUP1 DUP4 GT PUSH2 0x193E JUMPI DUP3 SWAP1 SUB PUSH1 0x1F AND DUP3 ADD SWAP2 JUMPDEST POP POP POP POP POP SWAP1 DUP1 PUSH1 0x4 ADD DUP1 SLOAD PUSH2 0x1970 SWAP1 PUSH2 0x3A2B JUMP JUMPDEST DUP1 PUSH1 0x1F ADD PUSH1 0x20 DUP1 SWAP2 DIV MUL PUSH1 0x20 ADD PUSH1 0x40 MLOAD SWAP1 DUP2 ADD PUSH1 0x40 MSTORE DUP1 SWAP3 SWAP2 SWAP1 DUP2 DUP2 MSTORE PUSH1 0x20 ADD DUP3 DUP1 SLOAD PUSH2 0x199C SWAP1 PUSH2 0x3A2B JUMP JUMPDEST DUP1 ISZERO PUSH2 0x19E9 JUMPI DUP1 PUSH1 0x1F LT PUSH2 0x19BE JUMPI PUSH2 0x100 DUP1 DUP4 SLOAD DIV MUL DUP4 MSTORE SWAP2 PUSH1 0x20 ADD SWAP2 PUSH2 0x19E9 JUMP JUMPDEST DUP3 ADD SWAP2 SWAP1 PUSH1 0x0 MSTORE PUSH1 0x20 PUSH1 0x0 KECCAK256 SWAP1 JUMPDEST DUP2 SLOAD DUP2 MSTORE SWAP1 PUSH1 0x1 ADD SWAP1 PUSH1 0x20 ADD DUP1 DUP4 GT PUSH2 0x19CC JUMPI DUP3 SWAP1 SUB PUSH1 0x1F AND DUP3 ADD SWAP2 JUMPDEST POP POP POP POP POP SWAP1 DUP1 PUSH1 0x5 ADD DUP1 SLOAD PUSH2 0x19FE SWAP1 PUSH2 0x3A2B JUMP JUMPDEST DUP1 PUSH1 0x1F ADD PUSH1 0x20 DUP1 SWAP2 DIV MUL PUSH1 0x20 ADD PUSH1 0x40 MLOAD SWAP1 DUP2 ADD PUSH1 0x40 MSTORE DUP1 SWAP3 SWAP2 SWAP1 DUP2 DUP2 MSTORE PUSH1 0x20 ADD DUP3 DUP1 SLOAD PUSH2 0x1A2A SWAP1 PUSH2 0x3A2B JUMP JUMPDEST DUP1 ISZERO PUSH2 0x1A77 JUMPI DUP1 PUSH1 0x1F LT PUSH2 0x1A4C JUMPI PUSH2 0x100 DUP1 DUP4 SLOAD DIV MUL DUP4 MSTORE SWAP2 PUSH1 0x20 ADD SWAP2 PUSH2 0x1A77 JUMP JUMPDEST DUP3 ADD SWAP2 SWAP1 PUSH1 0x0 MSTORE PUSH1 0x20 PUSH1 0x0 KECCAK256 SWAP1 JUMPDEST DUP2 SLOAD DUP2 MSTORE SWAP1 PUSH1 0x1 ADD SWAP1 PUSH1 0x20 ADD DUP1 DUP4 GT PUSH2 0x1A5A JUMPI DUP3 SWAP1 SUB PUSH1 0x1F AND DUP3 ADD SWAP2 JUMPDEST POP POP POP POP POP SWAP1 DUP1 PUSH1 0x6 ADD DUP1 SLOAD PUSH2 0x1A8C SWAP1 PUSH2 0x3A2B JUMP JUMPDEST DUP1 PUSH1 0x1F ADD PUSH1 0x20 DUP1 SWAP2 DIV MUL PUSH1 0x20 ADD PUSH1 0x40 MLOAD SWAP1 DUP2 ADD PUSH1 0x40 MSTORE DUP1 SWAP3 SWAP2 SWAP1 DUP2 DUP2 MSTORE PUSH1 0x20 ADD DUP3 DUP1 SLOAD PUSH2 0x1AB8 SWAP1 PUSH2 0x3A2B JUMP JUMPDEST DUP1 ISZERO PUSH2 0x1B05 JUMPI DUP1 PUSH1 0x1F LT PUSH2 0x1ADA JUMPI PUSH2 0x100 DUP1 DUP4 SLOAD DIV MUL DUP4 MSTORE SWAP2 PUSH1 0x20 ADD SWAP2 PUSH2 0x1B05 JUMP JUMPDEST DUP3 ADD SWAP2 SWAP1 PUSH1 0x0 MSTORE PUSH1 0x20 PUSH1 0x0 KECCAK256 SWAP1 JUMPDEST DUP2 SLOAD DUP2 MSTORE SWAP1 PUSH1 0x1 ADD SWAP1 PUSH1 0x20 ADD DUP1 DUP4 GT PUSH2 0x1AE8 JUMPI DUP3 SWAP1 SUB PUSH1 0x1F AND DUP3 ADD SWAP2 JUMPDEST POP POP POP POP POP SWAP1 POP DUP8 JUMP JUMPDEST PUSH32 0x0 DUP2 JUMP JUMPDEST PUSH1 0x60 PUSH1 0x1 DUP1 SLOAD PUSH2 0x1B42 SWAP1 PUSH2 0x3A2B JUMP JUMPDEST DUP1 PUSH1 0x1F ADD PUSH1 0x20 DUP1 SWAP2 DIV MUL PUSH1 0x20 ADD PUSH1 0x40 MLOAD SWAP1 DUP2 ADD PUSH1 0x40 MSTORE DUP1 SWAP3 SWAP2 SWAP1 DUP2 DUP2 MSTORE PUSH1 0x20 ADD DUP3 DUP1 SLOAD PUSH2 0x1B6E SWAP1 PUSH2 0x3A2B JUMP JUMPDEST DUP1 ISZERO PUSH2 0x1BBB JUMPI DUP1 PUSH1 0x1F LT PUSH2 0x1B90 JUMPI PUSH2 0x100 DUP1 DUP4 SLOAD DIV MUL DUP4 MSTORE SWAP2 PUSH1 0x20 ADD SWAP2 PUSH2 0x1BBB JUMP JUMPDEST DUP3 ADD SWAP2 SWAP1 PUSH1 0x0 MSTORE PUSH1 0x20 PUSH1 0x0 KECCAK256 SWAP1 JUMPDEST DUP2 SLOAD DUP2 MSTORE SWAP1 PUSH1 0x1 ADD SWAP1 PUSH1 0x20 ADD DUP1 DUP4 GT PUSH2 0x1B9E JUMPI DUP3 SWAP1 SUB PUSH1 0x1F AND DUP3 ADD SWAP2 JUMPDEST POP POP POP POP POP SWAP1 POP SWAP1 JUMP JUMPDEST PUSH2 0x1BD7 PUSH2 0x1BD0 PUSH2 0x205D JUMP JUMPDEST DUP4 DUP4 PUSH2 0x2669 JUMP JUMPDEST POP POP JUMP JUMPDEST PUSH1 0x1 PUSH1 0xB PUSH1 0x0 CALLER PUSH20 0xFFFFFFFFFFFFFFFFFFFFFFFFFFFFFFFFFFFFFFFF AND PUSH20 0xFFFFFFFFFFFFFFFFFFFFFFFFFFFFFFFFFFFFFFFF AND DUP2 MSTORE PUSH1 0x20 ADD SWAP1 DUP2 MSTORE PUSH1 0x20 ADD PUSH1 0x0 KECCAK256 SLOAD LT ISZERO PUSH2 0x1C5E JUMPI PUSH1 0x40 MLOAD PUSH32 0x8C379A000000000000000000000000000000000000000000000000000000000 DUP2 MSTORE PUSH1 0x4 ADD PUSH2 0x1C55 SWAP1 PUSH2 0x3FFD JUMP JUMPDEST PUSH1 0x40 MLOAD DUP1 SWAP2 SUB SWAP1 REVERT JUMPDEST PUSH1 0x9 SLOAD PUSH1 0xB PUSH1 0x0 DUP4 PUSH20 0xFFFFFFFFFFFFFFFFFFFFFFFFFFFFFFFFFFFFFFFF AND PUSH20 0xFFFFFFFFFFFFFFFFFFFFFFFFFFFFFFFFFFFFFFFF AND DUP2 MSTORE PUSH1 0x20 ADD SWAP1 DUP2 MSTORE PUSH1 0x20 ADD PUSH1 0x0 KECCAK256 SLOAD LT PUSH2 0x1CE1 JUMPI PUSH1 0x40 MLOAD PUSH32 0x8C379A000000000000000000000000000000000000000000000000000000000 DUP2 MSTORE PUSH1 0x4 ADD PUSH2 0x1CD8 SWAP1 PUSH2 0x408F JUMP JUMPDEST PUSH1 0x40 MLOAD DUP1 SWAP2 SUB SWAP1 REVERT JUMPDEST PUSH1 0x1 PUSH1 0xB PUSH1 0x0 CALLER PUSH20 0xFFFFFFFFFFFFFFFFFFFFFFFFFFFFFFFFFFFFFFFF AND PUSH20 0xFFFFFFFFFFFFFFFFFFFFFFFFFFFFFFFFFFFFFFFF AND DUP2 MSTORE PUSH1 0x20 ADD SWAP1 DUP2 MSTORE PUSH1 0x20 ADD PUSH1 0x0 KECCAK256 PUSH1 0x0 DUP3 DUP3 SLOAD PUSH2 0x1D31 SWAP2 SWAP1 PUSH2 0x40AF JUMP JUMPDEST SWAP3 POP POP DUP2 SWAP1 SSTORE POP PUSH1 0x1 PUSH1 0xB PUSH1 0x0 DUP4 PUSH20 0xFFFFFFFFFFFFFFFFFFFFFFFFFFFFFFFFFFFFFFFF AND PUSH20 0xFFFFFFFFFFFFFFFFFFFFFFFFFFFFFFFFFFFFFFFF AND DUP2 MSTORE PUSH1 0x20 ADD SWAP1 DUP2 MSTORE PUSH1 0x20 ADD PUSH1 0x0 KECCAK256 PUSH1 0x0 DUP3 DUP3 SLOAD PUSH2 0x1D88 SWAP2 SWAP1 PUSH2 0x3BAF JUMP JUMPDEST SWAP3 POP POP DUP2 SWAP1 SSTORE POP PUSH2 0x1D98 DUP2 PUSH2 0x27D5 JUMP JUMPDEST PUSH32 0x495BD26DB9532B661CC94FDC4F97D8BCBCD305A444B77A3B460F5F0DAF29CACA CALLER DUP3 PUSH1 0x40 MLOAD PUSH2 0x1DC9 SWAP3 SWAP2 SWAP1 PUSH2 0x40E3 JUMP JUMPDEST PUSH1 0x40 MLOAD DUP1 SWAP2 SUB SWAP1 LOG1 POP JUMP JUMPDEST PUSH2 0x1DE5 PUSH2 0x1DDF PUSH2 0x205D JUMP JUMPDEST DUP4 PUSH2 0x229E JUMP JUMPDEST PUSH2 0x1E24 JUMPI PUSH1 0x40 MLOAD PUSH32 0x8C379A000000000000000000000000000000000000000000000000000000000 DUP2 MSTORE PUSH1 0x4 ADD PUSH2 0x1E1B SWAP1 PUSH2 0x3DF3 JUMP JUMPDEST PUSH1 0x40 MLOAD DUP1 SWAP2 SUB SWAP1 REVERT JUMPDEST PUSH2 0x1E30 DUP5 DUP5 DUP5 DUP5 PUSH2 0x2822 JUMP JUMPDEST POP POP POP POP JUMP JUMPDEST PUSH1 0x0 PUSH2 0x1E42 PUSH1 0x6 PUSH2 0x287E JUMP JUMPDEST SWAP1 POP SWAP1 JUMP JUMPDEST PUSH1 0x60 PUSH2 0x1E52 DUP3 PUSH2 0x2012 JUMP JUMPDEST PUSH1 0x0 PUSH2 0x1E5C PUSH2 0x288C JUMP JUMPDEST SWAP1 POP PUSH1 0x0 DUP2 MLOAD GT PUSH2 0x1E7C JUMPI PUSH1 0x40 MLOAD DUP1 PUSH1 0x20 ADD PUSH1 0x40 MSTORE DUP1 PUSH1 0x0 DUP2 MSTORE POP PUSH2 0x1EA7 JUMP JUMPDEST DUP1 PUSH2 0x1E86 DUP5 PUSH2 0x28A3 JUMP JUMPDEST PUSH1 0x40 MLOAD PUSH1 0x20 ADD PUSH2 0x1E97 SWAP3 SWAP2 SWAP1 PUSH2 0x4148 JUMP JUMPDEST PUSH1 0x40 MLOAD PUSH1 0x20 DUP2 DUP4 SUB SUB DUP2 MSTORE SWAP1 PUSH1 0x40 MSTORE JUMPDEST SWAP2 POP POP SWAP2 SWAP1 POP JUMP JUMPDEST PUSH1 0x8 SLOAD DUP2 JUMP JUMPDEST PUSH1 0x0 PUSH1 0x5 PUSH1 0x0 DUP5 PUSH20 0xFFFFFFFFFFFFFFFFFFFFFFFFFFFFFFFFFFFFFFFF AND PUSH20 0xFFFFFFFFFFFFFFFFFFFFFFFFFFFFFFFFFFFFFFFF AND DUP2 MSTORE PUSH1 0x20 ADD SWAP1 DUP2 MSTORE PUSH1 0x20 ADD PUSH1 0x0 KECCAK256 PUSH1 0x0 DUP4 PUSH20 0xFFFFFFFFFFFFFFFFFFFFFFFFFFFFFFFFFFFFFFFF AND PUSH20 0xFFFFFFFFFFFFFFFFFFFFFFFFFFFFFFFFFFFFFFFF AND DUP2 MSTORE PUSH1 0x20 ADD SWAP1 DUP2 MSTORE PUSH1 0x20 ADD PUSH1 0x0 KECCAK256 PUSH1 0x0 SWAP1 SLOAD SWAP1 PUSH2 0x100 EXP SWAP1 DIV PUSH1 0xFF AND SWAP1 POP SWAP3 SWAP2 POP POP JUMP JUMPDEST PUSH1 0xB PUSH1 0x20 MSTORE DUP1 PUSH1 0x0 MSTORE PUSH1 0x40 PUSH1 0x0 KECCAK256 PUSH1 0x0 SWAP2 POP SWAP1 POP SLOAD DUP2 JUMP JUMPDEST PUSH1 0x0 PUSH1 0xB PUSH1 0x0 CALLER PUSH20 0xFFFFFFFFFFFFFFFFFFFFFFFFFFFFFFFFFFFFFFFF AND PUSH20 0xFFFFFFFFFFFFFFFFFFFFFFFFFFFFFFFFFFFFFFFF AND DUP2 MSTORE PUSH1 0x20 ADD SWAP1 DUP2 MSTORE PUSH1 0x20 ADD PUSH1 0x0 KECCAK256 SLOAD SWAP1 POP SWAP1 JUMP JUMPDEST PUSH1 0x0 PUSH32 0x1FFC9A700000000000000000000000000000000000000000000000000000000 PUSH28 0xFFFFFFFFFFFFFFFFFFFFFFFFFFFFFFFFFFFFFFFFFFFFFFFFFFFFFFFF NOT AND DUP3 PUSH28 0xFFFFFFFFFFFFFFFFFFFFFFFFFFFFFFFFFFFFFFFFFFFFFFFFFFFFFFFF NOT AND EQ SWAP1 POP SWAP2 SWAP1 POP JUMP JUMPDEST PUSH2 0x201B DUP2 PUSH2 0x2971 JUMP JUMPDEST PUSH2 0x205A JUMPI PUSH1 0x40 MLOAD PUSH32 0x8C379A000000000000000000000000000000000000000000000000000000000 DUP2 MSTORE PUSH1 0x4 ADD PUSH2 0x2051 SWAP1 PUSH2 0x3EFF JUMP JUMPDEST PUSH1 0x40 MLOAD DUP1 SWAP2 SUB SWAP1 REVERT JUMPDEST POP JUMP JUMPDEST PUSH1 0x0 CALLER SWAP1 POP SWAP1 JUMP JUMPDEST DUP2 PUSH1 0x4 PUSH1 0x0 DUP4 DUP2 MSTORE PUSH1 0x20 ADD SWAP1 DUP2 MSTORE PUSH1 0x20 ADD PUSH1 0x0 KECCAK256 PUSH1 0x0 PUSH2 0x100 EXP DUP2 SLOAD DUP2 PUSH20 0xFFFFFFFFFFFFFFFFFFFFFFFFFFFFFFFFFFFFFFFF MUL NOT AND SWAP1 DUP4 PUSH20 0xFFFFFFFFFFFFFFFFFFFFFFFFFFFFFFFFFFFFFFFF AND MUL OR SWAP1 SSTORE POP DUP1 DUP3 PUSH20 0xFFFFFFFFFFFFFFFFFFFFFFFFFFFFFFFFFFFFFFFF AND PUSH2 0x20D8 DUP4 PUSH2 0x162A JUMP JUMPDEST PUSH20 0xFFFFFFFFFFFFFFFFFFFFFFFFFFFFFFFFFFFFFFFF AND PUSH32 0x8C5BE1E5EBEC7D5BD14F71427D1E84F3DD0314C0F7B2291E5B200AC8C7C3B925 PUSH1 0x40 MLOAD PUSH1 0x40 MLOAD DUP1 SWAP2 SUB SWAP1 LOG4 POP POP JUMP JUMPDEST PUSH1 0x0 PUSH2 0x212A PUSH1 0x6 PUSH2 0x287E JUMP JUMPDEST SWAP1 POP PUSH2 0x2136 PUSH1 0x6 PUSH2 0x29B2 JUMP JUMPDEST PUSH1 0x40 MLOAD DUP1 PUSH1 0xE0 ADD PUSH1 0x40 MSTORE DUP1 DUP3 DUP2 MSTORE PUSH1 0x20 ADD DUP9 PUSH20 0xFFFFFFFFFFFFFFFFFFFFFFFFFFFFFFFFFFFFFFFF AND DUP2 MSTORE PUSH1 0x20 ADD DUP8 DUP2 MSTORE PUSH1 0x20 ADD DUP7 DUP2 MSTORE PUSH1 0x20 ADD DUP6 DUP2 MSTORE PUSH1 0x20 ADD DUP5 DUP2 MSTORE PUSH1 0x20 ADD DUP4 DUP2 MSTORE POP PUSH1 0xA PUSH1 0x0 DUP4 DUP2 MSTORE PUSH1 0x20 ADD SWAP1 DUP2 MSTORE PUSH1 0x20 ADD PUSH1 0x0 KECCAK256 PUSH1 0x0 DUP3 ADD MLOAD DUP2 PUSH1 0x0 ADD SSTORE PUSH1 0x20 DUP3 ADD MLOAD DUP2 PUSH1 0x1 ADD PUSH1 0x0 PUSH2 0x100 EXP DUP2 SLOAD DUP2 PUSH20 0xFFFFFFFFFFFFFFFFFFFFFFFFFFFFFFFFFFFFFFFF MUL NOT AND SWAP1 DUP4 PUSH20 0xFFFFFFFFFFFFFFFFFFFFFFFFFFFFFFFFFFFFFFFF AND MUL OR SWAP1 SSTORE POP PUSH1 0x40 DUP3 ADD MLOAD DUP2 PUSH1 0x2 ADD SWAP1 DUP2 PUSH2 0x21F8 SWAP2 SWAP1 PUSH2 0x4318 JUMP JUMPDEST POP PUSH1 0x60 DUP3 ADD MLOAD DUP2 PUSH1 0x3 ADD SWAP1 DUP2 PUSH2 0x220E SWAP2 SWAP1 PUSH2 0x4318 JUMP JUMPDEST POP PUSH1 0x80 DUP3 ADD MLOAD DUP2 PUSH1 0x4 ADD SWAP1 DUP2 PUSH2 0x2224 SWAP2 SWAP1 PUSH2 0x4318 JUMP JUMPDEST POP PUSH1 0xA0 DUP3 ADD MLOAD DUP2 PUSH1 0x5 ADD SWAP1 DUP2 PUSH2 0x223A SWAP2 SWAP1 PUSH2 0x4318 JUMP JUMPDEST POP PUSH1 0xC0 DUP3 ADD MLOAD DUP2 PUSH1 0x6 ADD SWAP1 DUP2 PUSH2 0x2250 SWAP2 SWAP1 PUSH2 0x4318 JUMP JUMPDEST POP SWAP1 POP POP PUSH2 0x225E DUP8 DUP3 PUSH2 0x29C8 JUMP JUMPDEST PUSH32 0x3E14E47796444EA73A0E596A4F029953E56DE863E1293BFB31CF3A2663FBE3AD DUP8 PUSH1 0x40 MLOAD PUSH2 0x228D SWAP2 SWAP1 PUSH2 0x327F JUMP JUMPDEST PUSH1 0x40 MLOAD DUP1 SWAP2 SUB SWAP1 LOG1 POP POP POP POP POP POP POP JUMP JUMPDEST PUSH1 0x0 DUP1 PUSH2 0x22AA DUP4 PUSH2 0x162A JUMP JUMPDEST SWAP1 POP DUP1 PUSH20 0xFFFFFFFFFFFFFFFFFFFFFFFFFFFFFFFFFFFFFFFF AND DUP5 PUSH20 0xFFFFFFFFFFFFFFFFFFFFFFFFFFFFFFFFFFFFFFFF AND EQ DUP1 PUSH2 0x22EC JUMPI POP PUSH2 0x22EB DUP2 DUP6 PUSH2 0x1EB5 JUMP JUMPDEST JUMPDEST DUP1 PUSH2 0x232A JUMPI POP DUP4 PUSH20 0xFFFFFFFFFFFFFFFFFFFFFFFFFFFFFFFFFFFFFFFF AND PUSH2 0x2312 DUP5 PUSH2 0x98F JUMP JUMPDEST PUSH20 0xFFFFFFFFFFFFFFFFFFFFFFFFFFFFFFFFFFFFFFFF AND EQ JUMPDEST SWAP2 POP POP SWAP3 SWAP2 POP POP JUMP JUMPDEST DUP3 PUSH20 0xFFFFFFFFFFFFFFFFFFFFFFFFFFFFFFFFFFFFFFFF AND PUSH2 0x2353 DUP3 PUSH2 0x162A JUMP JUMPDEST PUSH20 0xFFFFFFFFFFFFFFFFFFFFFFFFFFFFFFFFFFFFFFFF AND EQ PUSH2 0x23A9 JUMPI PUSH1 0x40 MLOAD PUSH32 0x8C379A000000000000000000000000000000000000000000000000000000000 DUP2 MSTORE PUSH1 0x4 ADD PUSH2 0x23A0 SWAP1 PUSH2 0x445C JUMP JUMPDEST PUSH1 0x40 MLOAD DUP1 SWAP2 SUB SWAP1 REVERT JUMPDEST PUSH1 0x0 PUSH20 0xFFFFFFFFFFFFFFFFFFFFFFFFFFFFFFFFFFFFFFFF AND DUP3 PUSH20 0xFFFFFFFFFFFFFFFFFFFFFFFFFFFFFFFFFFFFFFFF AND SUB PUSH2 0x2418 JUMPI PUSH1 0x40 MLOAD PUSH32 0x8C379A000000000000000000000000000000000000000000000000000000000 DUP2 MSTORE PUSH1 0x4 ADD PUSH2 0x240F SWAP1 PUSH2 0x44EE JUMP JUMPDEST PUSH1 0x40 MLOAD DUP1 SWAP2 SUB SWAP1 REVERT JUMPDEST PUSH2 0x2425 DUP4 DUP4 DUP4 PUSH1 0x1 PUSH2 0x29E6 JUMP JUMPDEST DUP3 PUSH20 0xFFFFFFFFFFFFFFFFFFFFFFFFFFFFFFFFFFFFFFFF AND PUSH2 0x2445 DUP3 PUSH2 0x162A JUMP JUMPDEST PUSH20 0xFFFFFFFFFFFFFFFFFFFFFFFFFFFFFFFFFFFFFFFF AND EQ PUSH2 0x249B JUMPI PUSH1 0x40 MLOAD PUSH32 0x8C379A000000000000000000000000000000000000000000000000000000000 DUP2 MSTORE PUSH1 0x4 ADD PUSH2 0x2492 SWAP1 PUSH2 0x445C JUMP JUMPDEST PUSH1 0x40 MLOAD DUP1 SWAP2 SUB SWAP1 REVERT JUMPDEST PUSH1 0x4 PUSH1 0x0 DUP3 DUP2 MSTORE PUSH1 0x20 ADD SWAP1 DUP2 MSTORE PUSH1 0x20 ADD PUSH1 0x0 KECCAK256 PUSH1 0x0 PUSH2 0x100 EXP DUP2 SLOAD SWAP1 PUSH20 0xFFFFFFFFFFFFFFFFFFFFFFFFFFFFFFFFFFFFFFFF MUL NOT AND SWAP1 SSTORE PUSH1 0x1 PUSH1 0x3 PUSH1 0x0 DUP6 PUSH20 0xFFFFFFFFFFFFFFFFFFFFFFFFFFFFFFFFFFFFFFFF AND PUSH20 0xFFFFFFFFFFFFFFFFFFFFFFFFFFFFFFFFFFFFFFFF AND DUP2 MSTORE PUSH1 0x20 ADD SWAP1 DUP2 MSTORE PUSH1 0x20 ADD PUSH1 0x0 KECCAK256 PUSH1 0x0 DUP3 DUP3 SLOAD SUB SWAP3 POP POP DUP2 SWAP1 SSTORE POP PUSH1 0x1 PUSH1 0x3 PUSH1 0x0 DUP5 PUSH20 0xFFFFFFFFFFFFFFFFFFFFFFFFFFFFFFFFFFFFFFFF AND PUSH20 0xFFFFFFFFFFFFFFFFFFFFFFFFFFFFFFFFFFFFFFFF AND DUP2 MSTORE PUSH1 0x20 ADD SWAP1 DUP2 MSTORE PUSH1 0x20 ADD PUSH1 0x0 KECCAK256 PUSH1 0x0 DUP3 DUP3 SLOAD ADD SWAP3 POP POP DUP2 SWAP1 SSTORE POP DUP2 PUSH1 0x2 PUSH1 0x0 DUP4 DUP2 MSTORE PUSH1 0x20 ADD SWAP1 DUP2 MSTORE PUSH1 0x20 ADD PUSH1 0x0 KECCAK256 PUSH1 0x0 PUSH2 0x100 EXP DUP2 SLOAD DUP2 PUSH20 0xFFFFFFFFFFFFFFFFFFFFFFFFFFFFFFFFFFFFFFFF MUL NOT AND SWAP1 DUP4 PUSH20 0xFFFFFFFFFFFFFFFFFFFFFFFFFFFFFFFFFFFFFFFF AND MUL OR SWAP1 SSTORE POP DUP1 DUP3 PUSH20 0xFFFFFFFFFFFFFFFFFFFFFFFFFFFFFFFFFFFFFFFF AND DUP5 PUSH20 0xFFFFFFFFFFFFFFFFFFFFFFFFFFFFFFFFFFFFFFFF AND PUSH32 0xDDF252AD1BE2C89B69C2B068FC378DAA952BA7F163C4A11628F55A4DF523B3EF PUSH1 0x40 MLOAD PUSH1 0x40 MLOAD DUP1 SWAP2 SUB SWAP1 LOG4 PUSH2 0x2627 DUP4 DUP4 DUP4 PUSH1 0x1 PUSH2 0x29EC JUMP JUMPDEST POP POP POP JUMP JUMPDEST PUSH1 0x0 PUSH1 0x2 PUSH1 0x0 DUP4 DUP2 MSTORE PUSH1 0x20 ADD SWAP1 DUP2 MSTORE PUSH1 0x20 ADD PUSH1 0x0 KECCAK256 PUSH1 0x0 SWAP1 SLOAD SWAP1 PUSH2 0x100 EXP SWAP1 DIV PUSH20 0xFFFFFFFFFFFFFFFFFFFFFFFFFFFFFFFFFFFFFFFF AND SWAP1 POP SWAP2 SWAP1 POP JUMP JUMPDEST DUP2 PUSH20 0xFFFFFFFFFFFFFFFFFFFFFFFFFFFFFFFFFFFFFFFF AND DUP4 PUSH20 0xFFFFFFFFFFFFFFFFFFFFFFFFFFFFFFFFFFFFFFFF AND SUB PUSH2 0x26D7 JUMPI PUSH1 0x40 MLOAD PUSH32 0x8C379A000000000000000000000000000000000000000000000000000000000 DUP2 MSTORE PUSH1 0x4 ADD PUSH2 0x26CE SWAP1 PUSH2 0x455A JUMP JUMPDEST PUSH1 0x40 MLOAD DUP1 SWAP2 SUB SWAP1 REVERT JUMPDEST DUP1 PUSH1 0x5 PUSH1 0x0 DUP6 PUSH20 0xFFFFFFFFFFFFFFFFFFFFFFFFFFFFFFFFFFFFFFFF AND PUSH20 0xFFFFFFFFFFFFFFFFFFFFFFFFFFFFFFFFFFFFFFFF AND DUP2 MSTORE PUSH1 0x20 ADD SWAP1 DUP2 MSTORE PUSH1 0x20 ADD PUSH1 0x0 KECCAK256 PUSH1 0x0 DUP5 PUSH20 0xFFFFFFFFFFFFFFFFFFFFFFFFFFFFFFFFFFFFFFFF AND PUSH20 0xFFFFFFFFFFFFFFFFFFFFFFFFFFFFFFFFFFFFFFFF AND DUP2 MSTORE PUSH1 0x20 ADD SWAP1 DUP2 MSTORE PUSH1 0x20 ADD PUSH1 0x0 KECCAK256 PUSH1 0x0 PUSH2 0x100 EXP DUP2 SLOAD DUP2 PUSH1 0xFF MUL NOT AND SWAP1 DUP4 ISZERO ISZERO MUL OR SWAP1 SSTORE POP DUP2 PUSH20 0xFFFFFFFFFFFFFFFFFFFFFFFFFFFFFFFFFFFFFFFF AND DUP4 PUSH20 0xFFFFFFFFFFFFFFFFFFFFFFFFFFFFFFFFFFFFFFFF AND PUSH32 0x17307EAB39AB6107E8899845AD3D59BD9653F200F220920489CA2B5937696C31 DUP4 PUSH1 0x40 MLOAD PUSH2 0x27C8 SWAP2 SWAP1 PUSH2 0x31C3 JUMP JUMPDEST PUSH1 0x40 MLOAD DUP1 SWAP2 SUB SWAP1 LOG3 POP POP POP JUMP JUMPDEST PUSH2 0x281F CALLER DUP3 PUSH1 0xB PUSH1 0x0 CALLER PUSH20 0xFFFFFFFFFFFFFFFFFFFFFFFFFFFFFFFFFFFFFFFF AND PUSH20 0xFFFFFFFFFFFFFFFFFFFFFFFFFFFFFFFFFFFFFFFF AND DUP2 MSTORE PUSH1 0x20 ADD SWAP1 DUP2 MSTORE PUSH1 0x20 ADD PUSH1 0x0 KECCAK256 SLOAD PUSH2 0x1260 JUMP JUMPDEST POP JUMP JUMPDEST PUSH2 0x282D DUP5 DUP5 DUP5 PUSH2 0x2333 JUMP JUMPDEST PUSH2 0x2839 DUP5 DUP5 DUP5 DUP5 PUSH2 0x29F2 JUMP JUMPDEST PUSH2 0x2878 JUMPI PUSH1 0x40 MLOAD PUSH32 0x8C379A000000000000000000000000000000000000000000000000000000000 DUP2 MSTORE PUSH1 0x4 ADD PUSH2 0x286F SWAP1 PUSH2 0x45EC JUMP JUMPDEST PUSH1 0x40 MLOAD DUP1 SWAP2 SUB SWAP1 REVERT JUMPDEST POP POP POP POP JUMP JUMPDEST PUSH1 0x0 DUP2 PUSH1 0x0 ADD SLOAD SWAP1 POP SWAP2 SWAP1 POP JUMP JUMPDEST PUSH1 0x60 PUSH1 0x40 MLOAD DUP1 PUSH1 0x20 ADD PUSH1 0x40 MSTORE DUP1 PUSH1 0x0 DUP2 MSTORE POP SWAP1 POP SWAP1 JUMP JUMPDEST PUSH1 0x60 PUSH1 0x0 PUSH1 0x1 PUSH2 0x28B2 DUP5 PUSH2 0x2B79 JUMP JUMPDEST ADD SWAP1 POP PUSH1 0x0 DUP2 PUSH8 0xFFFFFFFFFFFFFFFF DUP2 GT ISZERO PUSH2 0x28D1 JUMPI PUSH2 0x28D0 PUSH2 0x333A JUMP JUMPDEST JUMPDEST PUSH1 0x40 MLOAD SWAP1 DUP1 DUP3 MSTORE DUP1 PUSH1 0x1F ADD PUSH1 0x1F NOT AND PUSH1 0x20 ADD DUP3 ADD PUSH1 0x40 MSTORE DUP1 ISZERO PUSH2 0x2903 JUMPI DUP2 PUSH1 0x20 ADD PUSH1 0x1 DUP3 MUL DUP1 CALLDATASIZE DUP4 CALLDATACOPY DUP1 DUP3 ADD SWAP2 POP POP SWAP1 POP JUMPDEST POP SWAP1 POP PUSH1 0x0 DUP3 PUSH1 0x20 ADD DUP3 ADD SWAP1 POP JUMPDEST PUSH1 0x1 ISZERO PUSH2 0x2966 JUMPI DUP1 DUP1 PUSH1 0x1 SWAP1 SUB SWAP2 POP POP PUSH32 0x3031323334353637383961626364656600000000000000000000000000000000 PUSH1 0xA DUP7 MOD BYTE DUP2 MSTORE8 PUSH1 0xA DUP6 DUP2 PUSH2 0x295A JUMPI PUSH2 0x2959 PUSH2 0x460C JUMP JUMPDEST JUMPDEST DIV SWAP5 POP PUSH1 0x0 DUP6 SUB PUSH2 0x2911 JUMPI JUMPDEST DUP2 SWAP4 POP POP POP POP SWAP2 SWAP1 POP JUMP JUMPDEST PUSH1 0x0 DUP1 PUSH20 0xFFFFFFFFFFFFFFFFFFFFFFFFFFFFFFFFFFFFFFFF AND PUSH2 0x2993 DUP4 PUSH2 0x262C JUMP JUMPDEST PUSH20 0xFFFFFFFFFFFFFFFFFFFFFFFFFFFFFFFFFFFFFFFF AND EQ ISZERO SWAP1 POP SWAP2 SWAP1 POP JUMP JUMPDEST PUSH1 0x1 DUP2 PUSH1 0x0 ADD PUSH1 0x0 DUP3 DUP3 SLOAD ADD SWAP3 POP POP DUP2 SWAP1 SSTORE POP POP JUMP JUMPDEST PUSH2 0x29E2 DUP3 DUP3 PUSH1 0x40 MLOAD DUP1 PUSH1 0x20 ADD PUSH1 0x40 MSTORE DUP1 PUSH1 0x0 DUP2 MSTORE POP PUSH2 0x2CCC JUMP JUMPDEST POP POP JUMP JUMPDEST POP POP POP POP JUMP JUMPDEST POP POP POP POP JUMP JUMPDEST PUSH1 0x0 PUSH2 0x2A13 DUP5 PUSH20 0xFFFFFFFFFFFFFFFFFFFFFFFFFFFFFFFFFFFFFFFF AND PUSH2 0x2D27 JUMP JUMPDEST ISZERO PUSH2 0x2B6C JUMPI DUP4 PUSH20 0xFFFFFFFFFFFFFFFFFFFFFFFFFFFFFFFFFFFFFFFF AND PUSH4 0x150B7A02 PUSH2 0x2A3C PUSH2 0x205D JUMP JUMPDEST DUP8 DUP7 DUP7 PUSH1 0x40 MLOAD DUP6 PUSH4 0xFFFFFFFF AND PUSH1 0xE0 SHL DUP2 MSTORE PUSH1 0x4 ADD PUSH2 0x2A5E SWAP5 SWAP4 SWAP3 SWAP2 SWAP1 PUSH2 0x4690 JUMP JUMPDEST PUSH1 0x20 PUSH1 0x40 MLOAD DUP1 DUP4 SUB DUP2 PUSH1 0x0 DUP8 GAS CALL SWAP3 POP POP POP DUP1 ISZERO PUSH2 0x2A9A JUMPI POP PUSH1 0x40 MLOAD RETURNDATASIZE PUSH1 0x1F NOT PUSH1 0x1F DUP3 ADD AND DUP3 ADD DUP1 PUSH1 0x40 MSTORE POP DUP2 ADD SWAP1 PUSH2 0x2A97 SWAP2 SWAP1 PUSH2 0x46F1 JUMP JUMPDEST PUSH1 0x1 JUMPDEST PUSH2 0x2B1C JUMPI RETURNDATASIZE DUP1 PUSH1 0x0 DUP2 EQ PUSH2 0x2ACA JUMPI PUSH1 0x40 MLOAD SWAP2 POP PUSH1 0x1F NOT PUSH1 0x3F RETURNDATASIZE ADD AND DUP3 ADD PUSH1 0x40 MSTORE RETURNDATASIZE DUP3 MSTORE RETURNDATASIZE PUSH1 0x0 PUSH1 0x20 DUP5 ADD RETURNDATACOPY PUSH2 0x2ACF JUMP JUMPDEST PUSH1 0x60 SWAP2 POP JUMPDEST POP PUSH1 0x0 DUP2 MLOAD SUB PUSH2 0x2B14 JUMPI PUSH1 0x40 MLOAD PUSH32 0x8C379A000000000000000000000000000000000000000000000000000000000 DUP2 MSTORE PUSH1 0x4 ADD PUSH2 0x2B0B SWAP1 PUSH2 0x45EC JUMP JUMPDEST PUSH1 0x40 MLOAD DUP1 SWAP2 SUB SWAP1 REVERT JUMPDEST DUP1 MLOAD DUP2 PUSH1 0x20 ADD REVERT JUMPDEST PUSH4 0x150B7A02 PUSH1 0xE0 SHL PUSH28 0xFFFFFFFFFFFFFFFFFFFFFFFFFFFFFFFFFFFFFFFFFFFFFFFFFFFFFFFF NOT AND DUP2 PUSH28 0xFFFFFFFFFFFFFFFFFFFFFFFFFFFFFFFFFFFFFFFFFFFFFFFFFFFFFFFF NOT AND EQ SWAP2 POP POP PUSH2 0x2B71 JUMP JUMPDEST PUSH1 0x1 SWAP1 POP JUMPDEST SWAP5 SWAP4 POP POP POP POP JUMP JUMPDEST PUSH1 0x0 DUP1 PUSH1 0x0 SWAP1 POP PUSH27 0x184F03E93FF9F4DAA797ED6E38ED64BF6A1F010000000000000000 DUP4 LT PUSH2 0x2BD7 JUMPI PUSH27 0x184F03E93FF9F4DAA797ED6E38ED64BF6A1F010000000000000000 DUP4 DUP2 PUSH2 0x2BCD JUMPI PUSH2 0x2BCC PUSH2 0x460C JUMP JUMPDEST JUMPDEST DIV SWAP3 POP PUSH1 0x40 DUP2 ADD SWAP1 POP JUMPDEST PUSH14 0x4EE2D6D415B85ACEF8100000000 DUP4 LT PUSH2 0x2C14 JUMPI PUSH14 0x4EE2D6D415B85ACEF8100000000 DUP4 DUP2 PUSH2 0x2C0A JUMPI PUSH2 0x2C09 PUSH2 0x460C JUMP JUMPDEST JUMPDEST DIV SWAP3 POP PUSH1 0x20 DUP2 ADD SWAP1 POP JUMPDEST PUSH7 0x2386F26FC10000 DUP4 LT PUSH2 0x2C43 JUMPI PUSH7 0x2386F26FC10000 DUP4 DUP2 PUSH2 0x2C39 JUMPI PUSH2 0x2C38 PUSH2 0x460C JUMP JUMPDEST JUMPDEST DIV SWAP3 POP PUSH1 0x10 DUP2 ADD SWAP1 POP JUMPDEST PUSH4 0x5F5E100 DUP4 LT PUSH2 0x2C6C JUMPI PUSH4 0x5F5E100 DUP4 DUP2 PUSH2 0x2C62 JUMPI PUSH2 0x2C61 PUSH2 0x460C JUMP JUMPDEST JUMPDEST DIV SWAP3 POP PUSH1 0x8 DUP2 ADD SWAP1 POP JUMPDEST PUSH2 0x2710 DUP4 LT PUSH2 0x2C91 JUMPI PUSH2 0x2710 DUP4 DUP2 PUSH2 0x2C87 JUMPI PUSH2 0x2C86 PUSH2 0x460C JUMP JUMPDEST JUMPDEST DIV SWAP3 POP PUSH1 0x4 DUP2 ADD SWAP1 POP JUMPDEST PUSH1 0x64 DUP4 LT PUSH2 0x2CB4 JUMPI PUSH1 0x64 DUP4 DUP2 PUSH2 0x2CAA JUMPI PUSH2 0x2CA9 PUSH2 0x460C JUMP JUMPDEST JUMPDEST DIV SWAP3 POP PUSH1 0x2 DUP2 ADD SWAP1 POP JUMPDEST PUSH1 0xA DUP4 LT PUSH2 0x2CC3 JUMPI PUSH1 0x1 DUP2 ADD SWAP1 POP JUMPDEST DUP1 SWAP2 POP POP SWAP2 SWAP1 POP JUMP JUMPDEST PUSH2 0x2CD6 DUP4 DUP4 PUSH2 0x2D4A JUMP JUMPDEST PUSH2 0x2CE3 PUSH1 0x0 DUP5 DUP5 DUP5 PUSH2 0x29F2 JUMP JUMPDEST PUSH2 0x2D22 JUMPI PUSH1 0x40 MLOAD PUSH32 0x8C379A000000000000000000000000000000000000000000000000000000000 DUP2 MSTORE PUSH1 0x4 ADD PUSH2 0x2D19 SWAP1 PUSH2 0x45EC JUMP JUMPDEST PUSH1 0x40 MLOAD DUP1 SWAP2 SUB SWAP1 REVERT JUMPDEST POP POP POP JUMP JUMPDEST PUSH1 0x0 DUP1 DUP3 PUSH20 0xFFFFFFFFFFFFFFFFFFFFFFFFFFFFFFFFFFFFFFFF AND EXTCODESIZE GT SWAP1 POP SWAP2 SWAP1 POP JUMP JUMPDEST PUSH1 0x0 PUSH20 0xFFFFFFFFFFFFFFFFFFFFFFFFFFFFFFFFFFFFFFFF AND DUP3 PUSH20 0xFFFFFFFFFFFFFFFFFFFFFFFFFFFFFFFFFFFFFFFF AND SUB PUSH2 0x2DB9 JUMPI PUSH1 0x40 MLOAD PUSH32 0x8C379A000000000000000000000000000000000000000000000000000000000 DUP2 MSTORE PUSH1 0x4 ADD PUSH2 0x2DB0 SWAP1 PUSH2 0x476A JUMP JUMPDEST PUSH1 0x40 MLOAD DUP1 SWAP2 SUB SWAP1 REVERT JUMPDEST PUSH2 0x2DC2 DUP2 PUSH2 0x2971 JUMP JUMPDEST ISZERO PUSH2 0x2E02 JUMPI PUSH1 0x40 MLOAD PUSH32 0x8C379A000000000000000000000000000000000000000000000000000000000 DUP2 MSTORE PUSH1 0x4 ADD PUSH2 0x2DF9 SWAP1 PUSH2 0x47D6 JUMP JUMPDEST PUSH1 0x40 MLOAD DUP1 SWAP2 SUB SWAP1 REVERT JUMPDEST PUSH2 0x2E10 PUSH1 0x0 DUP4 DUP4 PUSH1 0x1 PUSH2 0x29E6 JUMP JUMPDEST PUSH2 0x2E19 DUP2 PUSH2 0x2971 JUMP JUMPDEST ISZERO PUSH2 0x2E59 JUMPI PUSH1 0x40 MLOAD PUSH32 0x8C379A000000000000000000000000000000000000000000000000000000000 DUP2 MSTORE PUSH1 0x4 ADD PUSH2 0x2E50 SWAP1 PUSH2 0x47D6 JUMP JUMPDEST PUSH1 0x40 MLOAD DUP1 SWAP2 SUB SWAP1 REVERT JUMPDEST PUSH1 0x1 PUSH1 0x3 PUSH1 0x0 DUP5 PUSH20 0xFFFFFFFFFFFFFFFFFFFFFFFFFFFFFFFFFFFFFFFF AND PUSH20 0xFFFFFFFFFFFFFFFFFFFFFFFFFFFFFFFFFFFFFFFF AND DUP2 MSTORE PUSH1 0x20 ADD SWAP1 DUP2 MSTORE PUSH1 0x20 ADD PUSH1 0x0 KECCAK256 PUSH1 0x0 DUP3 DUP3 SLOAD ADD SWAP3 POP POP DUP2 SWAP1 SSTORE POP DUP2 PUSH1 0x2 PUSH1 0x0 DUP4 DUP2 MSTORE PUSH1 0x20 ADD SWAP1 DUP2 MSTORE PUSH1 0x20 ADD PUSH1 0x0 KECCAK256 PUSH1 0x0 PUSH2 0x100 EXP DUP2 SLOAD DUP2 PUSH20 0xFFFFFFFFFFFFFFFFFFFFFFFFFFFFFFFFFFFFFFFF MUL NOT AND SWAP1 DUP4 PUSH20 0xFFFFFFFFFFFFFFFFFFFFFFFFFFFFFFFFFFFFFFFF AND MUL OR SWAP1 SSTORE POP DUP1 DUP3 PUSH20 0xFFFFFFFFFFFFFFFFFFFFFFFFFFFFFFFFFFFFFFFF AND PUSH1 0x0 PUSH20 0xFFFFFFFFFFFFFFFFFFFFFFFFFFFFFFFFFFFFFFFF AND PUSH32 0xDDF252AD1BE2C89B69C2B068FC378DAA952BA7F163C4A11628F55A4DF523B3EF PUSH1 0x40 MLOAD PUSH1 0x40 MLOAD DUP1 SWAP2 SUB SWAP1 LOG4 PUSH2 0x2F63 PUSH1 0x0 DUP4 DUP4 PUSH1 0x1 PUSH2 0x29EC JUMP JUMPDEST POP POP JUMP JUMPDEST PUSH1 0x40 MLOAD DUP1 PUSH1 0xE0 ADD PUSH1 0x40 MSTORE DUP1 PUSH1 0x0 DUP2 MSTORE PUSH1 0x20 ADD PUSH1 0x0 PUSH20 0xFFFFFFFFFFFFFFFFFFFFFFFFFFFFFFFFFFFFFFFF AND DUP2 MSTORE PUSH1 0x20 ADD PUSH1 0x60 DUP2 MSTORE PUSH1 0x20 ADD PUSH1 0x60 DUP2 MSTORE PUSH1 0x20 ADD PUSH1 0x60 DUP2 MSTORE PUSH1 0x20 ADD PUSH1 0x60 DUP2 MSTORE PUSH1 0x20 ADD PUSH1 0x60 DUP2 MSTORE POP SWAP1 JUMP JUMPDEST PUSH1 0x0 PUSH20 0xFFFFFFFFFFFFFFFFFFFFFFFFFFFFFFFFFFFFFFFF DUP3 AND SWAP1 POP SWAP2 SWAP1 POP JUMP JUMPDEST PUSH1 0x0 PUSH2 0x2FE5 DUP3 PUSH2 0x2FBA JUMP JUMPDEST SWAP1 POP SWAP2 SWAP1 POP JUMP JUMPDEST PUSH2 0x2FF5 DUP2 PUSH2 0x2FDA JUMP JUMPDEST DUP3 MSTORE POP POP JUMP JUMPDEST PUSH1 0x0 DUP3 DUP3 MSTORE PUSH1 0x20 DUP3 ADD SWAP1 POP SWAP3 SWAP2 POP POP JUMP JUMPDEST PUSH32 0x4875727261792C20796F75206861766520676F74206120646F6E6174696F6E20 PUSH1 0x0 DUP3 ADD MSTORE PUSH32 0x3A29200000000000000000000000000000000000000000000000000000000000 PUSH1 0x20 DUP3 ADD MSTORE POP JUMP JUMPDEST PUSH1 0x0 PUSH2 0x3068 PUSH1 0x23 DUP4 PUSH2 0x2FFB JUMP JUMPDEST SWAP2 POP PUSH2 0x3073 DUP3 PUSH2 0x300C JUMP JUMPDEST PUSH1 0x40 DUP3 ADD SWAP1 POP SWAP2 SWAP1 POP JUMP JUMPDEST PUSH1 0x0 PUSH1 0x40 DUP3 ADD SWAP1 POP PUSH2 0x3093 PUSH1 0x0 DUP4 ADD DUP5 PUSH2 0x2FEC JUMP JUMPDEST DUP2 DUP2 SUB PUSH1 0x20 DUP4 ADD MSTORE PUSH2 0x30A4 DUP2 PUSH2 0x305B JUMP JUMPDEST SWAP1 POP SWAP3 SWAP2 POP POP JUMP JUMPDEST PUSH1 0x0 PUSH1 0x40 MLOAD SWAP1 POP SWAP1 JUMP JUMPDEST PUSH1 0x0 DUP1 REVERT JUMPDEST PUSH1 0x0 DUP1 REVERT JUMPDEST PUSH1 0x0 DUP2 SWAP1 POP SWAP2 SWAP1 POP JUMP JUMPDEST PUSH2 0x30D3 DUP2 PUSH2 0x30C0 JUMP JUMPDEST DUP2 EQ PUSH2 0x30DE JUMPI PUSH1 0x0 DUP1 REVERT JUMPDEST POP JUMP JUMPDEST PUSH1 0x0 DUP2 CALLDATALOAD SWAP1 POP PUSH2 0x30F0 DUP2 PUSH2 0x30CA JUMP JUMPDEST SWAP3 SWAP2 POP POP JUMP JUMPDEST PUSH1 0x0 PUSH1 0x20 DUP3 DUP5 SUB SLT ISZERO PUSH2 0x310C JUMPI PUSH2 0x310B PUSH2 0x30B6 JUMP JUMPDEST JUMPDEST PUSH1 0x0 PUSH2 0x311A DUP5 DUP3 DUP6 ADD PUSH2 0x30E1 JUMP JUMPDEST SWAP2 POP POP SWAP3 SWAP2 POP POP JUMP JUMPDEST PUSH1 0x0 PUSH32 0xFFFFFFFF00000000000000000000000000000000000000000000000000000000 DUP3 AND SWAP1 POP SWAP2 SWAP1 POP JUMP JUMPDEST PUSH2 0x3158 DUP2 PUSH2 0x3123 JUMP JUMPDEST DUP2 EQ PUSH2 0x3163 JUMPI PUSH1 0x0 DUP1 REVERT JUMPDEST POP JUMP JUMPDEST PUSH1 0x0 DUP2 CALLDATALOAD SWAP1 POP PUSH2 0x3175 DUP2 PUSH2 0x314F JUMP JUMPDEST SWAP3 SWAP2 POP POP JUMP JUMPDEST PUSH1 0x0 PUSH1 0x20 DUP3 DUP5 SUB SLT ISZERO PUSH2 0x3191 JUMPI PUSH2 0x3190 PUSH2 0x30B6 JUMP JUMPDEST JUMPDEST PUSH1 0x0 PUSH2 0x319F DUP5 DUP3 DUP6 ADD PUSH2 0x3166 JUMP JUMPDEST SWAP2 POP POP SWAP3 SWAP2 POP POP JUMP JUMPDEST PUSH1 0x0 DUP2 ISZERO ISZERO SWAP1 POP SWAP2 SWAP1 POP JUMP JUMPDEST PUSH2 0x31BD DUP2 PUSH2 0x31A8 JUMP JUMPDEST DUP3 MSTORE POP POP JUMP JUMPDEST PUSH1 0x0 PUSH1 0x20 DUP3 ADD SWAP1 POP PUSH2 0x31D8 PUSH1 0x0 DUP4 ADD DUP5 PUSH2 0x31B4 JUMP JUMPDEST SWAP3 SWAP2 POP POP JUMP JUMPDEST PUSH1 0x0 DUP2 MLOAD SWAP1 POP SWAP2 SWAP1 POP JUMP JUMPDEST PUSH1 0x0 JUMPDEST DUP4 DUP2 LT ISZERO PUSH2 0x3207 JUMPI DUP1 DUP3 ADD MLOAD DUP2 DUP5 ADD MSTORE PUSH1 0x20 DUP2 ADD SWAP1 POP PUSH2 0x31EC JUMP JUMPDEST PUSH1 0x0 DUP5 DUP5 ADD MSTORE POP POP POP POP JUMP JUMPDEST PUSH1 0x0 PUSH1 0x1F NOT PUSH1 0x1F DUP4 ADD AND SWAP1 POP SWAP2 SWAP1 POP JUMP JUMPDEST PUSH1 0x0 PUSH2 0x322F DUP3 PUSH2 0x31DE JUMP JUMPDEST PUSH2 0x3239 DUP2 DUP6 PUSH2 0x2FFB JUMP JUMPDEST SWAP4 POP PUSH2 0x3249 DUP2 DUP6 PUSH1 0x20 DUP7 ADD PUSH2 0x31E9 JUMP JUMPDEST PUSH2 0x3252 DUP2 PUSH2 0x3213 JUMP JUMPDEST DUP5 ADD SWAP2 POP POP SWAP3 SWAP2 POP POP JUMP JUMPDEST PUSH1 0x0 PUSH1 0x20 DUP3 ADD SWAP1 POP DUP2 DUP2 SUB PUSH1 0x0 DUP4 ADD MSTORE PUSH2 0x3277 DUP2 DUP5 PUSH2 0x3224 JUMP JUMPDEST SWAP1 POP SWAP3 SWAP2 POP POP JUMP JUMPDEST PUSH1 0x0 PUSH1 0x20 DUP3 ADD SWAP1 POP PUSH2 0x3294 PUSH1 0x0 DUP4 ADD DUP5 PUSH2 0x2FEC JUMP JUMPDEST SWAP3 SWAP2 POP POP JUMP JUMPDEST PUSH2 0x32A3 DUP2 PUSH2 0x2FDA JUMP JUMPDEST DUP2 EQ PUSH2 0x32AE JUMPI PUSH1 0x0 DUP1 REVERT JUMPDEST POP JUMP JUMPDEST PUSH1 0x0 DUP2 CALLDATALOAD SWAP1 POP PUSH2 0x32C0 DUP2 PUSH2 0x329A JUMP JUMPDEST SWAP3 SWAP2 POP POP JUMP JUMPDEST PUSH1 0x0 DUP1 PUSH1 0x40 DUP4 DUP6 SUB SLT ISZERO PUSH2 0x32DD JUMPI PUSH2 0x32DC PUSH2 0x30B6 JUMP JUMPDEST JUMPDEST PUSH1 0x0 PUSH2 0x32EB DUP6 DUP3 DUP7 ADD PUSH2 0x32B1 JUMP JUMPDEST SWAP3 POP POP PUSH1 0x20 PUSH2 0x32FC DUP6 DUP3 DUP7 ADD PUSH2 0x30E1 JUMP JUMPDEST SWAP2 POP POP SWAP3 POP SWAP3 SWAP1 POP JUMP JUMPDEST PUSH2 0x330F DUP2 PUSH2 0x30C0 JUMP JUMPDEST DUP3 MSTORE POP POP JUMP JUMPDEST PUSH1 0x0 PUSH1 0x20 DUP3 ADD SWAP1 POP PUSH2 0x332A PUSH1 0x0 DUP4 ADD DUP5 PUSH2 0x3306 JUMP JUMPDEST SWAP3 SWAP2 POP POP JUMP JUMPDEST PUSH1 0x0 DUP1 REVERT JUMPDEST PUSH1 0x0 DUP1 REVERT JUMPDEST PUSH32 0x4E487B7100000000000000000000000000000000000000000000000000000000 PUSH1 0x0 MSTORE PUSH1 0x41 PUSH1 0x4 MSTORE PUSH1 0x24 PUSH1 0x0 REVERT JUMPDEST PUSH2 0x3372 DUP3 PUSH2 0x3213 JUMP JUMPDEST DUP2 ADD DUP2 DUP2 LT PUSH8 0xFFFFFFFFFFFFFFFF DUP3 GT OR ISZERO PUSH2 0x3391 JUMPI PUSH2 0x3390 PUSH2 0x333A JUMP JUMPDEST JUMPDEST DUP1 PUSH1 0x40 MSTORE POP POP POP JUMP JUMPDEST PUSH1 0x0 PUSH2 0x33A4 PUSH2 0x30AC JUMP JUMPDEST SWAP1 POP PUSH2 0x33B0 DUP3 DUP3 PUSH2 0x3369 JUMP JUMPDEST SWAP2 SWAP1 POP JUMP JUMPDEST PUSH1 0x0 PUSH8 0xFFFFFFFFFFFFFFFF DUP3 GT ISZERO PUSH2 0x33D0 JUMPI PUSH2 0x33CF PUSH2 0x333A JUMP JUMPDEST JUMPDEST PUSH2 0x33D9 DUP3 PUSH2 0x3213 JUMP JUMPDEST SWAP1 POP PUSH1 0x20 DUP2 ADD SWAP1 POP SWAP2 SWAP1 POP JUMP JUMPDEST DUP3 DUP2 DUP4 CALLDATACOPY PUSH1 0x0 DUP4 DUP4 ADD MSTORE POP POP POP JUMP JUMPDEST PUSH1 0x0 PUSH2 0x3408 PUSH2 0x3403 DUP5 PUSH2 0x33B5 JUMP JUMPDEST PUSH2 0x339A JUMP JUMPDEST SWAP1 POP DUP3 DUP2 MSTORE PUSH1 0x20 DUP2 ADD DUP5 DUP5 DUP5 ADD GT ISZERO PUSH2 0x3424 JUMPI PUSH2 0x3423 PUSH2 0x3335 JUMP JUMPDEST JUMPDEST PUSH2 0x342F DUP5 DUP3 DUP6 PUSH2 0x33E6 JUMP JUMPDEST POP SWAP4 SWAP3 POP POP POP JUMP JUMPDEST PUSH1 0x0 DUP3 PUSH1 0x1F DUP4 ADD SLT PUSH2 0x344C JUMPI PUSH2 0x344B PUSH2 0x3330 JUMP JUMPDEST JUMPDEST DUP2 CALLDATALOAD PUSH2 0x345C DUP5 DUP3 PUSH1 0x20 DUP7 ADD PUSH2 0x33F5 JUMP JUMPDEST SWAP2 POP POP SWAP3 SWAP2 POP POP JUMP JUMPDEST PUSH1 0x0 DUP1 PUSH1 0x0 DUP1 PUSH1 0x0 PUSH1 0xA0 DUP7 DUP9 SUB SLT ISZERO PUSH2 0x3481 JUMPI PUSH2 0x3480 PUSH2 0x30B6 JUMP JUMPDEST JUMPDEST PUSH1 0x0 DUP7 ADD CALLDATALOAD PUSH8 0xFFFFFFFFFFFFFFFF DUP2 GT ISZERO PUSH2 0x349F JUMPI PUSH2 0x349E PUSH2 0x30BB JUMP JUMPDEST JUMPDEST PUSH2 0x34AB DUP9 DUP3 DUP10 ADD PUSH2 0x3437 JUMP JUMPDEST SWAP6 POP POP PUSH1 0x20 DUP7 ADD CALLDATALOAD PUSH8 0xFFFFFFFFFFFFFFFF DUP2 GT ISZERO PUSH2 0x34CC JUMPI PUSH2 0x34CB PUSH2 0x30BB JUMP JUMPDEST JUMPDEST PUSH2 0x34D8 DUP9 DUP3 DUP10 ADD PUSH2 0x3437 JUMP JUMPDEST SWAP5 POP POP PUSH1 0x40 DUP7 ADD CALLDATALOAD PUSH8 0xFFFFFFFFFFFFFFFF DUP2 GT ISZERO PUSH2 0x34F9 JUMPI PUSH2 0x34F8 PUSH2 0x30BB JUMP JUMPDEST JUMPDEST PUSH2 0x3505 DUP9 DUP3 DUP10 ADD PUSH2 0x3437 JUMP JUMPDEST SWAP4 POP POP PUSH1 0x60 DUP7 ADD CALLDATALOAD PUSH8 0xFFFFFFFFFFFFFFFF DUP2 GT ISZERO PUSH2 0x3526 JUMPI PUSH2 0x3525 PUSH2 0x30BB JUMP JUMPDEST JUMPDEST PUSH2 0x3532 DUP9 DUP3 DUP10 ADD PUSH2 0x3437 JUMP JUMPDEST SWAP3 POP POP PUSH1 0x80 DUP7 ADD CALLDATALOAD PUSH8 0xFFFFFFFFFFFFFFFF DUP2 GT ISZERO PUSH2 0x3553 JUMPI PUSH2 0x3552 PUSH2 0x30BB JUMP JUMPDEST JUMPDEST PUSH2 0x355F DUP9 DUP3 DUP10 ADD PUSH2 0x3437 JUMP JUMPDEST SWAP2 POP POP SWAP3 SWAP6 POP SWAP3 SWAP6 SWAP1 SWAP4 POP JUMP JUMPDEST PUSH1 0x0 DUP1 PUSH1 0x0 PUSH1 0x60 DUP5 DUP7 SUB SLT ISZERO PUSH2 0x3585 JUMPI PUSH2 0x3584 PUSH2 0x30B6 JUMP JUMPDEST JUMPDEST PUSH1 0x0 PUSH2 0x3593 DUP7 DUP3 DUP8 ADD PUSH2 0x32B1 JUMP JUMPDEST SWAP4 POP POP PUSH1 0x20 PUSH2 0x35A4 DUP7 DUP3 DUP8 ADD PUSH2 0x32B1 JUMP JUMPDEST SWAP3 POP POP PUSH1 0x40 PUSH2 0x35B5 DUP7 DUP3 DUP8 ADD PUSH2 0x30E1 JUMP JUMPDEST SWAP2 POP POP SWAP3 POP SWAP3 POP SWAP3 JUMP JUMPDEST PUSH2 0x35C8 DUP2 PUSH2 0x30C0 JUMP JUMPDEST DUP3 MSTORE POP POP JUMP JUMPDEST PUSH2 0x35D7 DUP2 PUSH2 0x2FDA JUMP JUMPDEST DUP3 MSTORE POP POP JUMP JUMPDEST PUSH1 0x0 DUP3 DUP3 MSTORE PUSH1 0x20 DUP3 ADD SWAP1 POP SWAP3 SWAP2 POP POP JUMP JUMPDEST PUSH1 0x0 PUSH2 0x35F9 DUP3 PUSH2 0x31DE JUMP JUMPDEST PUSH2 0x3603 DUP2 DUP6 PUSH2 0x35DD JUMP JUMPDEST SWAP4 POP PUSH2 0x3613 DUP2 DUP6 PUSH1 0x20 DUP7 ADD PUSH2 0x31E9 JUMP JUMPDEST PUSH2 0x361C DUP2 PUSH2 0x3213 JUMP JUMPDEST DUP5 ADD SWAP2 POP POP SWAP3 SWAP2 POP POP JUMP JUMPDEST PUSH1 0x0 PUSH1 0xE0 DUP4 ADD PUSH1 0x0 DUP4 ADD MLOAD PUSH2 0x363F PUSH1 0x0 DUP7 ADD DUP3 PUSH2 0x35BF JUMP JUMPDEST POP PUSH1 0x20 DUP4 ADD MLOAD PUSH2 0x3652 PUSH1 0x20 DUP7 ADD DUP3 PUSH2 0x35CE JUMP JUMPDEST POP PUSH1 0x40 DUP4 ADD MLOAD DUP5 DUP3 SUB PUSH1 0x40 DUP7 ADD MSTORE PUSH2 0x366A DUP3 DUP3 PUSH2 0x35EE JUMP JUMPDEST SWAP2 POP POP PUSH1 0x60 DUP4 ADD MLOAD DUP5 DUP3 SUB PUSH1 0x60 DUP7 ADD MSTORE PUSH2 0x3684 DUP3 DUP3 PUSH2 0x35EE JUMP JUMPDEST SWAP2 POP POP PUSH1 0x80 DUP4 ADD MLOAD DUP5 DUP3 SUB PUSH1 0x80 DUP7 ADD MSTORE PUSH2 0x369E DUP3 DUP3 PUSH2 0x35EE JUMP JUMPDEST SWAP2 POP POP PUSH1 0xA0 DUP4 ADD MLOAD DUP5 DUP3 SUB PUSH1 0xA0 DUP7 ADD MSTORE PUSH2 0x36B8 DUP3 DUP3 PUSH2 0x35EE JUMP JUMPDEST SWAP2 POP POP PUSH1 0xC0 DUP4 ADD MLOAD DUP5 DUP3 SUB PUSH1 0xC0 DUP7 ADD MSTORE PUSH2 0x36D2 DUP3 DUP3 PUSH2 0x35EE JUMP JUMPDEST SWAP2 POP POP DUP1 SWAP2 POP POP SWAP3 SWAP2 POP POP JUMP JUMPDEST PUSH1 0x0 PUSH1 0x20 DUP3 ADD SWAP1 POP DUP2 DUP2 SUB PUSH1 0x0 DUP4 ADD MSTORE PUSH2 0x36F9 DUP2 DUP5 PUSH2 0x3627 JUMP JUMPDEST SWAP1 POP SWAP3 SWAP2 POP POP JUMP JUMPDEST PUSH1 0x0 PUSH1 0x20 DUP3 DUP5 SUB SLT ISZERO PUSH2 0x3717 JUMPI PUSH2 0x3716 PUSH2 0x30B6 JUMP JUMPDEST JUMPDEST PUSH1 0x0 PUSH2 0x3725 DUP5 DUP3 DUP6 ADD PUSH2 0x32B1 JUMP JUMPDEST SWAP2 POP POP SWAP3 SWAP2 POP POP JUMP JUMPDEST PUSH1 0x0 PUSH1 0xE0 DUP3 ADD SWAP1 POP PUSH2 0x3743 PUSH1 0x0 DUP4 ADD DUP11 PUSH2 0x3306 JUMP JUMPDEST PUSH2 0x3750 PUSH1 0x20 DUP4 ADD DUP10 PUSH2 0x2FEC JUMP JUMPDEST DUP2 DUP2 SUB PUSH1 0x40 DUP4 ADD MSTORE PUSH2 0x3762 DUP2 DUP9 PUSH2 0x3224 JUMP JUMPDEST SWAP1 POP DUP2 DUP2 SUB PUSH1 0x60 DUP4 ADD MSTORE PUSH2 0x3776 DUP2 DUP8 PUSH2 0x3224 JUMP JUMPDEST SWAP1 POP DUP2 DUP2 SUB PUSH1 0x80 DUP4 ADD MSTORE PUSH2 0x378A DUP2 DUP7 PUSH2 0x3224 JUMP JUMPDEST SWAP1 POP DUP2 DUP2 SUB PUSH1 0xA0 DUP4 ADD MSTORE PUSH2 0x379E DUP2 DUP6 PUSH2 0x3224 JUMP JUMPDEST SWAP1 POP DUP2 DUP2 SUB PUSH1 0xC0 DUP4 ADD MSTORE PUSH2 0x37B2 DUP2 DUP5 PUSH2 0x3224 JUMP JUMPDEST SWAP1 POP SWAP9 SWAP8 POP POP POP POP POP POP POP POP JUMP JUMPDEST PUSH2 0x37C9 DUP2 PUSH2 0x31A8 JUMP JUMPDEST DUP2 EQ PUSH2 0x37D4 JUMPI PUSH1 0x0 DUP1 REVERT JUMPDEST POP JUMP JUMPDEST PUSH1 0x0 DUP2 CALLDATALOAD SWAP1 POP PUSH2 0x37E6 DUP2 PUSH2 0x37C0 JUMP JUMPDEST SWAP3 SWAP2 POP POP JUMP JUMPDEST PUSH1 0x0 DUP1 PUSH1 0x40 DUP4 DUP6 SUB SLT ISZERO PUSH2 0x3803 JUMPI PUSH2 0x3802 PUSH2 0x30B6 JUMP JUMPDEST JUMPDEST PUSH1 0x0 PUSH2 0x3811 DUP6 DUP3 DUP7 ADD PUSH2 0x32B1 JUMP JUMPDEST SWAP3 POP POP PUSH1 0x20 PUSH2 0x3822 DUP6 DUP3 DUP7 ADD PUSH2 0x37D7 JUMP JUMPDEST SWAP2 POP POP SWAP3 POP SWAP3 SWAP1 POP JUMP JUMPDEST PUSH1 0x0 PUSH8 0xFFFFFFFFFFFFFFFF DUP3 GT ISZERO PUSH2 0x3847 JUMPI PUSH2 0x3846 PUSH2 0x333A JUMP JUMPDEST JUMPDEST PUSH2 0x3850 DUP3 PUSH2 0x3213 JUMP JUMPDEST SWAP1 POP PUSH1 0x20 DUP2 ADD SWAP1 POP SWAP2 SWAP1 POP JUMP JUMPDEST PUSH1 0x0 PUSH2 0x3870 PUSH2 0x386B DUP5 PUSH2 0x382C JUMP JUMPDEST PUSH2 0x339A JUMP JUMPDEST SWAP1 POP DUP3 DUP2 MSTORE PUSH1 0x20 DUP2 ADD DUP5 DUP5 DUP5 ADD GT ISZERO PUSH2 0x388C JUMPI PUSH2 0x388B PUSH2 0x3335 JUMP JUMPDEST JUMPDEST PUSH2 0x3897 DUP5 DUP3 DUP6 PUSH2 0x33E6 JUMP JUMPDEST POP SWAP4 SWAP3 POP POP POP JUMP JUMPDEST PUSH1 0x0 DUP3 PUSH1 0x1F DUP4 ADD SLT PUSH2 0x38B4 JUMPI PUSH2 0x38B3 PUSH2 0x3330 JUMP JUMPDEST JUMPDEST DUP2 CALLDATALOAD PUSH2 0x38C4 DUP5 DUP3 PUSH1 0x20 DUP7 ADD PUSH2 0x385D JUMP JUMPDEST SWAP2 POP POP SWAP3 SWAP2 POP POP JUMP JUMPDEST PUSH1 0x0 DUP1 PUSH1 0x0 DUP1 PUSH1 0x80 DUP6 DUP8 SUB SLT ISZERO PUSH2 0x38E7 JUMPI PUSH2 0x38E6 PUSH2 0x30B6 JUMP JUMPDEST JUMPDEST PUSH1 0x0 PUSH2 0x38F5 DUP8 DUP3 DUP9 ADD PUSH2 0x32B1 JUMP JUMPDEST SWAP5 POP POP PUSH1 0x20 PUSH2 0x3906 DUP8 DUP3 DUP9 ADD PUSH2 0x32B1 JUMP JUMPDEST SWAP4 POP POP PUSH1 0x40 PUSH2 0x3917 DUP8 DUP3 DUP9 ADD PUSH2 0x30E1 JUMP JUMPDEST SWAP3 POP POP PUSH1 0x60 DUP6 ADD CALLDATALOAD PUSH8 0xFFFFFFFFFFFFFFFF DUP2 GT ISZERO PUSH2 0x3938 JUMPI PUSH2 0x3937 PUSH2 0x30BB JUMP JUMPDEST JUMPDEST PUSH2 0x3944 DUP8 DUP3 DUP9 ADD PUSH2 0x389F JUMP JUMPDEST SWAP2 POP POP SWAP3 SWAP6 SWAP2 SWAP5 POP SWAP3 POP JUMP JUMPDEST PUSH1 0x0 DUP1 PUSH1 0x40 DUP4 DUP6 SUB SLT ISZERO PUSH2 0x3967 JUMPI PUSH2 0x3966 PUSH2 0x30B6 JUMP JUMPDEST JUMPDEST PUSH1 0x0 PUSH2 0x3975 DUP6 DUP3 DUP7 ADD PUSH2 0x32B1 JUMP JUMPDEST SWAP3 POP POP PUSH1 0x20 PUSH2 0x3986 DUP6 DUP3 DUP7 ADD PUSH2 0x32B1 JUMP JUMPDEST SWAP2 POP POP SWAP3 POP SWAP3 SWAP1 POP JUMP JUMPDEST PUSH32 0x596F7520617265206E6F7420746865206F776E65722E00000000000000000000 PUSH1 0x0 DUP3 ADD MSTORE POP JUMP JUMPDEST PUSH1 0x0 PUSH2 0x39C6 PUSH1 0x16 DUP4 PUSH2 0x2FFB JUMP JUMPDEST SWAP2 POP PUSH2 0x39D1 DUP3 PUSH2 0x3990 JUMP JUMPDEST PUSH1 0x20 DUP3 ADD SWAP1 POP SWAP2 SWAP1 POP JUMP JUMPDEST PUSH1 0x0 PUSH1 0x20 DUP3 ADD SWAP1 POP DUP2 DUP2 SUB PUSH1 0x0 DUP4 ADD MSTORE PUSH2 0x39F5 DUP2 PUSH2 0x39B9 JUMP JUMPDEST SWAP1 POP SWAP2 SWAP1 POP JUMP JUMPDEST PUSH32 0x4E487B7100000000000000000000000000000000000000000000000000000000 PUSH1 0x0 MSTORE PUSH1 0x22 PUSH1 0x4 MSTORE PUSH1 0x24 PUSH1 0x0 REVERT JUMPDEST PUSH1 0x0 PUSH1 0x2 DUP3 DIV SWAP1 POP PUSH1 0x1 DUP3 AND DUP1 PUSH2 0x3A43 JUMPI PUSH1 0x7F DUP3 AND SWAP2 POP JUMPDEST PUSH1 0x20 DUP3 LT DUP2 SUB PUSH2 0x3A56 JUMPI PUSH2 0x3A55 PUSH2 0x39FC JUMP JUMPDEST JUMPDEST POP SWAP2 SWAP1 POP JUMP JUMPDEST PUSH32 0x4552433732313A20617070726F76616C20746F2063757272656E74206F776E65 PUSH1 0x0 DUP3 ADD MSTORE PUSH32 0x7200000000000000000000000000000000000000000000000000000000000000 PUSH1 0x20 DUP3 ADD MSTORE POP JUMP JUMPDEST PUSH1 0x0 PUSH2 0x3AB8 PUSH1 0x21 DUP4 PUSH2 0x2FFB JUMP JUMPDEST SWAP2 POP PUSH2 0x3AC3 DUP3 PUSH2 0x3A5C JUMP JUMPDEST PUSH1 0x40 DUP3 ADD SWAP1 POP SWAP2 SWAP1 POP JUMP JUMPDEST PUSH1 0x0 PUSH1 0x20 DUP3 ADD SWAP1 POP DUP2 DUP2 SUB PUSH1 0x0 DUP4 ADD MSTORE PUSH2 0x3AE7 DUP2 PUSH2 0x3AAB JUMP JUMPDEST SWAP1 POP SWAP2 SWAP1 POP JUMP JUMPDEST PUSH32 0x4552433732313A20617070726F76652063616C6C6572206973206E6F7420746F PUSH1 0x0 DUP3 ADD MSTORE PUSH32 0x6B656E206F776E6572206F7220617070726F76656420666F7220616C6C000000 PUSH1 0x20 DUP3 ADD MSTORE POP JUMP JUMPDEST PUSH1 0x0 PUSH2 0x3B4A PUSH1 0x3D DUP4 PUSH2 0x2FFB JUMP JUMPDEST SWAP2 POP PUSH2 0x3B55 DUP3 PUSH2 0x3AEE JUMP JUMPDEST PUSH1 0x40 DUP3 ADD SWAP1 POP SWAP2 SWAP1 POP JUMP JUMPDEST PUSH1 0x0 PUSH1 0x20 DUP3 ADD SWAP1 POP DUP2 DUP2 SUB PUSH1 0x0 DUP4 ADD MSTORE PUSH2 0x3B79 DUP2 PUSH2 0x3B3D JUMP JUMPDEST SWAP1 POP SWAP2 SWAP1 POP JUMP JUMPDEST PUSH32 0x4E487B7100000000000000000000000000000000000000000000000000000000 PUSH1 0x0 MSTORE PUSH1 0x11 PUSH1 0x4 MSTORE PUSH1 0x24 PUSH1 0x0 REVERT JUMPDEST PUSH1 0x0 PUSH2 0x3BBA DUP3 PUSH2 0x30C0 JUMP JUMPDEST SWAP2 POP PUSH2 0x3BC5 DUP4 PUSH2 0x30C0 JUMP JUMPDEST SWAP3 POP DUP3 DUP3 ADD SWAP1 POP DUP1 DUP3 GT ISZERO PUSH2 0x3BDD JUMPI PUSH2 0x3BDC PUSH2 0x3B80 JUMP JUMPDEST JUMPDEST SWAP3 SWAP2 POP POP JUMP JUMPDEST PUSH32 0x57726F6E6720616D6F756E74204F52206D696E7473206C696D69742065786365 PUSH1 0x0 DUP3 ADD MSTORE PUSH32 0x6564656421000000000000000000000000000000000000000000000000000000 PUSH1 0x20 DUP3 ADD MSTORE POP JUMP JUMPDEST PUSH1 0x0 PUSH2 0x3C3F PUSH1 0x25 DUP4 PUSH2 0x2FFB JUMP JUMPDEST SWAP2 POP PUSH2 0x3C4A DUP3 PUSH2 0x3BE3 JUMP JUMPDEST PUSH1 0x40 DUP3 ADD SWAP1 POP SWAP2 SWAP1 POP JUMP JUMPDEST PUSH1 0x0 PUSH1 0x40 DUP3 ADD SWAP1 POP PUSH2 0x3C6A PUSH1 0x0 DUP4 ADD DUP5 PUSH2 0x2FEC JUMP JUMPDEST DUP2 DUP2 SUB PUSH1 0x20 DUP4 ADD MSTORE PUSH2 0x3C7B DUP2 PUSH2 0x3C32 JUMP JUMPDEST SWAP1 POP SWAP3 SWAP2 POP POP JUMP JUMPDEST PUSH32 0x6D696E7473207065722077616C6C657420657863656564656400000000000000 PUSH1 0x0 DUP3 ADD MSTORE POP JUMP JUMPDEST PUSH1 0x0 PUSH2 0x3CB9 PUSH1 0x19 DUP4 PUSH2 0x2FFB JUMP JUMPDEST SWAP2 POP PUSH2 0x3CC4 DUP3 PUSH2 0x3C83 JUMP JUMPDEST PUSH1 0x20 DUP3 ADD SWAP1 POP SWAP2 SWAP1 POP JUMP JUMPDEST PUSH1 0x0 PUSH1 0x20 DUP3 ADD SWAP1 POP DUP2 DUP2 SUB PUSH1 0x0 DUP4 ADD MSTORE PUSH2 0x3CE8 DUP2 PUSH2 0x3CAC JUMP JUMPDEST SWAP1 POP SWAP2 SWAP1 POP JUMP JUMPDEST PUSH32 0x57726F6E6720616D6F756E742073656E742C20706C656173652073656E642065 PUSH1 0x0 DUP3 ADD MSTORE PUSH32 0x78616374204E465420707269636520696E206574686572000000000000000000 PUSH1 0x20 DUP3 ADD MSTORE POP JUMP JUMPDEST PUSH1 0x0 PUSH2 0x3D4B PUSH1 0x37 DUP4 PUSH2 0x2FFB JUMP JUMPDEST SWAP2 POP PUSH2 0x3D56 DUP3 PUSH2 0x3CEF JUMP JUMPDEST PUSH1 0x40 DUP3 ADD SWAP1 POP SWAP2 SWAP1 POP JUMP JUMPDEST PUSH1 0x0 PUSH1 0x20 DUP3 ADD SWAP1 POP DUP2 DUP2 SUB PUSH1 0x0 DUP4 ADD MSTORE PUSH2 0x3D7A DUP2 PUSH2 0x3D3E JUMP JUMPDEST SWAP1 POP SWAP2 SWAP1 POP JUMP JUMPDEST PUSH32 0x4552433732313A2063616C6C6572206973206E6F7420746F6B656E206F776E65 PUSH1 0x0 DUP3 ADD MSTORE PUSH32 0x72206F7220617070726F76656400000000000000000000000000000000000000 PUSH1 0x20 DUP3 ADD MSTORE POP JUMP JUMPDEST PUSH1 0x0 PUSH2 0x3DDD PUSH1 0x2D DUP4 PUSH2 0x2FFB JUMP JUMPDEST SWAP2 POP PUSH2 0x3DE8 DUP3 PUSH2 0x3D81 JUMP JUMPDEST PUSH1 0x40 DUP3 ADD SWAP1 POP SWAP2 SWAP1 POP JUMP JUMPDEST PUSH1 0x0 PUSH1 0x20 DUP3 ADD SWAP1 POP DUP2 DUP2 SUB PUSH1 0x0 DUP4 ADD MSTORE PUSH2 0x3E0C DUP2 PUSH2 0x3DD0 JUMP JUMPDEST SWAP1 POP SWAP2 SWAP1 POP JUMP JUMPDEST PUSH32 0x4E616D65724B6F726563746C79204E46542062616E6B20656D70746965642026 PUSH1 0x0 DUP3 ADD MSTORE PUSH32 0x206574686572732073656E7420746F20746865206F776E657200000000000000 PUSH1 0x20 DUP3 ADD MSTORE POP JUMP JUMPDEST PUSH1 0x0 PUSH2 0x3E6F PUSH1 0x39 DUP4 PUSH2 0x2FFB JUMP JUMPDEST SWAP2 POP PUSH2 0x3E7A DUP3 PUSH2 0x3E13 JUMP JUMPDEST PUSH1 0x40 DUP3 ADD SWAP1 POP SWAP2 SWAP1 POP JUMP JUMPDEST PUSH1 0x0 PUSH1 0x40 DUP3 ADD SWAP1 POP PUSH2 0x3E9A PUSH1 0x0 DUP4 ADD DUP5 PUSH2 0x2FEC JUMP JUMPDEST DUP2 DUP2 SUB PUSH1 0x20 DUP4 ADD MSTORE PUSH2 0x3EAB DUP2 PUSH2 0x3E62 JUMP JUMPDEST SWAP1 POP SWAP3 SWAP2 POP POP JUMP JUMPDEST PUSH32 0x4552433732313A20696E76616C696420746F6B656E2049440000000000000000 PUSH1 0x0 DUP3 ADD MSTORE POP JUMP JUMPDEST PUSH1 0x0 PUSH2 0x3EE9 PUSH1 0x18 DUP4 PUSH2 0x2FFB JUMP JUMPDEST SWAP2 POP PUSH2 0x3EF4 DUP3 PUSH2 0x3EB3 JUMP JUMPDEST PUSH1 0x20 DUP3 ADD SWAP1 POP SWAP2 SWAP1 POP JUMP JUMPDEST PUSH1 0x0 PUSH1 0x20 DUP3 ADD SWAP1 POP DUP2 DUP2 SUB PUSH1 0x0 DUP4 ADD MSTORE PUSH2 0x3F18 DUP2 PUSH2 0x3EDC JUMP JUMPDEST SWAP1 POP SWAP2 SWAP1 POP JUMP JUMPDEST PUSH32 0x4552433732313A2061646472657373207A65726F206973206E6F742061207661 PUSH1 0x0 DUP3 ADD MSTORE PUSH32 0x6C6964206F776E65720000000000000000000000000000000000000000000000 PUSH1 0x20 DUP3 ADD MSTORE POP JUMP JUMPDEST PUSH1 0x0 PUSH2 0x3F7B PUSH1 0x29 DUP4 PUSH2 0x2FFB JUMP JUMPDEST SWAP2 POP PUSH2 0x3F86 DUP3 PUSH2 0x3F1F JUMP JUMPDEST PUSH1 0x40 DUP3 ADD SWAP1 POP SWAP2 SWAP1 POP JUMP JUMPDEST PUSH1 0x0 PUSH1 0x20 DUP3 ADD SWAP1 POP DUP2 DUP2 SUB PUSH1 0x0 DUP4 ADD MSTORE PUSH2 0x3FAA DUP2 PUSH2 0x3F6E JUMP JUMPDEST SWAP1 POP SWAP2 SWAP1 POP JUMP JUMPDEST PUSH32 0x496E73756666696369656E7420746F6B656E7300000000000000000000000000 PUSH1 0x0 DUP3 ADD MSTORE POP JUMP JUMPDEST PUSH1 0x0 PUSH2 0x3FE7 PUSH1 0x13 DUP4 PUSH2 0x2FFB JUMP JUMPDEST SWAP2 POP PUSH2 0x3FF2 DUP3 PUSH2 0x3FB1 JUMP JUMPDEST PUSH1 0x20 DUP3 ADD SWAP1 POP SWAP2 SWAP1 POP JUMP JUMPDEST PUSH1 0x0 PUSH1 0x20 DUP3 ADD SWAP1 POP DUP2 DUP2 SUB PUSH1 0x0 DUP4 ADD MSTORE PUSH2 0x4016 DUP2 PUSH2 0x3FDA JUMP JUMPDEST SWAP1 POP SWAP2 SWAP1 POP JUMP JUMPDEST PUSH32 0x526563697069656E742063616E277420657863656564206D6178696D756D2061 PUSH1 0x0 DUP3 ADD MSTORE PUSH32 0x6C6C6F776564206C696D69740000000000000000000000000000000000000000 PUSH1 0x20 DUP3 ADD MSTORE POP JUMP JUMPDEST PUSH1 0x0 PUSH2 0x4079 PUSH1 0x2C DUP4 PUSH2 0x2FFB JUMP JUMPDEST SWAP2 POP PUSH2 0x4084 DUP3 PUSH2 0x401D JUMP JUMPDEST PUSH1 0x40 DUP3 ADD SWAP1 POP SWAP2 SWAP1 POP JUMP JUMPDEST PUSH1 0x0 PUSH1 0x20 DUP3 ADD SWAP1 POP DUP2 DUP2 SUB PUSH1 0x0 DUP4 ADD MSTORE PUSH2 0x40A8 DUP2 PUSH2 0x406C JUMP JUMPDEST SWAP1 POP SWAP2 SWAP1 POP JUMP JUMPDEST PUSH1 0x0 PUSH2 0x40BA DUP3 PUSH2 0x30C0 JUMP JUMPDEST SWAP2 POP PUSH2 0x40C5 DUP4 PUSH2 0x30C0 JUMP JUMPDEST SWAP3 POP DUP3 DUP3 SUB SWAP1 POP DUP2 DUP2 GT ISZERO PUSH2 0x40DD JUMPI PUSH2 0x40DC PUSH2 0x3B80 JUMP JUMPDEST JUMPDEST SWAP3 SWAP2 POP POP JUMP JUMPDEST PUSH1 0x0 PUSH1 0x40 DUP3 ADD SWAP1 POP PUSH2 0x40F8 PUSH1 0x0 DUP4 ADD DUP6 PUSH2 0x2FEC JUMP JUMPDEST PUSH2 0x4105 PUSH1 0x20 DUP4 ADD DUP5 PUSH2 0x2FEC JUMP JUMPDEST SWAP4 SWAP3 POP POP POP JUMP JUMPDEST PUSH1 0x0 DUP2 SWAP1 POP SWAP3 SWAP2 POP POP JUMP JUMPDEST PUSH1 0x0 PUSH2 0x4122 DUP3 PUSH2 0x31DE JUMP JUMPDEST PUSH2 0x412C DUP2 DUP6 PUSH2 0x410C JUMP JUMPDEST SWAP4 POP PUSH2 0x413C DUP2 DUP6 PUSH1 0x20 DUP7 ADD PUSH2 0x31E9 JUMP JUMPDEST DUP1 DUP5 ADD SWAP2 POP POP SWAP3 SWAP2 POP POP JUMP JUMPDEST PUSH1 0x0 PUSH2 0x4154 DUP3 DUP6 PUSH2 0x4117 JUMP JUMPDEST SWAP2 POP PUSH2 0x4160 DUP3 DUP5 PUSH2 0x4117 JUMP JUMPDEST SWAP2 POP DUP2 SWAP1 POP SWAP4 SWAP3 POP POP POP JUMP JUMPDEST PUSH1 0x0 DUP2 SWAP1 POP DUP2 PUSH1 0x0 MSTORE PUSH1 0x20 PUSH1 0x0 KECCAK256 SWAP1 POP SWAP2 SWAP1 POP JUMP JUMPDEST PUSH1 0x0 PUSH1 0x20 PUSH1 0x1F DUP4 ADD DIV SWAP1 POP SWAP2 SWAP1 POP JUMP JUMPDEST PUSH1 0x0 DUP3 DUP3 SHL SWAP1 POP SWAP3 SWAP2 POP POP JUMP JUMPDEST PUSH1 0x0 PUSH1 0x8 DUP4 MUL PUSH2 0x41CE PUSH32 0xFFFFFFFFFFFFFFFFFFFFFFFFFFFFFFFFFFFFFFFFFFFFFFFFFFFFFFFFFFFFFFFF DUP3 PUSH2 0x4191 JUMP JUMPDEST PUSH2 0x41D8 DUP7 DUP4 PUSH2 0x4191 JUMP JUMPDEST SWAP6 POP DUP1 NOT DUP5 AND SWAP4 POP DUP1 DUP7 AND DUP5 OR SWAP3 POP POP POP SWAP4 SWAP3 POP POP POP JUMP JUMPDEST PUSH1 0x0 DUP2 SWAP1 POP SWAP2 SWAP1 POP JUMP JUMPDEST PUSH1 0x0 PUSH2 0x4215 PUSH2 0x4210 PUSH2 0x420B DUP5 PUSH2 0x30C0 JUMP JUMPDEST PUSH2 0x41F0 JUMP JUMPDEST PUSH2 0x30C0 JUMP JUMPDEST SWAP1 POP SWAP2 SWAP1 POP JUMP JUMPDEST PUSH1 0x0 DUP2 SWAP1 POP SWAP2 SWAP1 POP JUMP JUMPDEST PUSH2 0x422F DUP4 PUSH2 0x41FA JUMP JUMPDEST PUSH2 0x4243 PUSH2 0x423B DUP3 PUSH2 0x421C JUMP JUMPDEST DUP5 DUP5 SLOAD PUSH2 0x419E JUMP JUMPDEST DUP3 SSTORE POP POP POP POP JUMP JUMPDEST PUSH1 0x0 SWAP1 JUMP JUMPDEST PUSH2 0x4258 PUSH2 0x424B JUMP JUMPDEST PUSH2 0x4263 DUP2 DUP5 DUP5 PUSH2 0x4226 JUMP JUMPDEST POP POP POP JUMP JUMPDEST JUMPDEST DUP2 DUP2 LT ISZERO PUSH2 0x4287 JUMPI PUSH2 0x427C PUSH1 0x0 DUP3 PUSH2 0x4250 JUMP JUMPDEST PUSH1 0x1 DUP2 ADD SWAP1 POP PUSH2 0x4269 JUMP JUMPDEST POP POP JUMP JUMPDEST PUSH1 0x1F DUP3 GT ISZERO PUSH2 0x42CC JUMPI PUSH2 0x429D DUP2 PUSH2 0x416C JUMP JUMPDEST PUSH2 0x42A6 DUP5 PUSH2 0x4181 JUMP JUMPDEST DUP2 ADD PUSH1 0x20 DUP6 LT ISZERO PUSH2 0x42B5 JUMPI DUP2 SWAP1 POP JUMPDEST PUSH2 0x42C9 PUSH2 0x42C1 DUP6 PUSH2 0x4181 JUMP JUMPDEST DUP4 ADD DUP3 PUSH2 0x4268 JUMP JUMPDEST POP POP JUMPDEST POP POP POP JUMP JUMPDEST PUSH1 0x0 DUP3 DUP3 SHR SWAP1 POP SWAP3 SWAP2 POP POP JUMP JUMPDEST PUSH1 0x0 PUSH2 0x42EF PUSH1 0x0 NOT DUP5 PUSH1 0x8 MUL PUSH2 0x42D1 JUMP JUMPDEST NOT DUP1 DUP4 AND SWAP2 POP POP SWAP3 SWAP2 POP POP JUMP JUMPDEST PUSH1 0x0 PUSH2 0x4308 DUP4 DUP4 PUSH2 0x42DE JUMP JUMPDEST SWAP2 POP DUP3 PUSH1 0x2 MUL DUP3 OR SWAP1 POP SWAP3 SWAP2 POP POP JUMP JUMPDEST PUSH2 0x4321 DUP3 PUSH2 0x31DE JUMP JUMPDEST PUSH8 0xFFFFFFFFFFFFFFFF DUP2 GT ISZERO PUSH2 0x433A JUMPI PUSH2 0x4339 PUSH2 0x333A JUMP JUMPDEST JUMPDEST PUSH2 0x4344 DUP3 SLOAD PUSH2 0x3A2B JUMP JUMPDEST PUSH2 0x434F DUP3 DUP3 DUP6 PUSH2 0x428B JUMP JUMPDEST PUSH1 0x0 PUSH1 0x20 SWAP1 POP PUSH1 0x1F DUP4 GT PUSH1 0x1 DUP2 EQ PUSH2 0x4382 JUMPI PUSH1 0x0 DUP5 ISZERO PUSH2 0x4370 JUMPI DUP3 DUP8 ADD MLOAD SWAP1 POP JUMPDEST PUSH2 0x437A DUP6 DUP3 PUSH2 0x42FC JUMP JUMPDEST DUP7 SSTORE POP PUSH2 0x43E2 JUMP JUMPDEST PUSH1 0x1F NOT DUP5 AND PUSH2 0x4390 DUP7 PUSH2 0x416C JUMP JUMPDEST PUSH1 0x0 JUMPDEST DUP3 DUP2 LT ISZERO PUSH2 0x43B8 JUMPI DUP5 DUP10 ADD MLOAD DUP3 SSTORE PUSH1 0x1 DUP3 ADD SWAP2 POP PUSH1 0x20 DUP6 ADD SWAP5 POP PUSH1 0x20 DUP2 ADD SWAP1 POP PUSH2 0x4393 JUMP JUMPDEST DUP7 DUP4 LT ISZERO PUSH2 0x43D5 JUMPI DUP5 DUP10 ADD MLOAD PUSH2 0x43D1 PUSH1 0x1F DUP10 AND DUP3 PUSH2 0x42DE JUMP JUMPDEST DUP4 SSTORE POP JUMPDEST PUSH1 0x1 PUSH1 0x2 DUP9 MUL ADD DUP9 SSTORE POP POP POP JUMPDEST POP POP POP POP POP POP JUMP JUMPDEST PUSH32 0x4552433732313A207472616E736665722066726F6D20696E636F727265637420 PUSH1 0x0 DUP3 ADD MSTORE PUSH32 0x6F776E6572000000000000000000000000000000000000000000000000000000 PUSH1 0x20 DUP3 ADD MSTORE POP JUMP JUMPDEST PUSH1 0x0 PUSH2 0x4446 PUSH1 0x25 DUP4 PUSH2 0x2FFB JUMP JUMPDEST SWAP2 POP PUSH2 0x4451 DUP3 PUSH2 0x43EA JUMP JUMPDEST PUSH1 0x40 DUP3 ADD SWAP1 POP SWAP2 SWAP1 POP JUMP JUMPDEST PUSH1 0x0 PUSH1 0x20 DUP3 ADD SWAP1 POP DUP2 DUP2 SUB PUSH1 0x0 DUP4 ADD MSTORE PUSH2 0x4475 DUP2 PUSH2 0x4439 JUMP JUMPDEST SWAP1 POP SWAP2 SWAP1 POP JUMP JUMPDEST PUSH32 0x4552433732313A207472616E7366657220746F20746865207A65726F20616464 PUSH1 0x0 DUP3 ADD MSTORE PUSH32 0x7265737300000000000000000000000000000000000000000000000000000000 PUSH1 0x20 DUP3 ADD MSTORE POP JUMP JUMPDEST PUSH1 0x0 PUSH2 0x44D8 PUSH1 0x24 DUP4 PUSH2 0x2FFB JUMP JUMPDEST SWAP2 POP PUSH2 0x44E3 DUP3 PUSH2 0x447C JUMP JUMPDEST PUSH1 0x40 DUP3 ADD SWAP1 POP SWAP2 SWAP1 POP JUMP JUMPDEST PUSH1 0x0 PUSH1 0x20 DUP3 ADD SWAP1 POP DUP2 DUP2 SUB PUSH1 0x0 DUP4 ADD MSTORE PUSH2 0x4507 DUP2 PUSH2 0x44CB JUMP JUMPDEST SWAP1 POP SWAP2 SWAP1 POP JUMP JUMPDEST PUSH32 0x4552433732313A20617070726F766520746F2063616C6C657200000000000000 PUSH1 0x0 DUP3 ADD MSTORE POP JUMP JUMPDEST PUSH1 0x0 PUSH2 0x4544 PUSH1 0x19 DUP4 PUSH2 0x2FFB JUMP JUMPDEST SWAP2 POP PUSH2 0x454F DUP3 PUSH2 0x450E JUMP JUMPDEST PUSH1 0x20 DUP3 ADD SWAP1 POP SWAP2 SWAP1 POP JUMP JUMPDEST PUSH1 0x0 PUSH1 0x20 DUP3 ADD SWAP1 POP DUP2 DUP2 SUB PUSH1 0x0 DUP4 ADD MSTORE PUSH2 0x4573 DUP2 PUSH2 0x4537 JUMP JUMPDEST SWAP1 POP SWAP2 SWAP1 POP JUMP JUMPDEST PUSH32 0x4552433732313A207472616E7366657220746F206E6F6E204552433732315265 PUSH1 0x0 DUP3 ADD MSTORE PUSH32 0x63656976657220696D706C656D656E7465720000000000000000000000000000 PUSH1 0x20 DUP3 ADD MSTORE POP JUMP JUMPDEST PUSH1 0x0 PUSH2 0x45D6 PUSH1 0x32 DUP4 PUSH2 0x2FFB JUMP JUMPDEST SWAP2 POP PUSH2 0x45E1 DUP3 PUSH2 0x457A JUMP JUMPDEST PUSH1 0x40 DUP3 ADD SWAP1 POP SWAP2 SWAP1 POP JUMP JUMPDEST PUSH1 0x0 PUSH1 0x20 DUP3 ADD SWAP1 POP DUP2 DUP2 SUB PUSH1 0x0 DUP4 ADD MSTORE PUSH2 0x4605 DUP2 PUSH2 0x45C9 JUMP JUMPDEST SWAP1 POP SWAP2 SWAP1 POP JUMP JUMPDEST PUSH32 0x4E487B7100000000000000000000000000000000000000000000000000000000 PUSH1 0x0 MSTORE PUSH1 0x12 PUSH1 0x4 MSTORE PUSH1 0x24 PUSH1 0x0 REVERT JUMPDEST PUSH1 0x0 DUP2 MLOAD SWAP1 POP SWAP2 SWAP1 POP JUMP JUMPDEST PUSH1 0x0 DUP3 DUP3 MSTORE PUSH1 0x20 DUP3 ADD SWAP1 POP SWAP3 SWAP2 POP POP JUMP JUMPDEST PUSH1 0x0 PUSH2 0x4662 DUP3 PUSH2 0x463B JUMP JUMPDEST PUSH2 0x466C DUP2 DUP6 PUSH2 0x4646 JUMP JUMPDEST SWAP4 POP PUSH2 0x467C DUP2 DUP6 PUSH1 0x20 DUP7 ADD PUSH2 0x31E9 JUMP JUMPDEST PUSH2 0x4685 DUP2 PUSH2 0x3213 JUMP JUMPDEST DUP5 ADD SWAP2 POP POP SWAP3 SWAP2 POP POP JUMP JUMPDEST PUSH1 0x0 PUSH1 0x80 DUP3 ADD SWAP1 POP PUSH2 0x46A5 PUSH1 0x0 DUP4 ADD DUP8 PUSH2 0x2FEC JUMP JUMPDEST PUSH2 0x46B2 PUSH1 0x20 DUP4 ADD DUP7 PUSH2 0x2FEC JUMP JUMPDEST PUSH2 0x46BF PUSH1 0x40 DUP4 ADD DUP6 PUSH2 0x3306 JUMP JUMPDEST DUP2 DUP2 SUB PUSH1 0x60 DUP4 ADD MSTORE PUSH2 0x46D1 DUP2 DUP5 PUSH2 0x4657 JUMP JUMPDEST SWAP1 POP SWAP6 SWAP5 POP POP POP POP POP JUMP JUMPDEST PUSH1 0x0 DUP2 MLOAD SWAP1 POP PUSH2 0x46EB DUP2 PUSH2 0x314F JUMP JUMPDEST SWAP3 SWAP2 POP POP JUMP JUMPDEST PUSH1 0x0 PUSH1 0x20 DUP3 DUP5 SUB SLT ISZERO PUSH2 0x4707 JUMPI PUSH2 0x4706 PUSH2 0x30B6 JUMP JUMPDEST JUMPDEST PUSH1 0x0 PUSH2 0x4715 DUP5 DUP3 DUP6 ADD PUSH2 0x46DC JUMP JUMPDEST SWAP2 POP POP SWAP3 SWAP2 POP POP JUMP JUMPDEST PUSH32 0x4552433732313A206D696E7420746F20746865207A65726F2061646472657373 PUSH1 0x0 DUP3 ADD MSTORE POP JUMP JUMPDEST PUSH1 0x0 PUSH2 0x4754 PUSH1 0x20 DUP4 PUSH2 0x2FFB JUMP JUMPDEST SWAP2 POP PUSH2 0x475F DUP3 PUSH2 0x471E JUMP JUMPDEST PUSH1 0x20 DUP3 ADD SWAP1 POP SWAP2 SWAP1 POP JUMP JUMPDEST PUSH1 0x0 PUSH1 0x20 DUP3 ADD SWAP1 POP DUP2 DUP2 SUB PUSH1 0x0 DUP4 ADD MSTORE PUSH2 0x4783 DUP2 PUSH2 0x4747 JUMP JUMPDEST SWAP1 POP SWAP2 SWAP1 POP JUMP JUMPDEST PUSH32 0x4552433732313A20746F6B656E20616C7265616479206D696E74656400000000 PUSH1 0x0 DUP3 ADD MSTORE POP JUMP JUMPDEST PUSH1 0x0 PUSH2 0x47C0 PUSH1 0x1C DUP4 PUSH2 0x2FFB JUMP JUMPDEST SWAP2 POP PUSH2 0x47CB DUP3 PUSH2 0x478A JUMP JUMPDEST PUSH1 0x20 DUP3 ADD SWAP1 POP SWAP2 SWAP1 POP JUMP JUMPDEST PUSH1 0x0 PUSH1 0x20 DUP3 ADD SWAP1 POP DUP2 DUP2 SUB PUSH1 0x0 DUP4 ADD MSTORE PUSH2 0x47EF DUP2 PUSH2 0x47B3 JUMP JUMPDEST SWAP1 POP SWAP2 SWAP1 POP JUMP INVALID LOG2 PUSH5 0x6970667358 0x22 SLT KECCAK256 0xCE JUMPI 0x1F RETURN 0xFB REVERT 0xAB CREATE 0x2A 0xC0 0xD0 0xC3 SWAP11 0xCD 0xCE 0xAF 0x5C SWAP5 0xE2 0xB5 PUSH11 0x264496914C94029777D2AB PUSH5 0x736F6C6343 STOP ADDMOD SLT STOP CALLER "
		},
		"gasEstimates": {
			"creation": {
				"codeDepositCost": "3695200",
				"executionCost": "infinite",
				"totalCost": "infinite"
			},
			"external": {
				"": "2681",
				"approve(address,uint256)": "infinite",
				"balanceOf(address)": "2944",
				"changeWalletLimit(uint256)": "infinite",
				"getAnyMints(uint256)": "infinite",
				"getApproved(uint256)": "5278",
				"getBalance()": "infinite",
				"getMyWalletMints()": "infinite",
				"getTotalNftsMinted()": "2575",
				"humans(uint256)": "infinite",
				"isApprovedForAll(address,address)": "infinite",
				"maxPerWallet()": "2496",
				"maxSupply()": "2473",
				"mintPrice()": "2475",
				"mintToken(string,string,string,string,string)": "infinite",
				"name()": "infinite",
				"owner()": "infinite",
				"ownerOf(uint256)": "3110",
				"safeTransferFrom(address,address,uint256)": "infinite",
				"safeTransferFrom(address,address,uint256,bytes)": "infinite",
				"setApprovalForAll(address,bool)": "infinite",
				"supportsInterface(bytes4)": "842",
				"symbol()": "infinite",
				"tokenURI(uint256)": "3504",
				"transferFrom(address,address,uint256)": "infinite",
				"transferMintToken(address)": "infinite",
				"unmintMyMints()": "2636",
				"updateMintPrice(uint256)": "infinite",
				"walletMints(address)": "2902",
				"withdraw()": "infinite"
			},
			"internal": {
				"safeMint(address,string memory,string memory,string memory,string memory,string memory)": "infinite",
				"safeMintTransfer(address)": "infinite"
			}
		},
		"methodIdentifiers": {
			"approve(address,uint256)": "095ea7b3",
			"balanceOf(address)": "70a08231",
			"changeWalletLimit(uint256)": "7db1342c",
			"getAnyMints(uint256)": "29b31633",
			"getApproved(uint256)": "081812fc",
			"getBalance()": "12065fe0",
			"getMyWalletMints()": "50516808",
			"getTotalNftsMinted()": "c1d60083",
			"humans(uint256)": "8102fced",
			"isApprovedForAll(address,address)": "e985e9c5",
			"maxPerWallet()": "453c2310",
			"maxSupply()": "d5abeb01",
			"mintPrice()": "6817c76c",
			"mintToken(string,string,string,string,string)": "19fa1099",
			"name()": "06fdde03",
			"owner()": "8da5cb5b",
			"ownerOf(uint256)": "6352211e",
			"safeTransferFrom(address,address,uint256)": "42842e0e",
			"safeTransferFrom(address,address,uint256,bytes)": "b88d4fde",
			"setApprovalForAll(address,bool)": "a22cb465",
			"supportsInterface(bytes4)": "01ffc9a7",
			"symbol()": "95d89b41",
			"tokenURI(uint256)": "c87b56dd",
			"transferFrom(address,address,uint256)": "23b872dd",
			"transferMintToken(address)": "a577d0aa",
			"unmintMyMints()": "f72a71f2",
			"updateMintPrice(uint256)": "00728e46",
			"walletMints(address)": "f0293fd3",
			"withdraw()": "3ccfd60b"
		}
	},
	"abi": [
		{
			"inputs": [],
			"stateMutability": "nonpayable",
			"type": "constructor"
		},
		{
			"anonymous": false,
			"inputs": [
				{
					"indexed": true,
					"internalType": "address",
					"name": "owner",
					"type": "address"
				},
				{
					"indexed": true,
					"internalType": "address",
					"name": "approved",
					"type": "address"
				},
				{
					"indexed": true,
					"internalType": "uint256",
					"name": "tokenId",
					"type": "uint256"
				}
			],
			"name": "Approval",
			"type": "event"
		},
		{
			"anonymous": false,
			"inputs": [
				{
					"indexed": true,
					"internalType": "address",
					"name": "owner",
					"type": "address"
				},
				{
					"indexed": true,
					"internalType": "address",
					"name": "operator",
					"type": "address"
				},
				{
					"indexed": false,
					"internalType": "bool",
					"name": "approved",
					"type": "bool"
				}
			],
			"name": "ApprovalForAll",
			"type": "event"
		},
		{
			"anonymous": false,
			"inputs": [
				{
					"indexed": true,
					"internalType": "address",
					"name": "from",
					"type": "address"
				},
				{
					"indexed": true,
					"internalType": "address",
					"name": "to",
					"type": "address"
				},
				{
					"indexed": true,
					"internalType": "uint256",
					"name": "tokenId",
					"type": "uint256"
				}
			],
			"name": "Transfer",
			"type": "event"
		},
		{
			"anonymous": false,
			"inputs": [
				{
					"indexed": false,
					"internalType": "address",
					"name": "sender",
					"type": "address"
				},
				{
					"indexed": false,
					"internalType": "string",
					"name": "msg",
					"type": "string"
				}
			],
			"name": "charity",
			"type": "event"
		},
		{
			"anonymous": false,
			"inputs": [
				{
					"indexed": false,
					"internalType": "address",
					"name": "who",
					"type": "address"
				},
				{
					"indexed": false,
					"internalType": "string",
					"name": "cause",
					"type": "string"
				}
			],
			"name": "nftPurchaseFailed",
			"type": "event"
		},
		{
			"anonymous": false,
			"inputs": [
				{
					"indexed": false,
					"internalType": "address",
					"name": "purchasor",
					"type": "address"
				}
			],
			"name": "nftPurchased",
			"type": "event"
		},
		{
			"anonymous": false,
			"inputs": [
				{
					"indexed": false,
					"internalType": "address",
					"name": "sender",
					"type": "address"
				},
				{
					"indexed": false,
					"internalType": "address",
					"name": "recipient",
					"type": "address"
				}
			],
			"name": "nftTransferred",
			"type": "event"
		},
		{
			"anonymous": false,
			"inputs": [
				{
					"indexed": false,
					"internalType": "address",
					"name": "who",
					"type": "address"
				},
				{
					"indexed": false,
					"internalType": "uint256",
					"name": "value",
					"type": "uint256"
				},
				{
					"indexed": false,
					"internalType": "string",
					"name": "cause",
					"type": "string"
				}
			],
			"name": "withdrawalFailed",
			"type": "event"
		},
		{
			"anonymous": false,
			"inputs": [
				{
					"indexed": false,
					"internalType": "address",
					"name": "who",
					"type": "address"
				},
				{
					"indexed": false,
					"internalType": "string",
					"name": "value",
					"type": "string"
				}
			],
			"name": "withdrawalSuccess",
			"type": "event"
		},
		{
			"stateMutability": "payable",
			"type": "fallback"
		},
		{
			"inputs": [
				{
					"internalType": "address",
					"name": "to",
					"type": "address"
				},
				{
					"internalType": "uint256",
					"name": "tokenId",
					"type": "uint256"
				}
			],
			"name": "approve",
			"outputs": [],
			"stateMutability": "nonpayable",
			"type": "function"
		},
		{
			"inputs": [
				{
					"internalType": "address",
					"name": "owner",
					"type": "address"
				}
			],
			"name": "balanceOf",
			"outputs": [
				{
					"internalType": "uint256",
					"name": "",
					"type": "uint256"
				}
			],
			"stateMutability": "view",
			"type": "function"
		},
		{
			"inputs": [
				{
					"internalType": "uint256",
					"name": "_maxPerWallet",
					"type": "uint256"
				}
			],
			"name": "changeWalletLimit",
			"outputs": [],
			"stateMutability": "nonpayable",
			"type": "function"
		},
		{
			"inputs": [
				{
					"internalType": "uint256",
					"name": "_tokenId",
					"type": "uint256"
				}
			],
			"name": "getAnyMints",
			"outputs": [
				{
					"components": [
						{
							"internalType": "uint256",
							"name": "tokenId",
							"type": "uint256"
						},
						{
							"internalType": "address",
							"name": "firstOwner",
							"type": "address"
						},
						{
							"internalType": "string",
							"name": "firstName",
							"type": "string"
						},
						{
							"internalType": "string",
							"name": "middleName",
							"type": "string"
						},
						{
							"internalType": "string",
							"name": "lastName",
							"type": "string"
						},
						{
							"internalType": "string",
							"name": "image",
							"type": "string"
						},
						{
							"internalType": "string",
							"name": "audio",
							"type": "string"
						}
					],
					"internalType": "struct NamerKorectlyToken.WhoAmI",
					"name": "",
					"type": "tuple"
				}
			],
			"stateMutability": "view",
			"type": "function"
		},
		{
			"inputs": [
				{
					"internalType": "uint256",
					"name": "tokenId",
					"type": "uint256"
				}
			],
			"name": "getApproved",
			"outputs": [
				{
					"internalType": "address",
					"name": "",
					"type": "address"
				}
			],
			"stateMutability": "view",
			"type": "function"
		},
		{
			"inputs": [],
			"name": "getBalance",
			"outputs": [
				{
					"internalType": "uint256",
					"name": "",
					"type": "uint256"
				}
			],
			"stateMutability": "view",
			"type": "function"
		},
		{
			"inputs": [],
			"name": "getMyWalletMints",
			"outputs": [
				{
					"components": [
						{
							"internalType": "uint256",
							"name": "tokenId",
							"type": "uint256"
						},
						{
							"internalType": "address",
							"name": "firstOwner",
							"type": "address"
						},
						{
							"internalType": "string",
							"name": "firstName",
							"type": "string"
						},
						{
							"internalType": "string",
							"name": "middleName",
							"type": "string"
						},
						{
							"internalType": "string",
							"name": "lastName",
							"type": "string"
						},
						{
							"internalType": "string",
							"name": "image",
							"type": "string"
						},
						{
							"internalType": "string",
							"name": "audio",
							"type": "string"
						}
					],
					"internalType": "struct NamerKorectlyToken.WhoAmI",
					"name": "",
					"type": "tuple"
				}
			],
			"stateMutability": "view",
			"type": "function"
		},
		{
			"inputs": [],
			"name": "getTotalNftsMinted",
			"outputs": [
				{
					"internalType": "uint256",
					"name": "",
					"type": "uint256"
				}
			],
			"stateMutability": "view",
			"type": "function"
		},
		{
			"inputs": [
				{
					"internalType": "uint256",
					"name": "",
					"type": "uint256"
				}
			],
			"name": "humans",
			"outputs": [
				{
					"internalType": "uint256",
					"name": "tokenId",
					"type": "uint256"
				},
				{
					"internalType": "address",
					"name": "firstOwner",
					"type": "address"
				},
				{
					"internalType": "string",
					"name": "firstName",
					"type": "string"
				},
				{
					"internalType": "string",
					"name": "middleName",
					"type": "string"
				},
				{
					"internalType": "string",
					"name": "lastName",
					"type": "string"
				},
				{
					"internalType": "string",
					"name": "image",
					"type": "string"
				},
				{
					"internalType": "string",
					"name": "audio",
					"type": "string"
				}
			],
			"stateMutability": "view",
			"type": "function"
		},
		{
			"inputs": [
				{
					"internalType": "address",
					"name": "owner",
					"type": "address"
				},
				{
					"internalType": "address",
					"name": "operator",
					"type": "address"
				}
			],
			"name": "isApprovedForAll",
			"outputs": [
				{
					"internalType": "bool",
					"name": "",
					"type": "bool"
				}
			],
			"stateMutability": "view",
			"type": "function"
		},
		{
			"inputs": [],
			"name": "maxPerWallet",
			"outputs": [
				{
					"internalType": "uint256",
					"name": "",
					"type": "uint256"
				}
			],
			"stateMutability": "view",
			"type": "function"
		},
		{
			"inputs": [],
			"name": "maxSupply",
			"outputs": [
				{
					"internalType": "uint256",
					"name": "",
					"type": "uint256"
				}
			],
			"stateMutability": "view",
			"type": "function"
		},
		{
			"inputs": [],
			"name": "mintPrice",
			"outputs": [
				{
					"internalType": "uint256",
					"name": "",
					"type": "uint256"
				}
			],
			"stateMutability": "view",
			"type": "function"
		},
		{
			"inputs": [
				{
					"internalType": "string",
					"name": "_firstName",
					"type": "string"
				},
				{
					"internalType": "string",
					"name": "_middleName",
					"type": "string"
				},
				{
					"internalType": "string",
					"name": "_lastName",
					"type": "string"
				},
				{
					"internalType": "string",
					"name": "_image",
					"type": "string"
				},
				{
					"internalType": "string",
					"name": "_audio",
					"type": "string"
				}
			],
			"name": "mintToken",
			"outputs": [],
			"stateMutability": "payable",
			"type": "function"
		},
		{
			"inputs": [],
			"name": "name",
			"outputs": [
				{
					"internalType": "string",
					"name": "",
					"type": "string"
				}
			],
			"stateMutability": "view",
			"type": "function"
		},
		{
			"inputs": [],
			"name": "owner",
			"outputs": [
				{
					"internalType": "address",
					"name": "",
					"type": "address"
				}
			],
			"stateMutability": "view",
			"type": "function"
		},
		{
			"inputs": [
				{
					"internalType": "uint256",
					"name": "tokenId",
					"type": "uint256"
				}
			],
			"name": "ownerOf",
			"outputs": [
				{
					"internalType": "address",
					"name": "",
					"type": "address"
				}
			],
			"stateMutability": "view",
			"type": "function"
		},
		{
			"inputs": [
				{
					"internalType": "address",
					"name": "from",
					"type": "address"
				},
				{
					"internalType": "address",
					"name": "to",
					"type": "address"
				},
				{
					"internalType": "uint256",
					"name": "tokenId",
					"type": "uint256"
				}
			],
			"name": "safeTransferFrom",
			"outputs": [],
			"stateMutability": "nonpayable",
			"type": "function"
		},
		{
			"inputs": [
				{
					"internalType": "address",
					"name": "from",
					"type": "address"
				},
				{
					"internalType": "address",
					"name": "to",
					"type": "address"
				},
				{
					"internalType": "uint256",
					"name": "tokenId",
					"type": "uint256"
				},
				{
					"internalType": "bytes",
					"name": "data",
					"type": "bytes"
				}
			],
			"name": "safeTransferFrom",
			"outputs": [],
			"stateMutability": "nonpayable",
			"type": "function"
		},
		{
			"inputs": [
				{
					"internalType": "address",
					"name": "operator",
					"type": "address"
				},
				{
					"internalType": "bool",
					"name": "approved",
					"type": "bool"
				}
			],
			"name": "setApprovalForAll",
			"outputs": [],
			"stateMutability": "nonpayable",
			"type": "function"
		},
		{
			"inputs": [
				{
					"internalType": "bytes4",
					"name": "interfaceId",
					"type": "bytes4"
				}
			],
			"name": "supportsInterface",
			"outputs": [
				{
					"internalType": "bool",
					"name": "",
					"type": "bool"
				}
			],
			"stateMutability": "view",
			"type": "function"
		},
		{
			"inputs": [],
			"name": "symbol",
			"outputs": [
				{
					"internalType": "string",
					"name": "",
					"type": "string"
				}
			],
			"stateMutability": "view",
			"type": "function"
		},
		{
			"inputs": [
				{
					"internalType": "uint256",
					"name": "tokenId",
					"type": "uint256"
				}
			],
			"name": "tokenURI",
			"outputs": [
				{
					"internalType": "string",
					"name": "",
					"type": "string"
				}
			],
			"stateMutability": "view",
			"type": "function"
		},
		{
			"inputs": [
				{
					"internalType": "address",
					"name": "from",
					"type": "address"
				},
				{
					"internalType": "address",
					"name": "to",
					"type": "address"
				},
				{
					"internalType": "uint256",
					"name": "tokenId",
					"type": "uint256"
				}
			],
			"name": "transferFrom",
			"outputs": [],
			"stateMutability": "nonpayable",
			"type": "function"
		},
		{
			"inputs": [
				{
					"internalType": "address",
					"name": "_recipient",
					"type": "address"
				}
			],
			"name": "transferMintToken",
			"outputs": [],
			"stateMutability": "payable",
			"type": "function"
		},
		{
			"inputs": [],
			"name": "unmintMyMints",
			"outputs": [
				{
					"internalType": "uint256",
					"name": "",
					"type": "uint256"
				}
			],
			"stateMutability": "view",
			"type": "function"
		},
		{
			"inputs": [
				{
					"internalType": "uint256",
					"name": "_mintPrice",
					"type": "uint256"
				}
			],
			"name": "updateMintPrice",
			"outputs": [],
			"stateMutability": "nonpayable",
			"type": "function"
		},
		{
			"inputs": [
				{
					"internalType": "address",
					"name": "",
					"type": "address"
				}
			],
			"name": "walletMints",
			"outputs": [
				{
					"internalType": "uint256",
					"name": "",
					"type": "uint256"
				}
			],
			"stateMutability": "view",
			"type": "function"
		},
		{
			"inputs": [],
			"name": "withdraw",
			"outputs": [],
			"stateMutability": "nonpayable",
			"type": "function"
		},
		{
			"stateMutability": "payable",
			"type": "receive"
		}
	]
}